{
  "contractName": "bookToken",
  "abi": [
    {
      "inputs": [
        {
          "internalType": "uint256",
          "name": "",
          "type": "uint256"
        }
      ],
      "name": "books",
      "outputs": [
        {
          "internalType": "string",
          "name": "title",
          "type": "string"
        },
        {
          "internalType": "string",
          "name": "author",
          "type": "string"
        },
        {
          "internalType": "uint256",
          "name": "copies",
          "type": "uint256"
        },
        {
          "internalType": "string",
          "name": "isbn",
          "type": "string"
        }
      ],
      "stateMutability": "view",
      "type": "function"
    },
    {
      "inputs": [],
      "name": "totalBooks",
      "outputs": [
        {
          "internalType": "uint256",
          "name": "",
          "type": "uint256"
        }
      ],
      "stateMutability": "view",
      "type": "function"
    },
    {
      "inputs": [
        {
          "internalType": "string",
          "name": "_title",
          "type": "string"
        },
        {
          "internalType": "string",
          "name": "_author",
          "type": "string"
        },
        {
          "internalType": "uint256",
          "name": "_copies",
          "type": "uint256"
        },
        {
          "internalType": "string",
          "name": "_isbn",
          "type": "string"
        }
      ],
      "name": "addBook",
      "outputs": [],
      "stateMutability": "nonpayable",
      "type": "function"
    },
    {
      "inputs": [
        {
          "internalType": "uint256",
          "name": "_bookId",
          "type": "uint256"
        }
      ],
      "name": "getBookDetails",
      "outputs": [
        {
          "components": [
            {
              "internalType": "string",
              "name": "title",
              "type": "string"
            },
            {
              "internalType": "string",
              "name": "author",
              "type": "string"
            },
            {
              "internalType": "uint256",
              "name": "copies",
              "type": "uint256"
            },
            {
              "internalType": "string",
              "name": "isbn",
              "type": "string"
            }
          ],
          "internalType": "struct bookToken.Book",
          "name": "",
          "type": "tuple"
        }
      ],
      "stateMutability": "view",
      "type": "function"
    },
    {
      "inputs": [
        {
          "internalType": "uint256",
          "name": "_bookId",
          "type": "uint256"
        }
      ],
      "name": "getBookCopies",
      "outputs": [
        {
          "internalType": "uint256",
          "name": "",
          "type": "uint256"
        }
      ],
      "stateMutability": "view",
      "type": "function"
    },
    {
      "inputs": [
        {
          "internalType": "uint256",
          "name": "_bookId",
          "type": "uint256"
        },
        {
          "internalType": "uint256",
          "name": "_copies",
          "type": "uint256"
        }
      ],
      "name": "addCopies",
      "outputs": [],
      "stateMutability": "nonpayable",
      "type": "function"
    },
    {
      "inputs": [
        {
          "internalType": "uint256",
          "name": "_bookId",
          "type": "uint256"
        }
      ],
      "name": "isBookAvailable",
      "outputs": [
        {
          "internalType": "bool",
          "name": "",
          "type": "bool"
        }
      ],
      "stateMutability": "view",
      "type": "function"
    }
  ],
  "bytecode": "0x608060405234801561000f575f80fd5b506110b38061001d5f395ff3fe608060405234801561000f575f80fd5b506004361061007b575f3560e01c806374ff48181161005957806374ff4818146100ec578063a42a23d21461011c578063c0d019891461014c578063ffc1c2e6146101685761007b565b8063598e14551461007f578063687440461461009b5780636ec4f4bf146100ce575b5f80fd5b61009960048036038101906100949190610972565b610198565b005b6100b560048036038101906100b09190610a2a565b610240565b6040516100c59493929190610ade565b60405180910390f35b6100d66103fd565b6040516100e39190610b36565b60405180910390f35b61010660048036038101906101019190610a2a565b610403565b6040516101139190610c14565b60405180910390f35b61013660048036038101906101319190610a2a565b610641565b6040516101439190610c4e565b60405180910390f35b61016660048036038101906101619190610c67565b6106cc565b005b610182600480360381019061017d9190610a2a565b610754565b60405161018f9190610b36565b60405180910390f35b6040518060800160405280858152602001848152602001838152602001828152505f80600180546101c99190610cd2565b81526020019081526020015f205f820151815f0190816101e99190610eff565b5060208201518160010190816101ff9190610eff565b5060408201518160020155606082015181600301908161021f9190610eff565b5090505060015f81548092919061023590610fce565b919050555050505050565b5f602052805f5260405f205f91509050805f01805461025e90610d32565b80601f016020809104026020016040519081016040528092919081815260200182805461028a90610d32565b80156102d55780601f106102ac576101008083540402835291602001916102d5565b820191905f5260205f20905b8154815290600101906020018083116102b857829003601f168201915b5050505050908060010180546102ea90610d32565b80601f016020809104026020016040519081016040528092919081815260200182805461031690610d32565b80156103615780601f1061033857610100808354040283529160200191610361565b820191905f5260205f20905b81548152906001019060200180831161034457829003601f168201915b50505050509080600201549080600301805461037c90610d32565b80601f01602080910402602001604051908101604052809291908181526020018280546103a890610d32565b80156103f35780601f106103ca576101008083540402835291602001916103f3565b820191905f5260205f20905b8154815290600101906020018083116103d657829003601f168201915b5050505050905084565b60015481565b61040b6107cb565b60015482118061041a57505f82105b8061042657505f600154145b15610466576040517f08c379a000000000000000000000000000000000000000000000000000000000815260040161045d9061105f565b60405180910390fd5b5f808381526020019081526020015f206040518060800160405290815f8201805461049090610d32565b80601f01602080910402602001604051908101604052809291908181526020018280546104bc90610d32565b80156105075780601f106104de57610100808354040283529160200191610507565b820191905f5260205f20905b8154815290600101906020018083116104ea57829003601f168201915b5050505050815260200160018201805461052090610d32565b80601f016020809104026020016040519081016040528092919081815260200182805461054c90610d32565b80156105975780601f1061056e57610100808354040283529160200191610597565b820191905f5260205f20905b81548152906001019060200180831161057a57829003601f168201915b50505050508152602001600282015481526020016003820180546105ba90610d32565b80601f01602080910402602001604051908101604052809291908181526020018280546105e690610d32565b80156106315780601f1061060857610100808354040283529160200191610631565b820191905f5260205f20905b81548152906001019060200180831161061457829003601f168201915b5050505050815250509050919050565b5f600154821180610653575060015482105b8061065f57505f600154145b1561069f576040517f08c379a00000000000000000000000000000000000000000000000000000000081526004016106969061105f565b60405180910390fd5b5f805f8481526020019081526020015f206002015411156106c357600190506106c7565b5f90505b919050565b6001548211806106db57505f82105b806106e757505f600154145b15610727576040517f08c379a000000000000000000000000000000000000000000000000000000000815260040161071e9061105f565b60405180910390fd5b805f808481526020019081526020015f206002015f8282546107499190610cd2565b925050819055505050565b5f60015482118061076457505f82105b8061077057505f600154145b156107b0576040517f08c379a00000000000000000000000000000000000000000000000000000000081526004016107a79061105f565b60405180910390fd5b5f808381526020019081526020015f20600201549050919050565b604051806080016040528060608152602001606081526020015f8152602001606081525090565b5f604051905090565b5f80fd5b5f80fd5b5f80fd5b5f80fd5b5f601f19601f8301169050919050565b7f4e487b71000000000000000000000000000000000000000000000000000000005f52604160045260245ffd5b6108518261080b565b810181811067ffffffffffffffff821117156108705761086f61081b565b5b80604052505050565b5f6108826107f2565b905061088e8282610848565b919050565b5f67ffffffffffffffff8211156108ad576108ac61081b565b5b6108b68261080b565b9050602081019050919050565b828183375f83830152505050565b5f6108e36108de84610893565b610879565b9050828152602081018484840111156108ff576108fe610807565b5b61090a8482856108c3565b509392505050565b5f82601f83011261092657610925610803565b5b81356109368482602086016108d1565b91505092915050565b5f819050919050565b6109518161093f565b811461095b575f80fd5b50565b5f8135905061096c81610948565b92915050565b5f805f806080858703121561098a576109896107fb565b5b5f85013567ffffffffffffffff8111156109a7576109a66107ff565b5b6109b387828801610912565b945050602085013567ffffffffffffffff8111156109d4576109d36107ff565b5b6109e087828801610912565b93505060406109f18782880161095e565b925050606085013567ffffffffffffffff811115610a1257610a116107ff565b5b610a1e87828801610912565b91505092959194509250565b5f60208284031215610a3f57610a3e6107fb565b5b5f610a4c8482850161095e565b91505092915050565b5f81519050919050565b5f82825260208201905092915050565b5f5b83811015610a8c578082015181840152602081019050610a71565b5f8484015250505050565b5f610aa182610a55565b610aab8185610a5f565b9350610abb818560208601610a6f565b610ac48161080b565b840191505092915050565b610ad88161093f565b82525050565b5f6080820190508181035f830152610af68187610a97565b90508181036020830152610b0a8186610a97565b9050610b196040830185610acf565b8181036060830152610b2b8184610a97565b905095945050505050565b5f602082019050610b495f830184610acf565b92915050565b5f82825260208201905092915050565b5f610b6982610a55565b610b738185610b4f565b9350610b83818560208601610a6f565b610b8c8161080b565b840191505092915050565b610ba08161093f565b82525050565b5f608083015f8301518482035f860152610bc08282610b5f565b91505060208301518482036020860152610bda8282610b5f565b9150506040830151610bef6040860182610b97565b5060608301518482036060860152610c078282610b5f565b9150508091505092915050565b5f6020820190508181035f830152610c2c8184610ba6565b905092915050565b5f8115159050919050565b610c4881610c34565b82525050565b5f602082019050610c615f830184610c3f565b92915050565b5f8060408385031215610c7d57610c7c6107fb565b5b5f610c8a8582860161095e565b9250506020610c9b8582860161095e565b9150509250929050565b7f4e487b71000000000000000000000000000000000000000000000000000000005f52601160045260245ffd5b5f610cdc8261093f565b9150610ce78361093f565b9250828201905080821115610cff57610cfe610ca5565b5b92915050565b7f4e487b71000000000000000000000000000000000000000000000000000000005f52602260045260245ffd5b5f6002820490506001821680610d4957607f821691505b602082108103610d5c57610d5b610d05565b5b50919050565b5f819050815f5260205f209050919050565b5f6020601f8301049050919050565b5f82821b905092915050565b5f60088302610dbe7fffffffffffffffffffffffffffffffffffffffffffffffffffffffffffffffff82610d83565b610dc88683610d83565b95508019841693508086168417925050509392505050565b5f819050919050565b5f610e03610dfe610df98461093f565b610de0565b61093f565b9050919050565b5f819050919050565b610e1c83610de9565b610e30610e2882610e0a565b848454610d8f565b825550505050565b5f90565b610e44610e38565b610e4f818484610e13565b505050565b5b81811015610e7257610e675f82610e3c565b600181019050610e55565b5050565b601f821115610eb757610e8881610d62565b610e9184610d74565b81016020851015610ea0578190505b610eb4610eac85610d74565b830182610e54565b50505b505050565b5f82821c905092915050565b5f610ed75f1984600802610ebc565b1980831691505092915050565b5f610eef8383610ec8565b9150826002028217905092915050565b610f0882610a55565b67ffffffffffffffff811115610f2157610f2061081b565b5b610f2b8254610d32565b610f36828285610e76565b5f60209050601f831160018114610f67575f8415610f55578287015190505b610f5f8582610ee4565b865550610fc6565b601f198416610f7586610d62565b5f5b82811015610f9c57848901518255600182019150602085019450602081019050610f77565b86831015610fb95784890151610fb5601f891682610ec8565b8355505b6001600288020188555050505b505050505050565b5f610fd88261093f565b91507fffffffffffffffffffffffffffffffffffffffffffffffffffffffffffffffff820361100a57611009610ca5565b5b600182019050919050565b7f426f6f6b20646f6573206e6f74206578697374000000000000000000000000005f82015250565b5f611049601383610a5f565b915061105482611015565b602082019050919050565b5f6020820190508181035f8301526110768161103d565b905091905056fea2646970667358221220d098173f00fd7265c5d505274518b458450570c430c70292c39c4d7290406d7964736f6c63430008140033",
  "immutableReferences": {},
  "source": "// SPDX-License-Identifier: GPL-3.0\r\npragma solidity >=0.4.16 <0.9.0;\r\n\r\ncontract bookToken {\r\n    struct Book {\r\n        string title;\r\n        string author;\r\n        uint256 copies;\r\n        string isbn;\r\n    }\r\n\r\n    mapping(uint256 => Book) public books;\r\n    // This gives birth to the idea behind a unique bookId for each book which is essentially the order in which each book was registered in the library's systems.\r\n    uint256 public totalBooks;\r\n\r\n    function addBook(\r\n        string memory _title,\r\n        string memory _author,\r\n        uint256 _copies,\r\n        string memory _isbn\r\n    ) public {\r\n        books[totalBooks + 1] = Book(_title, _author, _copies, _isbn);\r\n        totalBooks++;\r\n    }\r\n\r\n    function getBookDetails(uint256 _bookId) public view returns (Book memory) {\r\n        if (_bookId > totalBooks || _bookId < 0 || totalBooks == 0) {\r\n            revert(\"Book does not exist\");\r\n        } else {\r\n            return books[_bookId];\r\n        }\r\n\r\n        // Testing has led me to find out that this function returns not a struct but a string array of the struct's values.\r\n        // To optimize for usage, we can convert the returned array's required values into string and then parse it into whatever type we want.\r\n        // This is done in the bookToken.test.js file\r\n        // I will leave this here for reference purposes.\r\n    }\r\n\r\n    function getBookCopies(uint256 _bookId) public view returns (uint256) {\r\n        if (_bookId > totalBooks || _bookId < 0 || totalBooks == 0) {\r\n            revert(\"Book does not exist\");\r\n        } else {\r\n            return books[_bookId].copies;\r\n        }\r\n    }\r\n\r\n    function addCopies(uint256 _bookId, uint256 _copies) public {\r\n        if (_bookId > totalBooks || _bookId < 0 || totalBooks == 0) {\r\n            revert(\"Book does not exist\");\r\n        } else {\r\n            books[_bookId].copies += _copies;\r\n        }\r\n    }\r\n\r\n    function isBookAvailable(uint256 _bookId) public view returns (bool) {\r\n        if (_bookId > totalBooks || _bookId < totalBooks || totalBooks == 0) {\r\n            revert(\"Book does not exist\");\r\n        } else {\r\n            if (books[_bookId].copies > 0) {\r\n                return true;\r\n            } else {\r\n                return false;\r\n            }\r\n        }\r\n    }\r\n}\r\n",
  "sourcePath": "C:\\Users\\DELL\\Desktop\\Side Projects\\Librarium\\contracts\\bookToken.sol",
  "compiler": {
    "name": "solc",
    "version": "0.8.20+commit.a1b79de6.Emscripten.clang"
  },
  "schemaVersion": "3.4.14",
  "updatedAt": "2023-05-23T14:59:42.595Z",
  "devdoc": {
    "kind": "dev",
    "methods": {},
    "version": 1
  },
  "userdoc": {
    "kind": "user",
    "methods": {},
    "version": 1
  }
}