{
  "contractName": "bookToken",
  "abi": [
    {
      "inputs": [
        {
          "internalType": "uint256",
          "name": "",
          "type": "uint256"
        }
      ],
      "name": "books",
      "outputs": [
        {
          "internalType": "string",
          "name": "title",
          "type": "string"
        },
        {
          "internalType": "string",
          "name": "author",
          "type": "string"
        },
        {
          "internalType": "uint256",
          "name": "copies",
          "type": "uint256"
        },
        {
          "internalType": "string",
          "name": "isbn",
          "type": "string"
        }
      ],
      "stateMutability": "view",
      "type": "function"
    },
    {
      "inputs": [],
      "name": "totalBooks",
      "outputs": [
        {
          "internalType": "uint256",
          "name": "",
          "type": "uint256"
        }
      ],
      "stateMutability": "view",
      "type": "function"
    },
    {
      "inputs": [
        {
          "internalType": "string",
          "name": "_title",
          "type": "string"
        },
        {
          "internalType": "string",
          "name": "_author",
          "type": "string"
        },
        {
          "internalType": "uint256",
          "name": "_copies",
          "type": "uint256"
        },
        {
          "internalType": "string",
          "name": "_isbn",
          "type": "string"
        }
      ],
      "name": "addBook",
      "outputs": [],
      "stateMutability": "nonpayable",
      "type": "function"
    },
    {
      "inputs": [
        {
          "internalType": "uint256",
          "name": "_bookId",
          "type": "uint256"
        }
      ],
      "name": "getBookDetails",
      "outputs": [
        {
          "components": [
            {
              "internalType": "string",
              "name": "title",
              "type": "string"
            },
            {
              "internalType": "string",
              "name": "author",
              "type": "string"
            },
            {
              "internalType": "uint256",
              "name": "copies",
              "type": "uint256"
            },
            {
              "internalType": "string",
              "name": "isbn",
              "type": "string"
            }
          ],
          "internalType": "struct bookToken.Book",
          "name": "",
          "type": "tuple"
        }
      ],
      "stateMutability": "view",
      "type": "function"
    },
    {
      "inputs": [
        {
          "internalType": "uint256",
          "name": "_bookId",
          "type": "uint256"
        }
      ],
      "name": "getBookCopies",
      "outputs": [
        {
          "internalType": "uint256",
          "name": "",
          "type": "uint256"
        }
      ],
      "stateMutability": "view",
      "type": "function"
    },
    {
      "inputs": [
        {
          "internalType": "string",
          "name": "_isbn",
          "type": "string"
        }
      ],
      "name": "getBookId",
      "outputs": [
        {
          "internalType": "uint256",
          "name": "",
          "type": "uint256"
        }
      ],
      "stateMutability": "view",
      "type": "function"
    },
    {
      "inputs": [
        {
          "internalType": "uint256",
          "name": "_bookId",
          "type": "uint256"
        },
        {
          "internalType": "uint256",
          "name": "_copies",
          "type": "uint256"
        }
      ],
      "name": "addCopies",
      "outputs": [],
      "stateMutability": "nonpayable",
      "type": "function"
    },
    {
      "inputs": [
        {
          "internalType": "uint256",
          "name": "_bookId",
          "type": "uint256"
        }
      ],
      "name": "isBookAvailable",
      "outputs": [
        {
          "internalType": "bool",
          "name": "",
          "type": "bool"
        }
      ],
      "stateMutability": "view",
      "type": "function"
    }
  ],
  "bytecode": "0x608060405234801561000f575f80fd5b506112da8061001d5f395ff3fe608060405234801561000f575f80fd5b5060043610610086575f3560e01c8063a42a23d211610059578063a42a23d214610127578063c0d0198914610157578063edc0791314610173578063ffc1c2e6146101a357610086565b8063598e14551461008a57806368744046146100a65780636ec4f4bf146100d957806374ff4818146100f7575b5f80fd5b6100a4600480360381019061009f9190610a6c565b6101d3565b005b6100c060048036038101906100bb9190610b24565b61027b565b6040516100d09493929190610bd8565b60405180910390f35b6100e1610438565b6040516100ee9190610c30565b60405180910390f35b610111600480360381019061010c9190610b24565b61043e565b60405161011e9190610d0e565b60405180910390f35b610141600480360381019061013c9190610b24565b61067c565b60405161014e9190610d48565b60405180910390f35b610171600480360381019061016c9190610d61565b610707565b005b61018d60048036038101906101889190610d9f565b61078f565b60405161019a9190610c30565b60405180910390f35b6101bd60048036038101906101b89190610b24565b61084e565b6040516101ca9190610c30565b60405180910390f35b6040518060800160405280858152602001848152602001838152602001828152505f80600180546102049190610e13565b81526020019081526020015f205f820151815f0190816102249190611040565b50602082015181600101908161023a9190611040565b5060408201518160020155606082015181600301908161025a9190611040565b5090505060015f8154809291906102709061110f565b919050555050505050565b5f602052805f5260405f205f91509050805f01805461029990610e73565b80601f01602080910402602001604051908101604052809291908181526020018280546102c590610e73565b80156103105780601f106102e757610100808354040283529160200191610310565b820191905f5260205f20905b8154815290600101906020018083116102f357829003601f168201915b50505050509080600101805461032590610e73565b80601f016020809104026020016040519081016040528092919081815260200182805461035190610e73565b801561039c5780601f106103735761010080835404028352916020019161039c565b820191905f5260205f20905b81548152906001019060200180831161037f57829003601f168201915b5050505050908060020154908060030180546103b790610e73565b80601f01602080910402602001604051908101604052809291908181526020018280546103e390610e73565b801561042e5780601f106104055761010080835404028352916020019161042e565b820191905f5260205f20905b81548152906001019060200180831161041157829003601f168201915b5050505050905084565b60015481565b6104466108c5565b60015482118061045557505f82105b8061046157505f600154145b156104a1576040517f08c379a0000000000000000000000000000000000000000000000000000000008152600401610498906111a0565b60405180910390fd5b5f808381526020019081526020015f206040518060800160405290815f820180546104cb90610e73565b80601f01602080910402602001604051908101604052809291908181526020018280546104f790610e73565b80156105425780601f1061051957610100808354040283529160200191610542565b820191905f5260205f20905b81548152906001019060200180831161052557829003601f168201915b5050505050815260200160018201805461055b90610e73565b80601f016020809104026020016040519081016040528092919081815260200182805461058790610e73565b80156105d25780601f106105a9576101008083540402835291602001916105d2565b820191905f5260205f20905b8154815290600101906020018083116105b557829003601f168201915b50505050508152602001600282015481526020016003820180546105f590610e73565b80601f016020809104026020016040519081016040528092919081815260200182805461062190610e73565b801561066c5780601f106106435761010080835404028352916020019161066c565b820191905f5260205f20905b81548152906001019060200180831161064f57829003601f168201915b5050505050815250509050919050565b5f60015482118061068e575060015482105b8061069a57505f600154145b156106da576040517f08c379a00000000000000000000000000000000000000000000000000000000081526004016106d1906111a0565b60405180910390fd5b5f805f8481526020019081526020015f206002015411156106fe5760019050610702565b5f90505b919050565b60015482118061071657505f82105b8061072257505f600154145b15610762576040517f08c379a0000000000000000000000000000000000000000000000000000000008152600401610759906111a0565b60405180910390fd5b805f808481526020019081526020015f206002015f8282546107849190610e13565b925050819055505050565b5f805f905060015481101561084757826040516020016107af91906111f8565b604051602081830303815290604052805190602001205f808381526020019081526020015f206003016040516020016107e8919061128e565b604051602081830303815290604052805190602001200361080c5780915050610849565b6040517f08c379a000000000000000000000000000000000000000000000000000000000815260040161083e906111a0565b60405180910390fd5b505b919050565b5f60015482118061085e57505f82105b8061086a57505f600154145b156108aa576040517f08c379a00000000000000000000000000000000000000000000000000000000081526004016108a1906111a0565b60405180910390fd5b5f808381526020019081526020015f20600201549050919050565b604051806080016040528060608152602001606081526020015f8152602001606081525090565b5f604051905090565b5f80fd5b5f80fd5b5f80fd5b5f80fd5b5f601f19601f8301169050919050565b7f4e487b71000000000000000000000000000000000000000000000000000000005f52604160045260245ffd5b61094b82610905565b810181811067ffffffffffffffff8211171561096a57610969610915565b5b80604052505050565b5f61097c6108ec565b90506109888282610942565b919050565b5f67ffffffffffffffff8211156109a7576109a6610915565b5b6109b082610905565b9050602081019050919050565b828183375f83830152505050565b5f6109dd6109d88461098d565b610973565b9050828152602081018484840111156109f9576109f8610901565b5b610a048482856109bd565b509392505050565b5f82601f830112610a2057610a1f6108fd565b5b8135610a308482602086016109cb565b91505092915050565b5f819050919050565b610a4b81610a39565b8114610a55575f80fd5b50565b5f81359050610a6681610a42565b92915050565b5f805f8060808587031215610a8457610a836108f5565b5b5f85013567ffffffffffffffff811115610aa157610aa06108f9565b5b610aad87828801610a0c565b945050602085013567ffffffffffffffff811115610ace57610acd6108f9565b5b610ada87828801610a0c565b9350506040610aeb87828801610a58565b925050606085013567ffffffffffffffff811115610b0c57610b0b6108f9565b5b610b1887828801610a0c565b91505092959194509250565b5f60208284031215610b3957610b386108f5565b5b5f610b4684828501610a58565b91505092915050565b5f81519050919050565b5f82825260208201905092915050565b5f5b83811015610b86578082015181840152602081019050610b6b565b5f8484015250505050565b5f610b9b82610b4f565b610ba58185610b59565b9350610bb5818560208601610b69565b610bbe81610905565b840191505092915050565b610bd281610a39565b82525050565b5f6080820190508181035f830152610bf08187610b91565b90508181036020830152610c048186610b91565b9050610c136040830185610bc9565b8181036060830152610c258184610b91565b905095945050505050565b5f602082019050610c435f830184610bc9565b92915050565b5f82825260208201905092915050565b5f610c6382610b4f565b610c6d8185610c49565b9350610c7d818560208601610b69565b610c8681610905565b840191505092915050565b610c9a81610a39565b82525050565b5f608083015f8301518482035f860152610cba8282610c59565b91505060208301518482036020860152610cd48282610c59565b9150506040830151610ce96040860182610c91565b5060608301518482036060860152610d018282610c59565b9150508091505092915050565b5f6020820190508181035f830152610d268184610ca0565b905092915050565b5f8115159050919050565b610d4281610d2e565b82525050565b5f602082019050610d5b5f830184610d39565b92915050565b5f8060408385031215610d7757610d766108f5565b5b5f610d8485828601610a58565b9250506020610d9585828601610a58565b9150509250929050565b5f60208284031215610db457610db36108f5565b5b5f82013567ffffffffffffffff811115610dd157610dd06108f9565b5b610ddd84828501610a0c565b91505092915050565b7f4e487b71000000000000000000000000000000000000000000000000000000005f52601160045260245ffd5b5f610e1d82610a39565b9150610e2883610a39565b9250828201905080821115610e4057610e3f610de6565b5b92915050565b7f4e487b71000000000000000000000000000000000000000000000000000000005f52602260045260245ffd5b5f6002820490506001821680610e8a57607f821691505b602082108103610e9d57610e9c610e46565b5b50919050565b5f819050815f5260205f209050919050565b5f6020601f8301049050919050565b5f82821b905092915050565b5f60088302610eff7fffffffffffffffffffffffffffffffffffffffffffffffffffffffffffffffff82610ec4565b610f098683610ec4565b95508019841693508086168417925050509392505050565b5f819050919050565b5f610f44610f3f610f3a84610a39565b610f21565b610a39565b9050919050565b5f819050919050565b610f5d83610f2a565b610f71610f6982610f4b565b848454610ed0565b825550505050565b5f90565b610f85610f79565b610f90818484610f54565b505050565b5b81811015610fb357610fa85f82610f7d565b600181019050610f96565b5050565b601f821115610ff857610fc981610ea3565b610fd284610eb5565b81016020851015610fe1578190505b610ff5610fed85610eb5565b830182610f95565b50505b505050565b5f82821c905092915050565b5f6110185f1984600802610ffd565b1980831691505092915050565b5f6110308383611009565b9150826002028217905092915050565b61104982610b4f565b67ffffffffffffffff81111561106257611061610915565b5b61106c8254610e73565b611077828285610fb7565b5f60209050601f8311600181146110a8575f8415611096578287015190505b6110a08582611025565b865550611107565b601f1984166110b686610ea3565b5f5b828110156110dd578489015182556001820191506020850194506020810190506110b8565b868310156110fa57848901516110f6601f891682611009565b8355505b6001600288020188555050505b505050505050565b5f61111982610a39565b91507fffffffffffffffffffffffffffffffffffffffffffffffffffffffffffffffff820361114b5761114a610de6565b5b600182019050919050565b7f426f6f6b20646f6573206e6f74206578697374000000000000000000000000005f82015250565b5f61118a601383610b59565b915061119582611156565b602082019050919050565b5f6020820190508181035f8301526111b78161117e565b9050919050565b5f81905092915050565b5f6111d282610b4f565b6111dc81856111be565b93506111ec818560208601610b69565b80840191505092915050565b5f61120382846111c8565b915081905092915050565b5f815461121a81610e73565b61122481866111be565b9450600182165f811461123e576001811461125357611285565b60ff1983168652811515820286019350611285565b61125c85610ea3565b5f5b8381101561127d5781548189015260018201915060208101905061125e565b838801955050505b50505092915050565b5f611299828461120e565b91508190509291505056fea26469706673582212202f541d45606249c4319b214f5a784d80988249283eea6bde9f2bd617b666e1b064736f6c63430008140033",
  "immutableReferences": {},
  "source": "// SPDX-License-Identifier: GPL-3.0\r\npragma solidity >=0.4.16 <0.9.0;\r\n\r\ncontract bookToken {\r\n    struct Book {\r\n        string title;\r\n        string author;\r\n        uint256 copies;\r\n        string isbn;\r\n    }\r\n\r\n    mapping(uint256 => Book) public books;\r\n    // This gives birth to the idea behind a unique bookId for each book which is essentially the order in which each book was registered in the library's systems.\r\n    uint256 public totalBooks;\r\n\r\n    function addBook(\r\n        string memory _title,\r\n        string memory _author,\r\n        uint256 _copies,\r\n        string memory _isbn\r\n    ) public {\r\n        books[totalBooks + 1] = Book(_title, _author, _copies, _isbn);\r\n        totalBooks++;\r\n    }\r\n\r\n    function getBookDetails(uint256 _bookId) public view returns (Book memory) {\r\n        if (_bookId > totalBooks || _bookId < 0 || totalBooks == 0) {\r\n            revert(\"Book does not exist\");\r\n        } else {\r\n            return books[_bookId];\r\n        }\r\n\r\n        // Testing has led me to find out that this function returns not a struct but a string array of the struct's values.\r\n        // To optimize for usage, we can convert the returned array's required values into string and then parse it into whatever type we want.\r\n        // This is done in the bookToken.test.js file\r\n        // I will leave this here for reference purposes.\r\n    }\r\n\r\n    function getBookCopies(uint256 _bookId) public view returns (uint256) {\r\n        if (_bookId > totalBooks || _bookId < 0 || totalBooks == 0) {\r\n            revert(\"Book does not exist\");\r\n        } else {\r\n            return books[_bookId].copies;\r\n        }\r\n    }\r\n\r\n    function getBookId(string memory _isbn) public view returns (uint256) {\r\n        for (uint256 i = 0; i < totalBooks; i++) {\r\n            if (\r\n                keccak256(abi.encodePacked(books[i].isbn)) ==\r\n                keccak256(abi.encodePacked(_isbn))\r\n            ) {\r\n                return i;\r\n            } else {\r\n                revert(\"Book does not exist\");\r\n            }\r\n        }\r\n    }\r\n\r\n    function addCopies(uint256 _bookId, uint256 _copies) public {\r\n        if (_bookId > totalBooks || _bookId < 0 || totalBooks == 0) {\r\n            revert(\"Book does not exist\");\r\n        } else {\r\n            books[_bookId].copies += _copies;\r\n        }\r\n    }\r\n\r\n    function isBookAvailable(uint256 _bookId) public view returns (bool) {\r\n        if (_bookId > totalBooks || _bookId < totalBooks || totalBooks == 0) {\r\n            revert(\"Book does not exist\");\r\n        } else {\r\n            if (books[_bookId].copies > 0) {\r\n                return true;\r\n            } else {\r\n                return false;\r\n            }\r\n        }\r\n    }\r\n}\r\n",
  "sourcePath": "C:\\Users\\DELL\\Desktop\\Side Projects\\Librarium\\contracts\\bookToken.sol",
  "compiler": {
    "name": "solc",
    "version": "0.8.20+commit.a1b79de6.Emscripten.clang"
  },
  "schemaVersion": "3.4.14",
  "updatedAt": "2023-05-24T07:51:40.051Z",
  "devdoc": {
    "kind": "dev",
    "methods": {},
    "version": 1
  },
  "userdoc": {
    "kind": "user",
    "methods": {},
    "version": 1
  }
}