{
  "contractName": "bookToken",
  "abi": [
    {
      "anonymous": false,
      "inputs": [
        {
          "indexed": true,
          "internalType": "uint256",
          "name": "_bookId",
          "type": "uint256"
        },
        {
          "indexed": false,
          "internalType": "string",
          "name": "_title",
          "type": "string"
        },
        {
          "indexed": false,
          "internalType": "string",
          "name": "_author",
          "type": "string"
        },
        {
          "indexed": false,
          "internalType": "uint256",
          "name": "_copies",
          "type": "uint256"
        },
        {
          "indexed": false,
          "internalType": "string",
          "name": "_isbn",
          "type": "string"
        }
      ],
      "name": "bookAdded",
      "type": "event"
    },
    {
      "inputs": [
        {
          "internalType": "uint256",
          "name": "",
          "type": "uint256"
        }
      ],
      "name": "books",
      "outputs": [
        {
          "internalType": "string",
          "name": "title",
          "type": "string"
        },
        {
          "internalType": "string",
          "name": "author",
          "type": "string"
        },
        {
          "internalType": "uint256",
          "name": "copies",
          "type": "uint256"
        },
        {
          "internalType": "string",
          "name": "isbn",
          "type": "string"
        }
      ],
      "stateMutability": "view",
      "type": "function"
    },
    {
      "inputs": [],
      "name": "totalBooks",
      "outputs": [
        {
          "internalType": "uint256",
          "name": "",
          "type": "uint256"
        }
      ],
      "stateMutability": "view",
      "type": "function"
    },
    {
      "inputs": [
        {
          "internalType": "address",
          "name": "",
          "type": "address"
        },
        {
          "internalType": "uint256",
          "name": "",
          "type": "uint256"
        }
      ],
      "name": "userBooks",
      "outputs": [
        {
          "internalType": "uint256",
          "name": "",
          "type": "uint256"
        }
      ],
      "stateMutability": "view",
      "type": "function"
    },
    {
      "inputs": [
        {
          "internalType": "string",
          "name": "_title",
          "type": "string"
        },
        {
          "internalType": "string",
          "name": "_author",
          "type": "string"
        },
        {
          "internalType": "uint256",
          "name": "_copies",
          "type": "uint256"
        },
        {
          "internalType": "string",
          "name": "_isbn",
          "type": "string"
        }
      ],
      "name": "addBook",
      "outputs": [],
      "stateMutability": "nonpayable",
      "type": "function"
    },
    {
      "inputs": [
        {
          "internalType": "uint256",
          "name": "_bookId",
          "type": "uint256"
        }
      ],
      "name": "getBookDetails",
      "outputs": [
        {
          "components": [
            {
              "internalType": "string",
              "name": "title",
              "type": "string"
            },
            {
              "internalType": "string",
              "name": "author",
              "type": "string"
            },
            {
              "internalType": "uint256",
              "name": "copies",
              "type": "uint256"
            },
            {
              "internalType": "string",
              "name": "isbn",
              "type": "string"
            }
          ],
          "internalType": "struct bookToken.Book",
          "name": "",
          "type": "tuple"
        }
      ],
      "stateMutability": "view",
      "type": "function"
    },
    {
      "inputs": [
        {
          "internalType": "uint256",
          "name": "_bookId",
          "type": "uint256"
        }
      ],
      "name": "getBookCopies",
      "outputs": [
        {
          "internalType": "uint256",
          "name": "",
          "type": "uint256"
        }
      ],
      "stateMutability": "view",
      "type": "function"
    },
    {
      "inputs": [
        {
          "internalType": "string",
          "name": "_isbn",
          "type": "string"
        }
      ],
      "name": "getBookId",
      "outputs": [
        {
          "internalType": "uint256",
          "name": "",
          "type": "uint256"
        }
      ],
      "stateMutability": "view",
      "type": "function"
    },
    {
      "inputs": [
        {
          "internalType": "uint256",
          "name": "_bookId",
          "type": "uint256"
        },
        {
          "internalType": "uint256",
          "name": "_copies",
          "type": "uint256"
        }
      ],
      "name": "addCopies",
      "outputs": [],
      "stateMutability": "nonpayable",
      "type": "function"
    },
    {
      "inputs": [
        {
          "internalType": "uint256",
          "name": "_bookId",
          "type": "uint256"
        }
      ],
      "name": "isBookAvailable",
      "outputs": [
        {
          "internalType": "bool",
          "name": "",
          "type": "bool"
        }
      ],
      "stateMutability": "view",
      "type": "function"
    }
  ],
  "bytecode": "0x608060405234801561000f575f80fd5b506113c38061001d5f395ff3fe608060405234801561000f575f80fd5b5060043610610091575f3560e01c8063a42a23d211610064578063a42a23d214610132578063c0d0198914610162578063e9189aa51461017e578063edc07913146101ae578063ffc1c2e6146101de57610091565b8063598e14551461009557806368744046146100b15780636ec4f4bf146100e457806374ff481814610102575b5f80fd5b6100af60048036038101906100aa9190610ae2565b61020e565b005b6100cb60048036038101906100c69190610b9a565b6102f6565b6040516100db9493929190610c4e565b60405180910390f35b6100ec6104b3565b6040516100f99190610ca6565b60405180910390f35b61011c60048036038101906101179190610b9a565b6104b9565b6040516101299190610d84565b60405180910390f35b61014c60048036038101906101479190610b9a565b6106f7565b6040516101599190610dbe565b60405180910390f35b61017c60048036038101906101779190610dd7565b610776565b005b61019860048036038101906101939190610e6f565b6107fe565b6040516101a59190610ca6565b60405180910390f35b6101c860048036038101906101c39190610ead565b610829565b6040516101d59190610ca6565b60405180910390f35b6101f860048036038101906101f39190610b9a565b6108c4565b6040516102059190610ca6565b60405180910390f35b6040518060800160405280858152602001848152602001838152602001828152505f806001805461023f9190610f21565b81526020019081526020015f205f820151815f01908161025f919061114e565b506020820151816001019081610275919061114e565b50604082015181600201556060820151816003019081610295919061114e565b5090505060015f8154809291906102ab9061121d565b91905055506001547ffdb5003c5673529a025856519bf3b990c87366e1b12f22d82eab9040e7af3905858585856040516102e89493929190610c4e565b60405180910390a250505050565b5f602052805f5260405f205f91509050805f01805461031490610f81565b80601f016020809104026020016040519081016040528092919081815260200182805461034090610f81565b801561038b5780601f106103625761010080835404028352916020019161038b565b820191905f5260205f20905b81548152906001019060200180831161036e57829003601f168201915b5050505050908060010180546103a090610f81565b80601f01602080910402602001604051908101604052809291908181526020018280546103cc90610f81565b80156104175780601f106103ee57610100808354040283529160200191610417565b820191905f5260205f20905b8154815290600101906020018083116103fa57829003601f168201915b50505050509080600201549080600301805461043290610f81565b80601f016020809104026020016040519081016040528092919081815260200182805461045e90610f81565b80156104a95780601f10610480576101008083540402835291602001916104a9565b820191905f5260205f20905b81548152906001019060200180831161048c57829003601f168201915b5050505050905084565b60015481565b6104c161093b565b6001548211806104d057505f82105b806104dc57505f600154145b1561051c576040517f08c379a0000000000000000000000000000000000000000000000000000000008152600401610513906112ae565b60405180910390fd5b5f808381526020019081526020015f206040518060800160405290815f8201805461054690610f81565b80601f016020809104026020016040519081016040528092919081815260200182805461057290610f81565b80156105bd5780601f10610594576101008083540402835291602001916105bd565b820191905f5260205f20905b8154815290600101906020018083116105a057829003601f168201915b505050505081526020016001820180546105d690610f81565b80601f016020809104026020016040519081016040528092919081815260200182805461060290610f81565b801561064d5780601f106106245761010080835404028352916020019161064d565b820191905f5260205f20905b81548152906001019060200180831161063057829003601f168201915b505050505081526020016002820154815260200160038201805461067090610f81565b80601f016020809104026020016040519081016040528092919081815260200182805461069c90610f81565b80156106e75780601f106106be576101008083540402835291602001916106e7565b820191905f5260205f20905b8154815290600101906020018083116106ca57829003601f168201915b5050505050815250509050919050565b5f60015482118061070957505f600154145b15610749576040517f08c379a0000000000000000000000000000000000000000000000000000000008152600401610740906112ae565b60405180910390fd5b5f805f8481526020019081526020015f2060020154111561076d5760019050610771565b5f90505b919050565b60015482118061078557505f82105b8061079157505f600154145b156107d1576040517f08c379a00000000000000000000000000000000000000000000000000000000081526004016107c8906112ae565b60405180910390fd5b805f808481526020019081526020015f206002015f8282546107f39190610f21565b925050819055505050565b6002602052815f5260405f208181548110610817575f80fd5b905f5260205f20015f91509150505481565b5f80600190505b60015481116108ba578260405160200161084a91906112cc565b604051602081830303815290604052805190602001205f808381526020019081526020015f20600301604051602001610883919061136d565b60405160208183030381529060405280519060200120036108a757809150506108bf565b80806108b29061121d565b915050610830565b505f90505b919050565b5f6001548211806108d457505f82105b806108e057505f600154145b15610920576040517f08c379a0000000000000000000000000000000000000000000000000000000008152600401610917906112ae565b60405180910390fd5b5f808381526020019081526020015f20600201549050919050565b604051806080016040528060608152602001606081526020015f8152602001606081525090565b5f604051905090565b5f80fd5b5f80fd5b5f80fd5b5f80fd5b5f601f19601f8301169050919050565b7f4e487b71000000000000000000000000000000000000000000000000000000005f52604160045260245ffd5b6109c18261097b565b810181811067ffffffffffffffff821117156109e0576109df61098b565b5b80604052505050565b5f6109f2610962565b90506109fe82826109b8565b919050565b5f67ffffffffffffffff821115610a1d57610a1c61098b565b5b610a268261097b565b9050602081019050919050565b828183375f83830152505050565b5f610a53610a4e84610a03565b6109e9565b905082815260208101848484011115610a6f57610a6e610977565b5b610a7a848285610a33565b509392505050565b5f82601f830112610a9657610a95610973565b5b8135610aa6848260208601610a41565b91505092915050565b5f819050919050565b610ac181610aaf565b8114610acb575f80fd5b50565b5f81359050610adc81610ab8565b92915050565b5f805f8060808587031215610afa57610af961096b565b5b5f85013567ffffffffffffffff811115610b1757610b1661096f565b5b610b2387828801610a82565b945050602085013567ffffffffffffffff811115610b4457610b4361096f565b5b610b5087828801610a82565b9350506040610b6187828801610ace565b925050606085013567ffffffffffffffff811115610b8257610b8161096f565b5b610b8e87828801610a82565b91505092959194509250565b5f60208284031215610baf57610bae61096b565b5b5f610bbc84828501610ace565b91505092915050565b5f81519050919050565b5f82825260208201905092915050565b5f5b83811015610bfc578082015181840152602081019050610be1565b5f8484015250505050565b5f610c1182610bc5565b610c1b8185610bcf565b9350610c2b818560208601610bdf565b610c348161097b565b840191505092915050565b610c4881610aaf565b82525050565b5f6080820190508181035f830152610c668187610c07565b90508181036020830152610c7a8186610c07565b9050610c896040830185610c3f565b8181036060830152610c9b8184610c07565b905095945050505050565b5f602082019050610cb95f830184610c3f565b92915050565b5f82825260208201905092915050565b5f610cd982610bc5565b610ce38185610cbf565b9350610cf3818560208601610bdf565b610cfc8161097b565b840191505092915050565b610d1081610aaf565b82525050565b5f608083015f8301518482035f860152610d308282610ccf565b91505060208301518482036020860152610d4a8282610ccf565b9150506040830151610d5f6040860182610d07565b5060608301518482036060860152610d778282610ccf565b9150508091505092915050565b5f6020820190508181035f830152610d9c8184610d16565b905092915050565b5f8115159050919050565b610db881610da4565b82525050565b5f602082019050610dd15f830184610daf565b92915050565b5f8060408385031215610ded57610dec61096b565b5b5f610dfa85828601610ace565b9250506020610e0b85828601610ace565b9150509250929050565b5f73ffffffffffffffffffffffffffffffffffffffff82169050919050565b5f610e3e82610e15565b9050919050565b610e4e81610e34565b8114610e58575f80fd5b50565b5f81359050610e6981610e45565b92915050565b5f8060408385031215610e8557610e8461096b565b5b5f610e9285828601610e5b565b9250506020610ea385828601610ace565b9150509250929050565b5f60208284031215610ec257610ec161096b565b5b5f82013567ffffffffffffffff811115610edf57610ede61096f565b5b610eeb84828501610a82565b91505092915050565b7f4e487b71000000000000000000000000000000000000000000000000000000005f52601160045260245ffd5b5f610f2b82610aaf565b9150610f3683610aaf565b9250828201905080821115610f4e57610f4d610ef4565b5b92915050565b7f4e487b71000000000000000000000000000000000000000000000000000000005f52602260045260245ffd5b5f6002820490506001821680610f9857607f821691505b602082108103610fab57610faa610f54565b5b50919050565b5f819050815f5260205f209050919050565b5f6020601f8301049050919050565b5f82821b905092915050565b5f6008830261100d7fffffffffffffffffffffffffffffffffffffffffffffffffffffffffffffffff82610fd2565b6110178683610fd2565b95508019841693508086168417925050509392505050565b5f819050919050565b5f61105261104d61104884610aaf565b61102f565b610aaf565b9050919050565b5f819050919050565b61106b83611038565b61107f61107782611059565b848454610fde565b825550505050565b5f90565b611093611087565b61109e818484611062565b505050565b5b818110156110c1576110b65f8261108b565b6001810190506110a4565b5050565b601f821115611106576110d781610fb1565b6110e084610fc3565b810160208510156110ef578190505b6111036110fb85610fc3565b8301826110a3565b50505b505050565b5f82821c905092915050565b5f6111265f198460080261110b565b1980831691505092915050565b5f61113e8383611117565b9150826002028217905092915050565b61115782610bc5565b67ffffffffffffffff8111156111705761116f61098b565b5b61117a8254610f81565b6111858282856110c5565b5f60209050601f8311600181146111b6575f84156111a4578287015190505b6111ae8582611133565b865550611215565b601f1984166111c486610fb1565b5f5b828110156111eb578489015182556001820191506020850194506020810190506111c6565b868310156112085784890151611204601f891682611117565b8355505b6001600288020188555050505b505050505050565b5f61122782610aaf565b91507fffffffffffffffffffffffffffffffffffffffffffffffffffffffffffffffff820361125957611258610ef4565b5b600182019050919050565b7f426f6f6b20646f6573206e6f74206578697374000000000000000000000000005f82015250565b5f611298601383610bcf565b91506112a382611264565b602082019050919050565b5f6020820190508181035f8301526112c58161128c565b9050919050565b5f6020820190508181035f8301526112e48184610c07565b905092915050565b5f81546112f881610f81565b6113028186610bcf565b9450600182165f811461131c576001811461133257611364565b60ff198316865281151560200286019350611364565b61133b85610fb1565b5f5b8381101561135c5781548189015260018201915060208101905061133d565b808801955050505b50505092915050565b5f6020820190508181035f83015261138581846112ec565b90509291505056fea26469706673582212205ed1fa4238bcfbf9bdb91697f2ebc2194a985375cb632006f9ffef1e2ab9655e64736f6c63430008140033",
  "immutableReferences": {},
  "source": "// SPDX-License-Identifier: GPL-3.0\r\npragma solidity >=0.4.16 <0.9.0;\r\nimport \"./user.sol\";\r\n\r\ncontract bookToken {\r\n    struct Book {\r\n        string title;\r\n        string author;\r\n        uint256 copies;\r\n        string isbn;\r\n    }\r\n\r\n    mapping(uint256 => Book) public books;\r\n    // This gives birth to the idea behind a unique bookId for each book which is essentially the order in which each book was registered in the library's systems.\r\n    uint256 public totalBooks;\r\n\r\n    mapping(address => uint256[]) public userBooks;\r\n    // A seperate database of books for every user. This is to make it easier to keep track of which books are issued to which user.\r\n\r\n    event bookAdded(\r\n        uint256 indexed _bookId,\r\n        string _title,\r\n        string _author,\r\n        uint256 _copies,\r\n        string _isbn\r\n    );\r\n\r\n    function addBook(\r\n        string memory _title,\r\n        string memory _author,\r\n        uint256 _copies,\r\n        string memory _isbn\r\n    ) public {\r\n        books[totalBooks + 1] = Book(_title, _author, _copies, _isbn);\r\n        totalBooks++;\r\n        emit bookAdded(totalBooks, _title, _author, _copies, _isbn);\r\n    }\r\n\r\n    function getBookDetails(uint256 _bookId) public view returns (Book memory) {\r\n        if (_bookId > totalBooks || _bookId < 0 || totalBooks == 0) {\r\n            revert(\"Book does not exist\");\r\n        } else {\r\n            return books[_bookId];\r\n        }\r\n\r\n        // Testing has led me to find out that this function returns not a struct but a string array of the struct's values.\r\n        // To optimize for usage, we can convert the returned array's required values into string and then parse it into whatever type we want.\r\n        // This is done in the bookToken.test.js file\r\n        // I will leave this here for reference purposes.\r\n    }\r\n\r\n    function getBookCopies(uint256 _bookId) public view returns (uint256) {\r\n        if (_bookId > totalBooks || _bookId < 0 || totalBooks == 0) {\r\n            revert(\"Book does not exist\");\r\n        } else {\r\n            return books[_bookId].copies;\r\n        }\r\n    }\r\n\r\n    function getBookId(string memory _isbn) public view returns (uint256) {\r\n        for (uint256 id = 1; id <= totalBooks; id++) {\r\n            if (\r\n                keccak256(abi.encode(books[id].isbn)) ==\r\n                keccak256(abi.encode(_isbn))\r\n            ) {\r\n                return id;\r\n            }\r\n        }\r\n\r\n        return 0;\r\n        //Something is wrong with this function. It's not actually comparing the isbn with the isbn of the book for some reason.\r\n        // That's because\r\n    }\r\n\r\n    function addCopies(uint256 _bookId, uint256 _copies) public {\r\n        if (_bookId > totalBooks || _bookId < 0 || totalBooks == 0) {\r\n            revert(\"Book does not exist\");\r\n        } else {\r\n            books[_bookId].copies += _copies;\r\n        }\r\n    }\r\n\r\n    function isBookAvailable(uint256 _bookId) public view returns (bool) {\r\n        if (_bookId > totalBooks || totalBooks == 0) {\r\n            // removed the condition _bookId < 0 because it's redundant\r\n            revert(\"Book does not exist\");\r\n        } else {\r\n            if (books[_bookId].copies > 0) {\r\n                return true;\r\n            } else {\r\n                return false;\r\n            }\r\n        }\r\n    }\r\n}\r\n",
  "sourcePath": "C:\\Users\\DELL\\Desktop\\Side Projects\\Librarium\\contracts\\bookToken.sol",
  "compiler": {
    "name": "solc",
    "version": "0.8.20+commit.a1b79de6.Emscripten.clang"
  },
  "schemaVersion": "3.4.14",
  "updatedAt": "2023-06-04T12:02:39.720Z",
  "devdoc": {
    "kind": "dev",
    "methods": {},
    "version": 1
  },
  "userdoc": {
    "kind": "user",
    "methods": {},
    "version": 1
  }
}