{
  "contractName": "bookToken",
  "abi": [
    {
      "inputs": [
        {
          "internalType": "uint256",
          "name": "",
          "type": "uint256"
        }
      ],
      "name": "books",
      "outputs": [
        {
          "internalType": "string",
          "name": "title",
          "type": "string"
        },
        {
          "internalType": "string",
          "name": "author",
          "type": "string"
        },
        {
          "internalType": "uint256",
          "name": "copies",
          "type": "uint256"
        },
        {
          "internalType": "string",
          "name": "isbn",
          "type": "string"
        }
      ],
      "stateMutability": "view",
      "type": "function"
    },
    {
      "inputs": [],
      "name": "totalBooks",
      "outputs": [
        {
          "internalType": "uint256",
          "name": "",
          "type": "uint256"
        }
      ],
      "stateMutability": "view",
      "type": "function"
    },
    {
      "inputs": [
        {
          "internalType": "string",
          "name": "_title",
          "type": "string"
        },
        {
          "internalType": "string",
          "name": "_author",
          "type": "string"
        },
        {
          "internalType": "uint256",
          "name": "_copies",
          "type": "uint256"
        },
        {
          "internalType": "string",
          "name": "_isbn",
          "type": "string"
        }
      ],
      "name": "addBook",
      "outputs": [],
      "stateMutability": "nonpayable",
      "type": "function"
    },
    {
      "inputs": [
        {
          "internalType": "uint256",
          "name": "_bookId",
          "type": "uint256"
        }
      ],
      "name": "getBookDetails",
      "outputs": [
        {
          "components": [
            {
              "internalType": "string",
              "name": "title",
              "type": "string"
            },
            {
              "internalType": "string",
              "name": "author",
              "type": "string"
            },
            {
              "internalType": "uint256",
              "name": "copies",
              "type": "uint256"
            },
            {
              "internalType": "string",
              "name": "isbn",
              "type": "string"
            }
          ],
          "internalType": "struct bookToken.Book",
          "name": "",
          "type": "tuple"
        }
      ],
      "stateMutability": "view",
      "type": "function"
    },
    {
      "inputs": [
        {
          "internalType": "uint256",
          "name": "_bookId",
          "type": "uint256"
        }
      ],
      "name": "getBookCopies",
      "outputs": [
        {
          "internalType": "uint256",
          "name": "",
          "type": "uint256"
        }
      ],
      "stateMutability": "view",
      "type": "function"
    },
    {
      "inputs": [
        {
          "internalType": "uint256",
          "name": "_bookId",
          "type": "uint256"
        }
      ],
      "name": "isBookAvailable",
      "outputs": [
        {
          "internalType": "bool",
          "name": "",
          "type": "bool"
        }
      ],
      "stateMutability": "view",
      "type": "function"
    }
  ],
  "bytecode": "0x608060405234801561000f575f80fd5b50610fb68061001d5f395ff3fe608060405234801561000f575f80fd5b5060043610610060575f3560e01c8063598e14551461006457806368744046146100805780636ec4f4bf146100b357806374ff4818146100d1578063a42a23d214610101578063ffc1c2e614610131575b5f80fd5b61007e600480360381019061007991906108b3565b610161565b005b61009a6004803603810190610095919061096b565b610209565b6040516100aa9493929190610a1f565b60405180910390f35b6100bb6103c6565b6040516100c89190610a77565b60405180910390f35b6100eb60048036038101906100e6919061096b565b6103cc565b6040516100f89190610b55565b60405180910390f35b61011b6004803603810190610116919061096b565b61060a565b6040516101289190610b8f565b60405180910390f35b61014b6004803603810190610146919061096b565b610695565b6040516101589190610a77565b60405180910390f35b6040518060800160405280858152602001848152602001838152602001828152505f80600180546101929190610bd5565b81526020019081526020015f205f820151815f0190816101b29190610e02565b5060208201518160010190816101c89190610e02565b506040820151816002015560608201518160030190816101e89190610e02565b5090505060015f8154809291906101fe90610ed1565b919050555050505050565b5f602052805f5260405f205f91509050805f01805461022790610c35565b80601f016020809104026020016040519081016040528092919081815260200182805461025390610c35565b801561029e5780601f106102755761010080835404028352916020019161029e565b820191905f5260205f20905b81548152906001019060200180831161028157829003601f168201915b5050505050908060010180546102b390610c35565b80601f01602080910402602001604051908101604052809291908181526020018280546102df90610c35565b801561032a5780601f106103015761010080835404028352916020019161032a565b820191905f5260205f20905b81548152906001019060200180831161030d57829003601f168201915b50505050509080600201549080600301805461034590610c35565b80601f016020809104026020016040519081016040528092919081815260200182805461037190610c35565b80156103bc5780601f10610393576101008083540402835291602001916103bc565b820191905f5260205f20905b81548152906001019060200180831161039f57829003601f168201915b5050505050905084565b60015481565b6103d461070c565b6001548211806103e357505f82105b806103ef57505f600154145b1561042f576040517f08c379a000000000000000000000000000000000000000000000000000000000815260040161042690610f62565b60405180910390fd5b5f808381526020019081526020015f206040518060800160405290815f8201805461045990610c35565b80601f016020809104026020016040519081016040528092919081815260200182805461048590610c35565b80156104d05780601f106104a7576101008083540402835291602001916104d0565b820191905f5260205f20905b8154815290600101906020018083116104b357829003601f168201915b505050505081526020016001820180546104e990610c35565b80601f016020809104026020016040519081016040528092919081815260200182805461051590610c35565b80156105605780601f1061053757610100808354040283529160200191610560565b820191905f5260205f20905b81548152906001019060200180831161054357829003601f168201915b505050505081526020016002820154815260200160038201805461058390610c35565b80601f01602080910402602001604051908101604052809291908181526020018280546105af90610c35565b80156105fa5780601f106105d1576101008083540402835291602001916105fa565b820191905f5260205f20905b8154815290600101906020018083116105dd57829003601f168201915b5050505050815250509050919050565b5f60015482118061061c575060015482105b8061062857505f600154145b15610668576040517f08c379a000000000000000000000000000000000000000000000000000000000815260040161065f90610f62565b60405180910390fd5b5f805f8481526020019081526020015f2060020154111561068c5760019050610690565b5f90505b919050565b5f6001548211806106a557505f82105b806106b157505f600154145b156106f1576040517f08c379a00000000000000000000000000000000000000000000000000000000081526004016106e890610f62565b60405180910390fd5b5f808381526020019081526020015f20600201549050919050565b604051806080016040528060608152602001606081526020015f8152602001606081525090565b5f604051905090565b5f80fd5b5f80fd5b5f80fd5b5f80fd5b5f601f19601f8301169050919050565b7f4e487b71000000000000000000000000000000000000000000000000000000005f52604160045260245ffd5b6107928261074c565b810181811067ffffffffffffffff821117156107b1576107b061075c565b5b80604052505050565b5f6107c3610733565b90506107cf8282610789565b919050565b5f67ffffffffffffffff8211156107ee576107ed61075c565b5b6107f78261074c565b9050602081019050919050565b828183375f83830152505050565b5f61082461081f846107d4565b6107ba565b9050828152602081018484840111156108405761083f610748565b5b61084b848285610804565b509392505050565b5f82601f83011261086757610866610744565b5b8135610877848260208601610812565b91505092915050565b5f819050919050565b61089281610880565b811461089c575f80fd5b50565b5f813590506108ad81610889565b92915050565b5f805f80608085870312156108cb576108ca61073c565b5b5f85013567ffffffffffffffff8111156108e8576108e7610740565b5b6108f487828801610853565b945050602085013567ffffffffffffffff81111561091557610914610740565b5b61092187828801610853565b93505060406109328782880161089f565b925050606085013567ffffffffffffffff81111561095357610952610740565b5b61095f87828801610853565b91505092959194509250565b5f602082840312156109805761097f61073c565b5b5f61098d8482850161089f565b91505092915050565b5f81519050919050565b5f82825260208201905092915050565b5f5b838110156109cd5780820151818401526020810190506109b2565b5f8484015250505050565b5f6109e282610996565b6109ec81856109a0565b93506109fc8185602086016109b0565b610a058161074c565b840191505092915050565b610a1981610880565b82525050565b5f6080820190508181035f830152610a3781876109d8565b90508181036020830152610a4b81866109d8565b9050610a5a6040830185610a10565b8181036060830152610a6c81846109d8565b905095945050505050565b5f602082019050610a8a5f830184610a10565b92915050565b5f82825260208201905092915050565b5f610aaa82610996565b610ab48185610a90565b9350610ac48185602086016109b0565b610acd8161074c565b840191505092915050565b610ae181610880565b82525050565b5f608083015f8301518482035f860152610b018282610aa0565b91505060208301518482036020860152610b1b8282610aa0565b9150506040830151610b306040860182610ad8565b5060608301518482036060860152610b488282610aa0565b9150508091505092915050565b5f6020820190508181035f830152610b6d8184610ae7565b905092915050565b5f8115159050919050565b610b8981610b75565b82525050565b5f602082019050610ba25f830184610b80565b92915050565b7f4e487b71000000000000000000000000000000000000000000000000000000005f52601160045260245ffd5b5f610bdf82610880565b9150610bea83610880565b9250828201905080821115610c0257610c01610ba8565b5b92915050565b7f4e487b71000000000000000000000000000000000000000000000000000000005f52602260045260245ffd5b5f6002820490506001821680610c4c57607f821691505b602082108103610c5f57610c5e610c08565b5b50919050565b5f819050815f5260205f209050919050565b5f6020601f8301049050919050565b5f82821b905092915050565b5f60088302610cc17fffffffffffffffffffffffffffffffffffffffffffffffffffffffffffffffff82610c86565b610ccb8683610c86565b95508019841693508086168417925050509392505050565b5f819050919050565b5f610d06610d01610cfc84610880565b610ce3565b610880565b9050919050565b5f819050919050565b610d1f83610cec565b610d33610d2b82610d0d565b848454610c92565b825550505050565b5f90565b610d47610d3b565b610d52818484610d16565b505050565b5b81811015610d7557610d6a5f82610d3f565b600181019050610d58565b5050565b601f821115610dba57610d8b81610c65565b610d9484610c77565b81016020851015610da3578190505b610db7610daf85610c77565b830182610d57565b50505b505050565b5f82821c905092915050565b5f610dda5f1984600802610dbf565b1980831691505092915050565b5f610df28383610dcb565b9150826002028217905092915050565b610e0b82610996565b67ffffffffffffffff811115610e2457610e2361075c565b5b610e2e8254610c35565b610e39828285610d79565b5f60209050601f831160018114610e6a575f8415610e58578287015190505b610e628582610de7565b865550610ec9565b601f198416610e7886610c65565b5f5b82811015610e9f57848901518255600182019150602085019450602081019050610e7a565b86831015610ebc5784890151610eb8601f891682610dcb565b8355505b6001600288020188555050505b505050505050565b5f610edb82610880565b91507fffffffffffffffffffffffffffffffffffffffffffffffffffffffffffffffff8203610f0d57610f0c610ba8565b5b600182019050919050565b7f426f6f6b20646f6573206e6f74206578697374000000000000000000000000005f82015250565b5f610f4c6013836109a0565b9150610f5782610f18565b602082019050919050565b5f6020820190508181035f830152610f7981610f40565b905091905056fea26469706673582212202d6c039b5136aa134b778bfcb433534af60d25eb13c43bff84e51190e9e8121d64736f6c63430008140033",
  "immutableReferences": {},
  "source": "// SPDX-License-Identifier: GPL-3.0\r\npragma solidity >=0.4.16 <0.9.0;\r\n\r\ncontract bookToken {\r\n    struct Book {\r\n        string title;\r\n        string author;\r\n        uint256 copies;\r\n        string isbn;\r\n    }\r\n\r\n    mapping(uint256 => Book) public books;\r\n    // This gives birth to the idea behind a unique bookId for each book which is essentially the order in which each book was registered in the library's systems.\r\n    uint256 public totalBooks;\r\n\r\n    function addBook(\r\n        string memory _title,\r\n        string memory _author,\r\n        uint256 _copies,\r\n        string memory _isbn\r\n    ) public {\r\n        books[totalBooks + 1] = Book(_title, _author, _copies, _isbn);\r\n        totalBooks++;\r\n    }\r\n\r\n    function getBookDetails(uint256 _bookId) public view returns (Book memory) {\r\n        if (_bookId > totalBooks || _bookId < 0 || totalBooks == 0) {\r\n            revert(\"Book does not exist\");\r\n        } else {\r\n            return books[_bookId];\r\n        }\r\n    }\r\n\r\n    function getBookCopies(uint256 _bookId) public view returns (uint256) {\r\n        if (_bookId > totalBooks || _bookId < 0 || totalBooks == 0) {\r\n            revert(\"Book does not exist\");\r\n        } else {\r\n            return books[_bookId].copies;\r\n        }\r\n    }\r\n\r\n    function isBookAvailable(uint256 _bookId) public view returns (bool) {\r\n        if (_bookId > totalBooks || _bookId < totalBooks || totalBooks == 0) {\r\n            revert(\"Book does not exist\");\r\n        } else {\r\n            if (books[_bookId].copies > 0) {\r\n                return true;\r\n            } else {\r\n                return false;\r\n            }\r\n        }\r\n    }\r\n}\r\n",
  "sourcePath": "C:\\Users\\DELL\\Desktop\\Side Projects\\Librarium\\contracts\\bookToken.sol",
  "compiler": {
    "name": "solc",
    "version": "0.8.20+commit.a1b79de6.Emscripten.clang"
  },
  "schemaVersion": "3.4.14",
  "updatedAt": "2023-05-21T08:26:57.413Z",
  "devdoc": {
    "kind": "dev",
    "methods": {},
    "version": 1
  },
  "userdoc": {
    "kind": "user",
    "methods": {},
    "version": 1
  }
}