{
  "contractName": "bookToken",
  "abi": [
    {
      "anonymous": false,
      "inputs": [
        {
          "indexed": true,
          "internalType": "uint256",
          "name": "_bookId",
          "type": "uint256"
        },
        {
          "indexed": false,
          "internalType": "string",
          "name": "_title",
          "type": "string"
        },
        {
          "indexed": false,
          "internalType": "string",
          "name": "_author",
          "type": "string"
        },
        {
          "indexed": false,
          "internalType": "uint256",
          "name": "_copies",
          "type": "uint256"
        },
        {
          "indexed": false,
          "internalType": "string",
          "name": "_isbn",
          "type": "string"
        }
      ],
      "name": "bookAdded",
      "type": "event"
    },
    {
      "inputs": [
        {
          "internalType": "uint256",
          "name": "",
          "type": "uint256"
        }
      ],
      "name": "books",
      "outputs": [
        {
          "internalType": "string",
          "name": "title",
          "type": "string"
        },
        {
          "internalType": "string",
          "name": "author",
          "type": "string"
        },
        {
          "internalType": "uint256",
          "name": "copies",
          "type": "uint256"
        },
        {
          "internalType": "string",
          "name": "isbn",
          "type": "string"
        }
      ],
      "stateMutability": "view",
      "type": "function"
    },
    {
      "inputs": [],
      "name": "totalBooks",
      "outputs": [
        {
          "internalType": "uint256",
          "name": "",
          "type": "uint256"
        }
      ],
      "stateMutability": "view",
      "type": "function"
    },
    {
      "inputs": [
        {
          "internalType": "address",
          "name": "",
          "type": "address"
        },
        {
          "internalType": "uint256",
          "name": "",
          "type": "uint256"
        }
      ],
      "name": "userBooks",
      "outputs": [
        {
          "internalType": "uint256",
          "name": "",
          "type": "uint256"
        }
      ],
      "stateMutability": "view",
      "type": "function"
    },
    {
      "inputs": [
        {
          "internalType": "string",
          "name": "_title",
          "type": "string"
        },
        {
          "internalType": "string",
          "name": "_author",
          "type": "string"
        },
        {
          "internalType": "uint256",
          "name": "_copies",
          "type": "uint256"
        },
        {
          "internalType": "string",
          "name": "_isbn",
          "type": "string"
        }
      ],
      "name": "addBook",
      "outputs": [],
      "stateMutability": "nonpayable",
      "type": "function"
    },
    {
      "inputs": [
        {
          "internalType": "uint256",
          "name": "_bookId",
          "type": "uint256"
        }
      ],
      "name": "getBookDetails",
      "outputs": [
        {
          "components": [
            {
              "internalType": "string",
              "name": "title",
              "type": "string"
            },
            {
              "internalType": "string",
              "name": "author",
              "type": "string"
            },
            {
              "internalType": "uint256",
              "name": "copies",
              "type": "uint256"
            },
            {
              "internalType": "string",
              "name": "isbn",
              "type": "string"
            }
          ],
          "internalType": "struct bookToken.Book",
          "name": "",
          "type": "tuple"
        }
      ],
      "stateMutability": "view",
      "type": "function"
    },
    {
      "inputs": [
        {
          "internalType": "uint256",
          "name": "_bookId",
          "type": "uint256"
        }
      ],
      "name": "getBookCopies",
      "outputs": [
        {
          "internalType": "uint256",
          "name": "",
          "type": "uint256"
        }
      ],
      "stateMutability": "view",
      "type": "function"
    },
    {
      "inputs": [
        {
          "internalType": "string",
          "name": "_isbn",
          "type": "string"
        }
      ],
      "name": "getBookId",
      "outputs": [
        {
          "internalType": "uint256",
          "name": "",
          "type": "uint256"
        }
      ],
      "stateMutability": "view",
      "type": "function"
    },
    {
      "inputs": [
        {
          "internalType": "uint256",
          "name": "_bookId",
          "type": "uint256"
        },
        {
          "internalType": "uint256",
          "name": "_copies",
          "type": "uint256"
        }
      ],
      "name": "addCopies",
      "outputs": [],
      "stateMutability": "nonpayable",
      "type": "function"
    },
    {
      "inputs": [
        {
          "internalType": "uint256",
          "name": "_bookId",
          "type": "uint256"
        }
      ],
      "name": "isBookAvailable",
      "outputs": [
        {
          "internalType": "bool",
          "name": "",
          "type": "bool"
        }
      ],
      "stateMutability": "view",
      "type": "function"
    },
    {
      "inputs": [],
      "name": "getBooks",
      "outputs": [
        {
          "components": [
            {
              "internalType": "string",
              "name": "title",
              "type": "string"
            },
            {
              "internalType": "string",
              "name": "author",
              "type": "string"
            },
            {
              "internalType": "uint256",
              "name": "copies",
              "type": "uint256"
            },
            {
              "internalType": "string",
              "name": "isbn",
              "type": "string"
            }
          ],
          "internalType": "struct bookToken.Book[]",
          "name": "",
          "type": "tuple[]"
        }
      ],
      "stateMutability": "view",
      "type": "function"
    }
  ],
  "bytecode": "0x608060405234801561000f575f80fd5b506118188061001d5f395ff3fe608060405234801561000f575f80fd5b506004361061009c575f3560e01c8063a42a23d211610064578063a42a23d21461015b578063c0d019891461018b578063e9189aa5146101a7578063edc07913146101d7578063ffc1c2e6146102075761009c565b8063598e1455146100a057806368744046146100bc5780636ec4f4bf146100ef57806374ff48181461010d5780639f3497891461013d575b5f80fd5b6100ba60048036038101906100b59190610d8e565b610237565b005b6100d660048036038101906100d19190610e46565b61031f565b6040516100e69493929190610efa565b60405180910390f35b6100f76104dc565b6040516101049190610f52565b60405180910390f35b61012760048036038101906101229190610e46565b6104e2565b6040516101349190611030565b60405180910390f35b610145610720565b6040516101529190611179565b60405180910390f35b61017560048036038101906101709190610e46565b6109a3565b60405161018291906111b3565b60405180910390f35b6101a560048036038101906101a091906111cc565b610a22565b005b6101c160048036038101906101bc9190611264565b610aaa565b6040516101ce9190610f52565b60405180910390f35b6101f160048036038101906101ec91906112a2565b610ad5565b6040516101fe9190610f52565b60405180910390f35b610221600480360381019061021c9190610e46565b610b70565b60405161022e9190610f52565b60405180910390f35b6040518060800160405280858152602001848152602001838152602001828152505f80600180546102689190611316565b81526020019081526020015f205f820151815f0190816102889190611543565b50602082015181600101908161029e9190611543565b506040820151816002015560608201518160030190816102be9190611543565b5090505060015f8154809291906102d490611612565b91905055506001547ffdb5003c5673529a025856519bf3b990c87366e1b12f22d82eab9040e7af3905858585856040516103119493929190610efa565b60405180910390a250505050565b5f602052805f5260405f205f91509050805f01805461033d90611376565b80601f016020809104026020016040519081016040528092919081815260200182805461036990611376565b80156103b45780601f1061038b576101008083540402835291602001916103b4565b820191905f5260205f20905b81548152906001019060200180831161039757829003601f168201915b5050505050908060010180546103c990611376565b80601f01602080910402602001604051908101604052809291908181526020018280546103f590611376565b80156104405780601f1061041757610100808354040283529160200191610440565b820191905f5260205f20905b81548152906001019060200180831161042357829003601f168201915b50505050509080600201549080600301805461045b90611376565b80601f016020809104026020016040519081016040528092919081815260200182805461048790611376565b80156104d25780601f106104a9576101008083540402835291602001916104d2565b820191905f5260205f20905b8154815290600101906020018083116104b557829003601f168201915b5050505050905084565b60015481565b6104ea610be7565b6001548211806104f957505f82105b8061050557505f600154145b15610545576040517f08c379a000000000000000000000000000000000000000000000000000000000815260040161053c906116a3565b60405180910390fd5b5f808381526020019081526020015f206040518060800160405290815f8201805461056f90611376565b80601f016020809104026020016040519081016040528092919081815260200182805461059b90611376565b80156105e65780601f106105bd576101008083540402835291602001916105e6565b820191905f5260205f20905b8154815290600101906020018083116105c957829003601f168201915b505050505081526020016001820180546105ff90611376565b80601f016020809104026020016040519081016040528092919081815260200182805461062b90611376565b80156106765780601f1061064d57610100808354040283529160200191610676565b820191905f5260205f20905b81548152906001019060200180831161065957829003601f168201915b505050505081526020016002820154815260200160038201805461069990611376565b80601f01602080910402602001604051908101604052809291908181526020018280546106c590611376565b80156107105780601f106106e757610100808354040283529160200191610710565b820191905f5260205f20905b8154815290600101906020018083116106f357829003601f168201915b5050505050815250509050919050565b60605f60015467ffffffffffffffff81111561073f5761073e610c37565b5b60405190808252806020026020018201604052801561077857816020015b610765610be7565b81526020019060019003908161075d5790505b5090505f600190505b600154811161099b575f808281526020019081526020015f206040518060800160405290815f820180546107b490611376565b80601f01602080910402602001604051908101604052809291908181526020018280546107e090611376565b801561082b5780601f106108025761010080835404028352916020019161082b565b820191905f5260205f20905b81548152906001019060200180831161080e57829003601f168201915b5050505050815260200160018201805461084490611376565b80601f016020809104026020016040519081016040528092919081815260200182805461087090611376565b80156108bb5780601f10610892576101008083540402835291602001916108bb565b820191905f5260205f20905b81548152906001019060200180831161089e57829003601f168201915b50505050508152602001600282015481526020016003820180546108de90611376565b80601f016020809104026020016040519081016040528092919081815260200182805461090a90611376565b80156109555780601f1061092c57610100808354040283529160200191610955565b820191905f5260205f20905b81548152906001019060200180831161093857829003601f168201915b5050505050815250508260018361096c91906116c1565b8151811061097d5761097c6116f4565b5b6020026020010181905250808061099390611612565b915050610781565b508091505090565b5f6001548211806109b557505f600154145b156109f5576040517f08c379a00000000000000000000000000000000000000000000000000000000081526004016109ec906116a3565b60405180910390fd5b5f805f8481526020019081526020015f20600201541115610a195760019050610a1d565b5f90505b919050565b600154821180610a3157505f82105b80610a3d57505f600154145b15610a7d576040517f08c379a0000000000000000000000000000000000000000000000000000000008152600401610a74906116a3565b60405180910390fd5b805f808481526020019081526020015f206002015f828254610a9f9190611316565b925050819055505050565b6002602052815f5260405f208181548110610ac3575f80fd5b905f5260205f20015f91509150505481565b5f80600190505b6001548111610b665782604051602001610af69190611721565b604051602081830303815290604052805190602001205f808381526020019081526020015f20600301604051602001610b2f91906117c2565b6040516020818303038152906040528051906020012003610b535780915050610b6b565b8080610b5e90611612565b915050610adc565b505f90505b919050565b5f600154821180610b8057505f82105b80610b8c57505f600154145b15610bcc576040517f08c379a0000000000000000000000000000000000000000000000000000000008152600401610bc3906116a3565b60405180910390fd5b5f808381526020019081526020015f20600201549050919050565b604051806080016040528060608152602001606081526020015f8152602001606081525090565b5f604051905090565b5f80fd5b5f80fd5b5f80fd5b5f80fd5b5f601f19601f8301169050919050565b7f4e487b71000000000000000000000000000000000000000000000000000000005f52604160045260245ffd5b610c6d82610c27565b810181811067ffffffffffffffff82111715610c8c57610c8b610c37565b5b80604052505050565b5f610c9e610c0e565b9050610caa8282610c64565b919050565b5f67ffffffffffffffff821115610cc957610cc8610c37565b5b610cd282610c27565b9050602081019050919050565b828183375f83830152505050565b5f610cff610cfa84610caf565b610c95565b905082815260208101848484011115610d1b57610d1a610c23565b5b610d26848285610cdf565b509392505050565b5f82601f830112610d4257610d41610c1f565b5b8135610d52848260208601610ced565b91505092915050565b5f819050919050565b610d6d81610d5b565b8114610d77575f80fd5b50565b5f81359050610d8881610d64565b92915050565b5f805f8060808587031215610da657610da5610c17565b5b5f85013567ffffffffffffffff811115610dc357610dc2610c1b565b5b610dcf87828801610d2e565b945050602085013567ffffffffffffffff811115610df057610def610c1b565b5b610dfc87828801610d2e565b9350506040610e0d87828801610d7a565b925050606085013567ffffffffffffffff811115610e2e57610e2d610c1b565b5b610e3a87828801610d2e565b91505092959194509250565b5f60208284031215610e5b57610e5a610c17565b5b5f610e6884828501610d7a565b91505092915050565b5f81519050919050565b5f82825260208201905092915050565b5f5b83811015610ea8578082015181840152602081019050610e8d565b5f8484015250505050565b5f610ebd82610e71565b610ec78185610e7b565b9350610ed7818560208601610e8b565b610ee081610c27565b840191505092915050565b610ef481610d5b565b82525050565b5f6080820190508181035f830152610f128187610eb3565b90508181036020830152610f268186610eb3565b9050610f356040830185610eeb565b8181036060830152610f478184610eb3565b905095945050505050565b5f602082019050610f655f830184610eeb565b92915050565b5f82825260208201905092915050565b5f610f8582610e71565b610f8f8185610f6b565b9350610f9f818560208601610e8b565b610fa881610c27565b840191505092915050565b610fbc81610d5b565b82525050565b5f608083015f8301518482035f860152610fdc8282610f7b565b91505060208301518482036020860152610ff68282610f7b565b915050604083015161100b6040860182610fb3565b50606083015184820360608601526110238282610f7b565b9150508091505092915050565b5f6020820190508181035f8301526110488184610fc2565b905092915050565b5f81519050919050565b5f82825260208201905092915050565b5f819050602082019050919050565b5f608083015f8301518482035f8601526110938282610f7b565b915050602083015184820360208601526110ad8282610f7b565b91505060408301516110c26040860182610fb3565b50606083015184820360608601526110da8282610f7b565b9150508091505092915050565b5f6110f28383611079565b905092915050565b5f602082019050919050565b5f61111082611050565b61111a818561105a565b93508360208202850161112c8561106a565b805f5b85811015611167578484038952815161114885826110e7565b9450611153836110fa565b925060208a0199505060018101905061112f565b50829750879550505050505092915050565b5f6020820190508181035f8301526111918184611106565b905092915050565b5f8115159050919050565b6111ad81611199565b82525050565b5f6020820190506111c65f8301846111a4565b92915050565b5f80604083850312156111e2576111e1610c17565b5b5f6111ef85828601610d7a565b925050602061120085828601610d7a565b9150509250929050565b5f73ffffffffffffffffffffffffffffffffffffffff82169050919050565b5f6112338261120a565b9050919050565b61124381611229565b811461124d575f80fd5b50565b5f8135905061125e8161123a565b92915050565b5f806040838503121561127a57611279610c17565b5b5f61128785828601611250565b925050602061129885828601610d7a565b9150509250929050565b5f602082840312156112b7576112b6610c17565b5b5f82013567ffffffffffffffff8111156112d4576112d3610c1b565b5b6112e084828501610d2e565b91505092915050565b7f4e487b71000000000000000000000000000000000000000000000000000000005f52601160045260245ffd5b5f61132082610d5b565b915061132b83610d5b565b9250828201905080821115611343576113426112e9565b5b92915050565b7f4e487b71000000000000000000000000000000000000000000000000000000005f52602260045260245ffd5b5f600282049050600182168061138d57607f821691505b6020821081036113a05761139f611349565b5b50919050565b5f819050815f5260205f209050919050565b5f6020601f8301049050919050565b5f82821b905092915050565b5f600883026114027fffffffffffffffffffffffffffffffffffffffffffffffffffffffffffffffff826113c7565b61140c86836113c7565b95508019841693508086168417925050509392505050565b5f819050919050565b5f61144761144261143d84610d5b565b611424565b610d5b565b9050919050565b5f819050919050565b6114608361142d565b61147461146c8261144e565b8484546113d3565b825550505050565b5f90565b61148861147c565b611493818484611457565b505050565b5b818110156114b6576114ab5f82611480565b600181019050611499565b5050565b601f8211156114fb576114cc816113a6565b6114d5846113b8565b810160208510156114e4578190505b6114f86114f0856113b8565b830182611498565b50505b505050565b5f82821c905092915050565b5f61151b5f1984600802611500565b1980831691505092915050565b5f611533838361150c565b9150826002028217905092915050565b61154c82610e71565b67ffffffffffffffff81111561156557611564610c37565b5b61156f8254611376565b61157a8282856114ba565b5f60209050601f8311600181146115ab575f8415611599578287015190505b6115a38582611528565b86555061160a565b601f1984166115b9866113a6565b5f5b828110156115e0578489015182556001820191506020850194506020810190506115bb565b868310156115fd57848901516115f9601f89168261150c565b8355505b6001600288020188555050505b505050505050565b5f61161c82610d5b565b91507fffffffffffffffffffffffffffffffffffffffffffffffffffffffffffffffff820361164e5761164d6112e9565b5b600182019050919050565b7f426f6f6b20646f6573206e6f74206578697374000000000000000000000000005f82015250565b5f61168d601383610e7b565b915061169882611659565b602082019050919050565b5f6020820190508181035f8301526116ba81611681565b9050919050565b5f6116cb82610d5b565b91506116d683610d5b565b92508282039050818111156116ee576116ed6112e9565b5b92915050565b7f4e487b71000000000000000000000000000000000000000000000000000000005f52603260045260245ffd5b5f6020820190508181035f8301526117398184610eb3565b905092915050565b5f815461174d81611376565b6117578186610e7b565b9450600182165f81146117715760018114611787576117b9565b60ff1983168652811515602002860193506117b9565b611790856113a6565b5f5b838110156117b157815481890152600182019150602081019050611792565b808801955050505b50505092915050565b5f6020820190508181035f8301526117da8184611741565b90509291505056fea2646970667358221220ca9fd40fb203e231a561fabc45a65f9ac06e5aed46e6168c1270ae7b572b35e064736f6c63430008140033",
  "immutableReferences": {},
  "source": "// SPDX-License-Identifier: GPL-3.0\r\npragma solidity >=0.4.16 <0.9.0;\r\nimport \"./user.sol\";\r\n\r\ncontract bookToken {\r\n    struct Book {\r\n        string title;\r\n        string author;\r\n        uint256 copies;\r\n        string isbn;\r\n    }\r\n\r\n    mapping(uint256 => Book) public books;\r\n    // This gives birth to the idea behind a unique bookId for each book which is essentially the order in which each book was registered in the library's systems.\r\n    uint256 public totalBooks;\r\n\r\n    mapping(address => uint256[]) public userBooks;\r\n    // A seperate database of books for every user. This is to make it easier to keep track of which books are issued to which user.\r\n\r\n    event bookAdded(\r\n        uint256 indexed _bookId,\r\n        string _title,\r\n        string _author,\r\n        uint256 _copies,\r\n        string _isbn\r\n    );\r\n\r\n    function addBook(\r\n        string memory _title,\r\n        string memory _author,\r\n        uint256 _copies,\r\n        string memory _isbn\r\n    ) public {\r\n        books[totalBooks + 1] = Book(_title, _author, _copies, _isbn);\r\n        totalBooks++;\r\n        emit bookAdded(totalBooks, _title, _author, _copies, _isbn);\r\n    }\r\n\r\n    function getBookDetails(uint256 _bookId) public view returns (Book memory) {\r\n        if (_bookId > totalBooks || _bookId < 0 || totalBooks == 0) {\r\n            revert(\"Book does not exist\");\r\n        } else {\r\n            return books[_bookId];\r\n        }\r\n\r\n        // Testing has led me to find out that this function returns not a struct but a string array of the struct's values.\r\n        // To optimize for usage, we can convert the returned array's required values into string and then parse it into whatever type we want.\r\n        // This is done in the bookToken.test.js file\r\n        // I will leave this here for reference purposes.\r\n    }\r\n\r\n    function getBookCopies(uint256 _bookId) public view returns (uint256) {\r\n        if (_bookId > totalBooks || _bookId < 0 || totalBooks == 0) {\r\n            revert(\"Book does not exist\");\r\n        } else {\r\n            return books[_bookId].copies;\r\n        }\r\n    }\r\n\r\n    function getBookId(string memory _isbn) public view returns (uint256) {\r\n        for (uint256 id = 1; id <= totalBooks; id++) {\r\n            if (\r\n                keccak256(abi.encode(books[id].isbn)) ==\r\n                keccak256(abi.encode(_isbn))\r\n            ) {\r\n                return id;\r\n            }\r\n        }\r\n\r\n        return 0;\r\n        //Something is wrong with this function. It's not actually comparing the isbn with the isbn of the book for some reason.\r\n        // That's because\r\n    }\r\n\r\n    function addCopies(uint256 _bookId, uint256 _copies) public {\r\n        if (_bookId > totalBooks || _bookId < 0 || totalBooks == 0) {\r\n            revert(\"Book does not exist\");\r\n        } else {\r\n            books[_bookId].copies += _copies;\r\n        }\r\n    }\r\n\r\n    function isBookAvailable(uint256 _bookId) public view returns (bool) {\r\n        if (_bookId > totalBooks || totalBooks == 0) {\r\n            // removed the condition _bookId < 0 because it's redundant\r\n            revert(\"Book does not exist\");\r\n        } else {\r\n            if (books[_bookId].copies > 0) {\r\n                return true;\r\n            } else {\r\n                return false;\r\n            }\r\n        }\r\n    }\r\n\r\n    function getBooks() public view returns (Book[] memory) {\r\n        Book[] memory _books = new Book[](totalBooks);\r\n        for (uint256 id = 1; id <= totalBooks; id++) {\r\n            _books[id - 1] = books[id];\r\n        }\r\n        return _books;\r\n    }\r\n}\r\n",
  "sourcePath": "C:\\Users\\DELL\\Desktop\\Side Projects\\Librarium\\contracts\\bookToken.sol",
  "compiler": {
    "name": "solc",
    "version": "0.8.20+commit.a1b79de6.Emscripten.clang"
  },
  "schemaVersion": "3.4.14",
  "updatedAt": "2023-06-06T14:36:12.977Z",
  "devdoc": {
    "kind": "dev",
    "methods": {},
    "version": 1
  },
  "userdoc": {
    "kind": "user",
    "methods": {},
    "version": 1
  }
}