{
  "contractName": "LibraryContractFactory",
  "abi": [
    {
      "anonymous": false,
      "inputs": [
        {
          "indexed": true,
          "internalType": "address",
          "name": "libraryAddress",
          "type": "address"
        },
        {
          "indexed": true,
          "internalType": "uint256",
          "name": "libraryId",
          "type": "uint256"
        },
        {
          "indexed": false,
          "internalType": "string",
          "name": "name",
          "type": "string"
        },
        {
          "indexed": false,
          "internalType": "string",
          "name": "location",
          "type": "string"
        },
        {
          "indexed": false,
          "internalType": "string",
          "name": "email",
          "type": "string"
        },
        {
          "indexed": false,
          "internalType": "string",
          "name": "phone",
          "type": "string"
        },
        {
          "indexed": false,
          "internalType": "uint256",
          "name": "maxholds",
          "type": "uint256"
        }
      ],
      "name": "LibraryCreated",
      "type": "event"
    },
    {
      "inputs": [
        {
          "internalType": "uint256",
          "name": "",
          "type": "uint256"
        }
      ],
      "name": "libraries",
      "outputs": [
        {
          "internalType": "address",
          "name": "",
          "type": "address"
        }
      ],
      "stateMutability": "view",
      "type": "function",
      "constant": true
    },
    {
      "inputs": [],
      "name": "totalLibraries",
      "outputs": [
        {
          "internalType": "uint256",
          "name": "",
          "type": "uint256"
        }
      ],
      "stateMutability": "view",
      "type": "function",
      "constant": true
    },
    {
      "inputs": [
        {
          "internalType": "string",
          "name": "name",
          "type": "string"
        },
        {
          "internalType": "string",
          "name": "location",
          "type": "string"
        },
        {
          "internalType": "string",
          "name": "email",
          "type": "string"
        },
        {
          "internalType": "string",
          "name": "phone",
          "type": "string"
        },
        {
          "internalType": "uint256",
          "name": "maxholds",
          "type": "uint256"
        }
      ],
      "name": "createLibrary",
      "outputs": [],
      "stateMutability": "nonpayable",
      "type": "function"
    },
    {
      "inputs": [
        {
          "internalType": "uint256",
          "name": "library_id",
          "type": "uint256"
        }
      ],
      "name": "getLibraryAddress",
      "outputs": [
        {
          "internalType": "address",
          "name": "",
          "type": "address"
        }
      ],
      "stateMutability": "view",
      "type": "function",
      "constant": true
    },
    {
      "inputs": [],
      "name": "getTotalLibraries",
      "outputs": [
        {
          "internalType": "uint256",
          "name": "",
          "type": "uint256"
        }
      ],
      "stateMutability": "view",
      "type": "function",
      "constant": true
    }
  ],
  "bytecode": "0x60806040525f600155348015610013575f80fd5b50615e9b806100215f395ff3fe608060405234801562000010575f80fd5b50600436106200005c575f3560e01c806314a3ca081462000060578063609ca9291462000082578063699da1cd14620000a2578063b1fbe72d14620000d8578063e1643907146200010e575b5f80fd5b6200006a62000130565b604051620000799190620002d8565b60405180910390f35b620000a060048036038101906200009a91906200048b565b62000139565b005b620000c06004803603810190620000ba91906200058b565b62000243565b604051620000cf9190620005fe565b60405180910390f35b620000f66004803603810190620000f091906200058b565b6200027b565b604051620001059190620005fe565b60405180910390f35b62000118620002aa565b604051620001279190620002d8565b60405180910390f35b5f600154905090565b5f85858585856040516200014d90620002b0565b6200015d9594939291906200069d565b604051809103905ff08015801562000177573d5f803e3d5ffd5b509050600180546200018a919062000741565b600181905550805f8060015481526020019081526020015f205f6101000a81548173ffffffffffffffffffffffffffffffffffffffff021916908373ffffffffffffffffffffffffffffffffffffffff1602179055506001548173ffffffffffffffffffffffffffffffffffffffff167fe96e46b076796bac2e6043561c62dc9c361f8d2856cdaa5eec0bce977a6406838888888888604051620002339594939291906200069d565b60405180910390a3505050505050565b5f805f8381526020019081526020015f205f9054906101000a900473ffffffffffffffffffffffffffffffffffffffff169050919050565b5f602052805f5260405f205f915054906101000a900473ffffffffffffffffffffffffffffffffffffffff1681565b60015481565b6156ea806200077c83390190565b5f819050919050565b620002d281620002be565b82525050565b5f602082019050620002ed5f830184620002c7565b92915050565b5f604051905090565b5f80fd5b5f80fd5b5f80fd5b5f80fd5b5f601f19601f8301169050919050565b7f4e487b71000000000000000000000000000000000000000000000000000000005f52604160045260245ffd5b62000354826200030c565b810181811067ffffffffffffffff821117156200037657620003756200031c565b5b80604052505050565b5f6200038a620002f3565b905062000398828262000349565b919050565b5f67ffffffffffffffff821115620003ba57620003b96200031c565b5b620003c5826200030c565b9050602081019050919050565b828183375f83830152505050565b5f620003f6620003f0846200039d565b6200037f565b90508281526020810184848401111562000415576200041462000308565b5b62000422848285620003d2565b509392505050565b5f82601f83011262000441576200044062000304565b5b813562000453848260208601620003e0565b91505092915050565b6200046781620002be565b811462000472575f80fd5b50565b5f8135905062000485816200045c565b92915050565b5f805f805f60a08688031215620004a757620004a6620002fc565b5b5f86013567ffffffffffffffff811115620004c757620004c662000300565b5b620004d5888289016200042a565b955050602086013567ffffffffffffffff811115620004f957620004f862000300565b5b62000507888289016200042a565b945050604086013567ffffffffffffffff8111156200052b576200052a62000300565b5b62000539888289016200042a565b935050606086013567ffffffffffffffff8111156200055d576200055c62000300565b5b6200056b888289016200042a565b92505060806200057e8882890162000475565b9150509295509295909350565b5f60208284031215620005a357620005a2620002fc565b5b5f620005b28482850162000475565b91505092915050565b5f73ffffffffffffffffffffffffffffffffffffffff82169050919050565b5f620005e682620005bb565b9050919050565b620005f881620005da565b82525050565b5f602082019050620006135f830184620005ed565b92915050565b5f81519050919050565b5f82825260208201905092915050565b5f5b838110156200065257808201518184015260208101905062000635565b5f8484015250505050565b5f620006698262000619565b62000675818562000623565b93506200068781856020860162000633565b62000692816200030c565b840191505092915050565b5f60a0820190508181035f830152620006b781886200065d565b90508181036020830152620006cd81876200065d565b90508181036040830152620006e381866200065d565b90508181036060830152620006f981856200065d565b90506200070a6080830184620002c7565b9695505050505050565b7f4e487b71000000000000000000000000000000000000000000000000000000005f52601160045260245ffd5b5f6200074d82620002be565b91506200075a83620002be565b925082820190508082111562000775576200077462000714565b5b9291505056fe608060405234801562000010575f80fd5b50604051620056ea380380620056ea83398181016040528101906200003691906200043f565b604051620000449062000266565b604051809103905ff0801580156200005e573d5f803e3d5ffd5b5060075f6101000a81548173ffffffffffffffffffffffffffffffffffffffff021916908373ffffffffffffffffffffffffffffffffffffffff16021790555060075f9054906101000a900473ffffffffffffffffffffffffffffffffffffffff1660055f6101000a81548173ffffffffffffffffffffffffffffffffffffffff021916908373ffffffffffffffffffffffffffffffffffffffff1602179055506040516200010d9062000274565b604051809103905ff08015801562000127573d5f803e3d5ffd5b5060085f6101000a81548173ffffffffffffffffffffffffffffffffffffffff021916908373ffffffffffffffffffffffffffffffffffffffff16021790555060085f9054906101000a900473ffffffffffffffffffffffffffffffffffffffff1660065f6101000a81548173ffffffffffffffffffffffffffffffffffffffff021916908373ffffffffffffffffffffffffffffffffffffffff1602179055506040518060a00160405280868152602001858152602001848152602001838152602001828152505f80820151815f0190816200020591906200076d565b5060208201518160010190816200021d91906200076d565b5060408201518160020190816200023591906200076d565b5060608201518160030190816200024d91906200076d565b5060808201518160040155905050505050505062000851565b611835806200251a83390190565b61199b8062003d4f83390190565b5f604051905090565b5f80fd5b5f80fd5b5f80fd5b5f80fd5b5f601f19601f8301169050919050565b7f4e487b71000000000000000000000000000000000000000000000000000000005f52604160045260245ffd5b620002e3826200029b565b810181811067ffffffffffffffff82111715620003055762000304620002ab565b5b80604052505050565b5f6200031962000282565b9050620003278282620002d8565b919050565b5f67ffffffffffffffff821115620003495762000348620002ab565b5b62000354826200029b565b9050602081019050919050565b5f5b838110156200038057808201518184015260208101905062000363565b5f8484015250505050565b5f620003a16200039b846200032c565b6200030e565b905082815260208101848484011115620003c057620003bf62000297565b5b620003cd84828562000361565b509392505050565b5f82601f830112620003ec57620003eb62000293565b5b8151620003fe8482602086016200038b565b91505092915050565b5f819050919050565b6200041b8162000407565b811462000426575f80fd5b50565b5f81519050620004398162000410565b92915050565b5f805f805f60a086880312156200045b576200045a6200028b565b5b5f86015167ffffffffffffffff8111156200047b576200047a6200028f565b5b6200048988828901620003d5565b955050602086015167ffffffffffffffff811115620004ad57620004ac6200028f565b5b620004bb88828901620003d5565b945050604086015167ffffffffffffffff811115620004df57620004de6200028f565b5b620004ed88828901620003d5565b935050606086015167ffffffffffffffff8111156200051157620005106200028f565b5b6200051f88828901620003d5565b9250506080620005328882890162000429565b9150509295509295909350565b5f81519050919050565b7f4e487b71000000000000000000000000000000000000000000000000000000005f52602260045260245ffd5b5f60028204905060018216806200058e57607f821691505b602082108103620005a457620005a362000549565b5b50919050565b5f819050815f5260205f209050919050565b5f6020601f8301049050919050565b5f82821b905092915050565b5f60088302620006087fffffffffffffffffffffffffffffffffffffffffffffffffffffffffffffffff82620005cb565b620006148683620005cb565b95508019841693508086168417925050509392505050565b5f819050919050565b5f620006556200064f620006498462000407565b6200062c565b62000407565b9050919050565b5f819050919050565b620006708362000635565b620006886200067f826200065c565b848454620005d7565b825550505050565b5f90565b6200069e62000690565b620006ab81848462000665565b505050565b5b81811015620006d257620006c65f8262000694565b600181019050620006b1565b5050565b601f8211156200072157620006eb81620005aa565b620006f684620005bc565b8101602085101562000706578190505b6200071e6200071585620005bc565b830182620006b0565b50505b505050565b5f82821c905092915050565b5f620007435f198460080262000726565b1980831691505092915050565b5f6200075d838362000732565b9150826002028217905092915050565b62000778826200053f565b67ffffffffffffffff811115620007945762000793620002ab565b5b620007a0825462000576565b620007ad828285620006d6565b5f60209050601f831160018114620007e3575f8415620007ce578287015190505b620007da858262000750565b86555062000849565b601f198416620007f386620005aa565b5f5b828110156200081c57848901518255600182019150602085019450602081019050620007f5565b868310156200083c578489015162000838601f89168262000732565b8355505b6001600288020188555050505b505050505050565b611cbb806200085f5f395ff3fe608060405234801561000f575f80fd5b50600436106100a7575f3560e01c80638f45ffd31161006f5780638f45ffd314610163578063a59f960f1461017f578063db0c87c9146101a1578063df8a1efe146101bd578063ee92f96b146101db578063fc5ba486146101f7576100a7565b80635000596b146100ab5780635e8f58f4146100c95780635fd3f129146100f957806384bedc11146101175780638748003c14610147575b5f80fd5b6100b3610227565b6040516100c09190611224565b60405180910390f35b6100e360048036038101906100de9190611289565b61024c565b6040516100f091906112cc565b60405180910390f35b610101610261565b60405161010e9190611305565b60405180910390f35b610131600480360381019061012c9190611348565b610286565b60405161013e91906113a0565b60405180910390f35b610161600480360381019061015c91906114f5565b6102b0565b005b61017d60048036038101906101789190611348565b610343565b005b610187610861565b604051610198959493929190611627565b60405180910390f35b6101bb60048036038101906101b69190611694565b610a9b565b005b6101c5610b2b565b6040516101d291906117fb565b60405180910390f35b6101f560048036038101906101f09190611348565b610d8d565b005b610211600480360381019061020c9190611289565b611136565b60405161021e91906112cc565b60405180910390f35b60085f9054906101000a900473ffffffffffffffffffffffffffffffffffffffff1681565b6009602052805f5260405f205f915090505481565b60075f9054906101000a900473ffffffffffffffffffffffffffffffffffffffff1681565b600a602052815f5260405f20602052805f5260405f205f915091509054906101000a900460ff1681565b60075f9054906101000a900473ffffffffffffffffffffffffffffffffffffffff1673ffffffffffffffffffffffffffffffffffffffff1663598e1455858585856040518563ffffffff1660e01b8152600401610310949392919061181b565b5f604051808303815f87803b158015610327575f80fd5b505af1158015610339573d5f803e3d5ffd5b5050505050505050565b60075f9054906101000a900473ffffffffffffffffffffffffffffffffffffffff1673ffffffffffffffffffffffffffffffffffffffff1663a42a23d2826040518263ffffffff1660e01b815260040161039d91906112cc565b602060405180830381865afa1580156103b8573d5f803e3d5ffd5b505050506040513d601f19601f820116820180604052508101906103dc919061189d565b61041b576040517f08c379a000000000000000000000000000000000000000000000000000000000815260040161041290611912565b60405180910390fd5b5f1515600a5f8473ffffffffffffffffffffffffffffffffffffffff1673ffffffffffffffffffffffffffffffffffffffff1681526020019081526020015f205f8381526020019081526020015f205f9054906101000a900460ff161515146104b9576040517f08c379a00000000000000000000000000000000000000000000000000000000081526004016104b0906119a0565b60405180910390fd5b5f60095f8473ffffffffffffffffffffffffffffffffffffffff1673ffffffffffffffffffffffffffffffffffffffff1681526020019081526020015f20540361054557600160095f8473ffffffffffffffffffffffffffffffffffffffff1673ffffffffffffffffffffffffffffffffffffffff1681526020019081526020015f208190555061059a565b600160095f8473ffffffffffffffffffffffffffffffffffffffff1673ffffffffffffffffffffffffffffffffffffffff1681526020019081526020015f205f82825461059291906119eb565b925050819055505b6001600a5f8473ffffffffffffffffffffffffffffffffffffffff1673ffffffffffffffffffffffffffffffffffffffff1681526020019081526020015f205f8381526020019081526020015f205f6101000a81548160ff02191690831515021790555060085f9054906101000a900473ffffffffffffffffffffffffffffffffffffffff1673ffffffffffffffffffffffffffffffffffffffff1663fe1777008360095f8673ffffffffffffffffffffffffffffffffffffffff1673ffffffffffffffffffffffffffffffffffffffff1681526020019081526020015f20546040518363ffffffff1660e01b8152600401610697929190611a2d565b5f604051808303815f87803b1580156106ae575f80fd5b505af11580156106c0573d5f803e3d5ffd5b505050505f6004015460095f8473ffffffffffffffffffffffffffffffffffffffff1673ffffffffffffffffffffffffffffffffffffffff1681526020019081526020015f20541115610748576040517f08c379a000000000000000000000000000000000000000000000000000000000815260040161073f90611ac4565b60405180910390fd5b60085f9054906101000a900473ffffffffffffffffffffffffffffffffffffffff1673ffffffffffffffffffffffffffffffffffffffff166340405f7e83836040518363ffffffff1660e01b81526004016107a4929190611a2d565b5f604051808303815f87803b1580156107bb575f80fd5b505af11580156107cd573d5f803e3d5ffd5b50505050808273ffffffffffffffffffffffffffffffffffffffff167f88be6caf99ff92a5b37beab82fff9ca6f5fc834dfe7da065f7545cb6885026bb60095f8673ffffffffffffffffffffffffffffffffffffffff1673ffffffffffffffffffffffffffffffffffffffff1681526020019081526020015f205460405161085591906112cc565b60405180910390a35050565b5f805f01805461087090611b0f565b80601f016020809104026020016040519081016040528092919081815260200182805461089c90611b0f565b80156108e75780601f106108be576101008083540402835291602001916108e7565b820191905f5260205f20905b8154815290600101906020018083116108ca57829003601f168201915b5050505050908060010180546108fc90611b0f565b80601f016020809104026020016040519081016040528092919081815260200182805461092890611b0f565b80156109735780601f1061094a57610100808354040283529160200191610973565b820191905f5260205f20905b81548152906001019060200180831161095657829003601f168201915b50505050509080600201805461098890611b0f565b80601f01602080910402602001604051908101604052809291908181526020018280546109b490611b0f565b80156109ff5780601f106109d6576101008083540402835291602001916109ff565b820191905f5260205f20905b8154815290600101906020018083116109e257829003601f168201915b505050505090806003018054610a1490611b0f565b80601f0160208091040260200160405190810160405280929190818152602001828054610a4090611b0f565b8015610a8b5780601f10610a6257610100808354040283529160200191610a8b565b820191905f5260205f20905b815481529060010190602001808311610a6e57829003601f168201915b5050505050908060040154905085565b60085f9054906101000a900473ffffffffffffffffffffffffffffffffffffffff1673ffffffffffffffffffffffffffffffffffffffff1663db0c87c98484846040518463ffffffff1660e01b8152600401610af993929190611b3f565b5f604051808303815f87803b158015610b10575f80fd5b505af1158015610b22573d5f803e3d5ffd5b50505050505050565b610b3361117c565b5f6040518060a00160405290815f82018054610b4e90611b0f565b80601f0160208091040260200160405190810160405280929190818152602001828054610b7a90611b0f565b8015610bc55780601f10610b9c57610100808354040283529160200191610bc5565b820191905f5260205f20905b815481529060010190602001808311610ba857829003601f168201915b50505050508152602001600182018054610bde90611b0f565b80601f0160208091040260200160405190810160405280929190818152602001828054610c0a90611b0f565b8015610c555780601f10610c2c57610100808354040283529160200191610c55565b820191905f5260205f20905b815481529060010190602001808311610c3857829003601f168201915b50505050508152602001600282018054610c6e90611b0f565b80601f0160208091040260200160405190810160405280929190818152602001828054610c9a90611b0f565b8015610ce55780601f10610cbc57610100808354040283529160200191610ce5565b820191905f5260205f20905b815481529060010190602001808311610cc857829003601f168201915b50505050508152602001600382018054610cfe90611b0f565b80601f0160208091040260200160405190810160405280929190818152602001828054610d2a90611b0f565b8015610d755780601f10610d4c57610100808354040283529160200191610d75565b820191905f5260205f20905b815481529060010190602001808311610d5857829003601f168201915b50505050508152602001600482015481525050905090565b5f60095f8473ffffffffffffffffffffffffffffffffffffffff1673ffffffffffffffffffffffffffffffffffffffff1681526020019081526020015f205411610e0c576040517f08c379a0000000000000000000000000000000000000000000000000000000008152600401610e0390611bcc565b60405180910390fd5b60011515600a5f8473ffffffffffffffffffffffffffffffffffffffff1673ffffffffffffffffffffffffffffffffffffffff1681526020019081526020015f205f8381526020019081526020015f205f9054906101000a900460ff16151514610eab576040517f08c379a0000000000000000000000000000000000000000000000000000000008152600401610ea290611c34565b60405180910390fd5b600160095f8473ffffffffffffffffffffffffffffffffffffffff1673ffffffffffffffffffffffffffffffffffffffff1681526020019081526020015f205f828254610ef89190611c52565b925050819055505f600a5f8473ffffffffffffffffffffffffffffffffffffffff1673ffffffffffffffffffffffffffffffffffffffff1681526020019081526020015f205f8381526020019081526020015f205f6101000a81548160ff02191690831515021790555060085f9054906101000a900473ffffffffffffffffffffffffffffffffffffffff1673ffffffffffffffffffffffffffffffffffffffff1663fe1777008360095f8673ffffffffffffffffffffffffffffffffffffffff1673ffffffffffffffffffffffffffffffffffffffff1681526020019081526020015f20546040518363ffffffff1660e01b8152600401610ffb929190611a2d565b5f604051808303815f87803b158015611012575f80fd5b505af1158015611024573d5f803e3d5ffd5b5050505060085f9054906101000a900473ffffffffffffffffffffffffffffffffffffffff1673ffffffffffffffffffffffffffffffffffffffff1663d81896cb83836040518363ffffffff1660e01b8152600401611084929190611a2d565b5f6040518083038186803b15801561109a575f80fd5b505afa1580156110ac573d5f803e3d5ffd5b5050505060095f8373ffffffffffffffffffffffffffffffffffffffff1673ffffffffffffffffffffffffffffffffffffffff1681526020019081526020015f2054818373ffffffffffffffffffffffffffffffffffffffff167f058f338aac010b0bcf9a4504585da8288b9f28349e4907efd601b2edcb5b98c260405160405180910390a45050565b5f60095f8373ffffffffffffffffffffffffffffffffffffffff1673ffffffffffffffffffffffffffffffffffffffff1681526020019081526020015f20549050919050565b6040518060a00160405280606081526020016060815260200160608152602001606081526020015f81525090565b5f73ffffffffffffffffffffffffffffffffffffffff82169050919050565b5f819050919050565b5f6111ec6111e76111e2846111aa565b6111c9565b6111aa565b9050919050565b5f6111fd826111d2565b9050919050565b5f61120e826111f3565b9050919050565b61121e81611204565b82525050565b5f6020820190506112375f830184611215565b92915050565b5f604051905090565b5f80fd5b5f80fd5b5f611258826111aa565b9050919050565b6112688161124e565b8114611272575f80fd5b50565b5f813590506112838161125f565b92915050565b5f6020828403121561129e5761129d611246565b5b5f6112ab84828501611275565b91505092915050565b5f819050919050565b6112c6816112b4565b82525050565b5f6020820190506112df5f8301846112bd565b92915050565b5f6112ef826111f3565b9050919050565b6112ff816112e5565b82525050565b5f6020820190506113185f8301846112f6565b92915050565b611327816112b4565b8114611331575f80fd5b50565b5f813590506113428161131e565b92915050565b5f806040838503121561135e5761135d611246565b5b5f61136b85828601611275565b925050602061137c85828601611334565b9150509250929050565b5f8115159050919050565b61139a81611386565b82525050565b5f6020820190506113b35f830184611391565b92915050565b5f80fd5b5f80fd5b5f601f19601f8301169050919050565b7f4e487b71000000000000000000000000000000000000000000000000000000005f52604160045260245ffd5b611407826113c1565b810181811067ffffffffffffffff82111715611426576114256113d1565b5b80604052505050565b5f61143861123d565b905061144482826113fe565b919050565b5f67ffffffffffffffff821115611463576114626113d1565b5b61146c826113c1565b9050602081019050919050565b828183375f83830152505050565b5f61149961149484611449565b61142f565b9050828152602081018484840111156114b5576114b46113bd565b5b6114c0848285611479565b509392505050565b5f82601f8301126114dc576114db6113b9565b5b81356114ec848260208601611487565b91505092915050565b5f805f806080858703121561150d5761150c611246565b5b5f85013567ffffffffffffffff81111561152a5761152961124a565b5b611536878288016114c8565b945050602085013567ffffffffffffffff8111156115575761155661124a565b5b611563878288016114c8565b935050604061157487828801611334565b925050606085013567ffffffffffffffff8111156115955761159461124a565b5b6115a1878288016114c8565b91505092959194509250565b5f81519050919050565b5f82825260208201905092915050565b5f5b838110156115e45780820151818401526020810190506115c9565b5f8484015250505050565b5f6115f9826115ad565b61160381856115b7565b93506116138185602086016115c7565b61161c816113c1565b840191505092915050565b5f60a0820190508181035f83015261163f81886115ef565b9050818103602083015261165381876115ef565b9050818103604083015261166781866115ef565b9050818103606083015261167b81856115ef565b905061168a60808301846112bd565b9695505050505050565b5f805f606084860312156116ab576116aa611246565b5b5f6116b886828701611275565b935050602084013567ffffffffffffffff8111156116d9576116d861124a565b5b6116e5868287016114c8565b925050604084013567ffffffffffffffff8111156117065761170561124a565b5b611712868287016114c8565b9150509250925092565b5f82825260208201905092915050565b5f611736826115ad565b611740818561171c565b93506117508185602086016115c7565b611759816113c1565b840191505092915050565b61176d816112b4565b82525050565b5f60a083015f8301518482035f86015261178d828261172c565b915050602083015184820360208601526117a7828261172c565b915050604083015184820360408601526117c1828261172c565b915050606083015184820360608601526117db828261172c565b91505060808301516117f06080860182611764565b508091505092915050565b5f6020820190508181035f8301526118138184611773565b905092915050565b5f6080820190508181035f83015261183381876115ef565b9050818103602083015261184781866115ef565b905061185660408301856112bd565b818103606083015261186881846115ef565b905095945050505050565b61187c81611386565b8114611886575f80fd5b50565b5f8151905061189781611873565b92915050565b5f602082840312156118b2576118b1611246565b5b5f6118bf84828501611889565b91505092915050565b7f426f6f6b20646f6573206e6f74206578697374000000000000000000000000005f82015250565b5f6118fc6013836115b7565b9150611907826118c8565b602082019050919050565b5f6020820190508181035f830152611929816118f0565b9050919050565b7f426f6f6b2068617320616c7265616479206265656e20697373756564206279205f8201527f796f750000000000000000000000000000000000000000000000000000000000602082015250565b5f61198a6023836115b7565b915061199582611930565b604082019050919050565b5f6020820190508181035f8301526119b78161197e565b9050919050565b7f4e487b71000000000000000000000000000000000000000000000000000000005f52601160045260245ffd5b5f6119f5826112b4565b9150611a00836112b4565b9250828201905080821115611a1857611a176119be565b5b92915050565b611a278161124e565b82525050565b5f604082019050611a405f830185611a1e565b611a4d60208301846112bd565b9392505050565b7f596f75206861766520657863656564656420746865206d6178696d756d206e755f8201527f6d626572206f6620686f6c647300000000000000000000000000000000000000602082015250565b5f611aae602d836115b7565b9150611ab982611a54565b604082019050919050565b5f6020820190508181035f830152611adb81611aa2565b9050919050565b7f4e487b71000000000000000000000000000000000000000000000000000000005f52602260045260245ffd5b5f6002820490506001821680611b2657607f821691505b602082108103611b3957611b38611ae2565b5b50919050565b5f606082019050611b525f830186611a1e565b8181036020830152611b6481856115ef565b90508181036040830152611b7881846115ef565b9050949350505050565b7f596f752068617665206e6f20686f6c64730000000000000000000000000000005f82015250565b5f611bb66011836115b7565b9150611bc182611b82565b602082019050919050565b5f6020820190508181035f830152611be381611baa565b9050919050565b7f426f6f6b20686173206e6f74206265656e2069737375656420627920796f75005f82015250565b5f611c1e601f836115b7565b9150611c2982611bea565b602082019050919050565b5f6020820190508181035f830152611c4b81611c12565b9050919050565b5f611c5c826112b4565b9150611c67836112b4565b9250828203905081811115611c7f57611c7e6119be565b5b9291505056fea26469706673582212209442972258d22984afa32d45cd97a08b9c95c8f5fae0f41f8125e406adeaf32d64736f6c63430008140033608060405234801561000f575f80fd5b506118188061001d5f395ff3fe608060405234801561000f575f80fd5b506004361061009c575f3560e01c8063a42a23d211610064578063a42a23d21461015b578063c0d019891461018b578063e9189aa5146101a7578063edc07913146101d7578063ffc1c2e6146102075761009c565b8063598e1455146100a057806368744046146100bc5780636ec4f4bf146100ef57806374ff48181461010d5780639f3497891461013d575b5f80fd5b6100ba60048036038101906100b59190610d8e565b610237565b005b6100d660048036038101906100d19190610e46565b61031f565b6040516100e69493929190610efa565b60405180910390f35b6100f76104dc565b6040516101049190610f52565b60405180910390f35b61012760048036038101906101229190610e46565b6104e2565b6040516101349190611030565b60405180910390f35b610145610720565b6040516101529190611179565b60405180910390f35b61017560048036038101906101709190610e46565b6109a3565b60405161018291906111b3565b60405180910390f35b6101a560048036038101906101a091906111cc565b610a22565b005b6101c160048036038101906101bc9190611264565b610aaa565b6040516101ce9190610f52565b60405180910390f35b6101f160048036038101906101ec91906112a2565b610ad5565b6040516101fe9190610f52565b60405180910390f35b610221600480360381019061021c9190610e46565b610b70565b60405161022e9190610f52565b60405180910390f35b6040518060800160405280858152602001848152602001838152602001828152505f80600180546102689190611316565b81526020019081526020015f205f820151815f0190816102889190611543565b50602082015181600101908161029e9190611543565b506040820151816002015560608201518160030190816102be9190611543565b5090505060015f8154809291906102d490611612565b91905055506001547ffdb5003c5673529a025856519bf3b990c87366e1b12f22d82eab9040e7af3905858585856040516103119493929190610efa565b60405180910390a250505050565b5f602052805f5260405f205f91509050805f01805461033d90611376565b80601f016020809104026020016040519081016040528092919081815260200182805461036990611376565b80156103b45780601f1061038b576101008083540402835291602001916103b4565b820191905f5260205f20905b81548152906001019060200180831161039757829003601f168201915b5050505050908060010180546103c990611376565b80601f01602080910402602001604051908101604052809291908181526020018280546103f590611376565b80156104405780601f1061041757610100808354040283529160200191610440565b820191905f5260205f20905b81548152906001019060200180831161042357829003601f168201915b50505050509080600201549080600301805461045b90611376565b80601f016020809104026020016040519081016040528092919081815260200182805461048790611376565b80156104d25780601f106104a9576101008083540402835291602001916104d2565b820191905f5260205f20905b8154815290600101906020018083116104b557829003601f168201915b5050505050905084565b60015481565b6104ea610be7565b6001548211806104f957505f82105b8061050557505f600154145b15610545576040517f08c379a000000000000000000000000000000000000000000000000000000000815260040161053c906116a3565b60405180910390fd5b5f808381526020019081526020015f206040518060800160405290815f8201805461056f90611376565b80601f016020809104026020016040519081016040528092919081815260200182805461059b90611376565b80156105e65780601f106105bd576101008083540402835291602001916105e6565b820191905f5260205f20905b8154815290600101906020018083116105c957829003601f168201915b505050505081526020016001820180546105ff90611376565b80601f016020809104026020016040519081016040528092919081815260200182805461062b90611376565b80156106765780601f1061064d57610100808354040283529160200191610676565b820191905f5260205f20905b81548152906001019060200180831161065957829003601f168201915b505050505081526020016002820154815260200160038201805461069990611376565b80601f01602080910402602001604051908101604052809291908181526020018280546106c590611376565b80156107105780601f106106e757610100808354040283529160200191610710565b820191905f5260205f20905b8154815290600101906020018083116106f357829003601f168201915b5050505050815250509050919050565b60605f60015467ffffffffffffffff81111561073f5761073e610c37565b5b60405190808252806020026020018201604052801561077857816020015b610765610be7565b81526020019060019003908161075d5790505b5090505f600190505b600154811161099b575f808281526020019081526020015f206040518060800160405290815f820180546107b490611376565b80601f01602080910402602001604051908101604052809291908181526020018280546107e090611376565b801561082b5780601f106108025761010080835404028352916020019161082b565b820191905f5260205f20905b81548152906001019060200180831161080e57829003601f168201915b5050505050815260200160018201805461084490611376565b80601f016020809104026020016040519081016040528092919081815260200182805461087090611376565b80156108bb5780601f10610892576101008083540402835291602001916108bb565b820191905f5260205f20905b81548152906001019060200180831161089e57829003601f168201915b50505050508152602001600282015481526020016003820180546108de90611376565b80601f016020809104026020016040519081016040528092919081815260200182805461090a90611376565b80156109555780601f1061092c57610100808354040283529160200191610955565b820191905f5260205f20905b81548152906001019060200180831161093857829003601f168201915b5050505050815250508260018361096c91906116c1565b8151811061097d5761097c6116f4565b5b6020026020010181905250808061099390611612565b915050610781565b508091505090565b5f6001548211806109b557505f600154145b156109f5576040517f08c379a00000000000000000000000000000000000000000000000000000000081526004016109ec906116a3565b60405180910390fd5b5f805f8481526020019081526020015f20600201541115610a195760019050610a1d565b5f90505b919050565b600154821180610a3157505f82105b80610a3d57505f600154145b15610a7d576040517f08c379a0000000000000000000000000000000000000000000000000000000008152600401610a74906116a3565b60405180910390fd5b805f808481526020019081526020015f206002015f828254610a9f9190611316565b925050819055505050565b6002602052815f5260405f208181548110610ac3575f80fd5b905f5260205f20015f91509150505481565b5f80600190505b6001548111610b665782604051602001610af69190611721565b604051602081830303815290604052805190602001205f808381526020019081526020015f20600301604051602001610b2f91906117c2565b6040516020818303038152906040528051906020012003610b535780915050610b6b565b8080610b5e90611612565b915050610adc565b505f90505b919050565b5f600154821180610b8057505f82105b80610b8c57505f600154145b15610bcc576040517f08c379a0000000000000000000000000000000000000000000000000000000008152600401610bc3906116a3565b60405180910390fd5b5f808381526020019081526020015f20600201549050919050565b604051806080016040528060608152602001606081526020015f8152602001606081525090565b5f604051905090565b5f80fd5b5f80fd5b5f80fd5b5f80fd5b5f601f19601f8301169050919050565b7f4e487b71000000000000000000000000000000000000000000000000000000005f52604160045260245ffd5b610c6d82610c27565b810181811067ffffffffffffffff82111715610c8c57610c8b610c37565b5b80604052505050565b5f610c9e610c0e565b9050610caa8282610c64565b919050565b5f67ffffffffffffffff821115610cc957610cc8610c37565b5b610cd282610c27565b9050602081019050919050565b828183375f83830152505050565b5f610cff610cfa84610caf565b610c95565b905082815260208101848484011115610d1b57610d1a610c23565b5b610d26848285610cdf565b509392505050565b5f82601f830112610d4257610d41610c1f565b5b8135610d52848260208601610ced565b91505092915050565b5f819050919050565b610d6d81610d5b565b8114610d77575f80fd5b50565b5f81359050610d8881610d64565b92915050565b5f805f8060808587031215610da657610da5610c17565b5b5f85013567ffffffffffffffff811115610dc357610dc2610c1b565b5b610dcf87828801610d2e565b945050602085013567ffffffffffffffff811115610df057610def610c1b565b5b610dfc87828801610d2e565b9350506040610e0d87828801610d7a565b925050606085013567ffffffffffffffff811115610e2e57610e2d610c1b565b5b610e3a87828801610d2e565b91505092959194509250565b5f60208284031215610e5b57610e5a610c17565b5b5f610e6884828501610d7a565b91505092915050565b5f81519050919050565b5f82825260208201905092915050565b5f5b83811015610ea8578082015181840152602081019050610e8d565b5f8484015250505050565b5f610ebd82610e71565b610ec78185610e7b565b9350610ed7818560208601610e8b565b610ee081610c27565b840191505092915050565b610ef481610d5b565b82525050565b5f6080820190508181035f830152610f128187610eb3565b90508181036020830152610f268186610eb3565b9050610f356040830185610eeb565b8181036060830152610f478184610eb3565b905095945050505050565b5f602082019050610f655f830184610eeb565b92915050565b5f82825260208201905092915050565b5f610f8582610e71565b610f8f8185610f6b565b9350610f9f818560208601610e8b565b610fa881610c27565b840191505092915050565b610fbc81610d5b565b82525050565b5f608083015f8301518482035f860152610fdc8282610f7b565b91505060208301518482036020860152610ff68282610f7b565b915050604083015161100b6040860182610fb3565b50606083015184820360608601526110238282610f7b565b9150508091505092915050565b5f6020820190508181035f8301526110488184610fc2565b905092915050565b5f81519050919050565b5f82825260208201905092915050565b5f819050602082019050919050565b5f608083015f8301518482035f8601526110938282610f7b565b915050602083015184820360208601526110ad8282610f7b565b91505060408301516110c26040860182610fb3565b50606083015184820360608601526110da8282610f7b565b9150508091505092915050565b5f6110f28383611079565b905092915050565b5f602082019050919050565b5f61111082611050565b61111a818561105a565b93508360208202850161112c8561106a565b805f5b85811015611167578484038952815161114885826110e7565b9450611153836110fa565b925060208a0199505060018101905061112f565b50829750879550505050505092915050565b5f6020820190508181035f8301526111918184611106565b905092915050565b5f8115159050919050565b6111ad81611199565b82525050565b5f6020820190506111c65f8301846111a4565b92915050565b5f80604083850312156111e2576111e1610c17565b5b5f6111ef85828601610d7a565b925050602061120085828601610d7a565b9150509250929050565b5f73ffffffffffffffffffffffffffffffffffffffff82169050919050565b5f6112338261120a565b9050919050565b61124381611229565b811461124d575f80fd5b50565b5f8135905061125e8161123a565b92915050565b5f806040838503121561127a57611279610c17565b5b5f61128785828601611250565b925050602061129885828601610d7a565b9150509250929050565b5f602082840312156112b7576112b6610c17565b5b5f82013567ffffffffffffffff8111156112d4576112d3610c1b565b5b6112e084828501610d2e565b91505092915050565b7f4e487b71000000000000000000000000000000000000000000000000000000005f52601160045260245ffd5b5f61132082610d5b565b915061132b83610d5b565b9250828201905080821115611343576113426112e9565b5b92915050565b7f4e487b71000000000000000000000000000000000000000000000000000000005f52602260045260245ffd5b5f600282049050600182168061138d57607f821691505b6020821081036113a05761139f611349565b5b50919050565b5f819050815f5260205f209050919050565b5f6020601f8301049050919050565b5f82821b905092915050565b5f600883026114027fffffffffffffffffffffffffffffffffffffffffffffffffffffffffffffffff826113c7565b61140c86836113c7565b95508019841693508086168417925050509392505050565b5f819050919050565b5f61144761144261143d84610d5b565b611424565b610d5b565b9050919050565b5f819050919050565b6114608361142d565b61147461146c8261144e565b8484546113d3565b825550505050565b5f90565b61148861147c565b611493818484611457565b505050565b5b818110156114b6576114ab5f82611480565b600181019050611499565b5050565b601f8211156114fb576114cc816113a6565b6114d5846113b8565b810160208510156114e4578190505b6114f86114f0856113b8565b830182611498565b50505b505050565b5f82821c905092915050565b5f61151b5f1984600802611500565b1980831691505092915050565b5f611533838361150c565b9150826002028217905092915050565b61154c82610e71565b67ffffffffffffffff81111561156557611564610c37565b5b61156f8254611376565b61157a8282856114ba565b5f60209050601f8311600181146115ab575f8415611599578287015190505b6115a38582611528565b86555061160a565b601f1984166115b9866113a6565b5f5b828110156115e0578489015182556001820191506020850194506020810190506115bb565b868310156115fd57848901516115f9601f89168261150c565b8355505b6001600288020188555050505b505050505050565b5f61161c82610d5b565b91507fffffffffffffffffffffffffffffffffffffffffffffffffffffffffffffffff820361164e5761164d6112e9565b5b600182019050919050565b7f426f6f6b20646f6573206e6f74206578697374000000000000000000000000005f82015250565b5f61168d601383610e7b565b915061169882611659565b602082019050919050565b5f6020820190508181035f8301526116ba81611681565b9050919050565b5f6116cb82610d5b565b91506116d683610d5b565b92508282039050818111156116ee576116ed6112e9565b5b92915050565b7f4e487b71000000000000000000000000000000000000000000000000000000005f52603260045260245ffd5b5f6020820190508181035f8301526117398184610eb3565b905092915050565b5f815461174d81611376565b6117578186610e7b565b9450600182165f81146117715760018114611787576117b9565b60ff1983168652811515602002860193506117b9565b611790856113a6565b5f5b838110156117b157815481890152600182019150602081019050611792565b808801955050505b50505092915050565b5f6020820190508181035f8301526117da8184611741565b90509291505056fea2646970667358221220ca9fd40fb203e231a561fabc45a65f9ac06e5aed46e6168c1270ae7b572b35e064736f6c6343000814003360806040525f600355348015610013575f80fd5b5061197a806100215f395ff3fe608060405234801561000f575f80fd5b50600436106100b1575f3560e01c80639320b4741161006f5780639320b474146101af578063a87430ba146101cd578063bff1f9e1146101ff578063d81896cb1461021d578063db0c87c914610239578063fe17770014610255576100b1565b8062ce8e3e146100b55780630e666e49146100d357806340405f7e14610103578063477348921461011f5780634aed47cf1461014f5780636f77926b1461017f575b5f80fd5b6100bd610271565b6040516100ca9190611018565b60405180910390f35b6100ed60048036038101906100e891906110a3565b61050d565b6040516100fa91906110e8565b60405180910390f35b61011d6004803603810190610118919061112b565b610573565b005b610139600480360381019061013491906110a3565b6105db565b6040516101469190611178565b60405180910390f35b61016960048036038101906101649190611191565b610624565b60405161017691906111cb565b60405180910390f35b610199600480360381019061019491906110a3565b610654565b6040516101a69190611252565b60405180910390f35b6101b761082a565b6040516101c491906111cb565b60405180910390f35b6101e760048036038101906101e291906110a3565b61084d565b6040516101f6939291906112ba565b60405180910390f35b61020761097f565b6040516102149190611178565b60405180910390f35b6102376004803603810190610232919061112b565b610985565b005b610253600480360381019061024e9190611429565b610ad1565b005b61026f600480360381019061026a919061112b565b610ccf565b005b60605f8060035467ffffffffffffffff81111561029157610290611305565b5b6040519080825280602002602001820160405280156102ca57816020015b6102b7610d18565b8152602001906001900390816102af5790505b5090505f5b6003548110156105045760025f8281526020019081526020015f205f9054906101000a900473ffffffffffffffffffffffffffffffffffffffff16925060015f8473ffffffffffffffffffffffffffffffffffffffff1673ffffffffffffffffffffffffffffffffffffffff1681526020019081526020015f206040518060800160405290815f82018054610363906114de565b80601f016020809104026020016040519081016040528092919081815260200182805461038f906114de565b80156103da5780601f106103b1576101008083540402835291602001916103da565b820191905f5260205f20905b8154815290600101906020018083116103bd57829003601f168201915b505050505081526020016001820180546103f3906114de565b80601f016020809104026020016040519081016040528092919081815260200182805461041f906114de565b801561046a5780601f106104415761010080835404028352916020019161046a565b820191905f5260205f20905b81548152906001019060200180831161044d57829003601f168201915b5050505050815260200160028201548152602001600382018054806020026020016040519081016040528092919081815260200182805480156104ca57602002820191905f5260205f20905b8154815260200190600101908083116104b6575b5050505050815250508282815181106104e6576104e561150e565b5b602002602001018190525080806104fc90611568565b9150506102cf565b50809250505090565b5f8060015f8473ffffffffffffffffffffffffffffffffffffffff1673ffffffffffffffffffffffffffffffffffffffff1681526020019081526020015f205f018054610559906114de565b9050111561056a576001905061056e565b5f90505b919050565b60015f8373ffffffffffffffffffffffffffffffffffffffff1673ffffffffffffffffffffffffffffffffffffffff1681526020019081526020015f2060030181908060018154018082558091505060019003905f5260205f20015f90919091909150555050565b5f60015f8373ffffffffffffffffffffffffffffffffffffffff1673ffffffffffffffffffffffffffffffffffffffff1681526020019081526020015f20600201549050919050565b6002602052805f5260405f205f915054906101000a900473ffffffffffffffffffffffffffffffffffffffff1681565b61065c610d18565b60015f8373ffffffffffffffffffffffffffffffffffffffff1673ffffffffffffffffffffffffffffffffffffffff1681526020019081526020015f206040518060800160405290815f820180546106b3906114de565b80601f01602080910402602001604051908101604052809291908181526020018280546106df906114de565b801561072a5780601f106107015761010080835404028352916020019161072a565b820191905f5260205f20905b81548152906001019060200180831161070d57829003601f168201915b50505050508152602001600182018054610743906114de565b80601f016020809104026020016040519081016040528092919081815260200182805461076f906114de565b80156107ba5780601f10610791576101008083540402835291602001916107ba565b820191905f5260205f20905b81548152906001019060200180831161079d57829003601f168201915b50505050508152602001600282015481526020016003820180548060200260200160405190810160405280929190818152602001828054801561081a57602002820191905f5260205f20905b815481526020019060010190808311610806575b5050505050815250509050919050565b5f8054906101000a900473ffffffffffffffffffffffffffffffffffffffff1681565b6001602052805f5260405f205f91509050805f01805461086c906114de565b80601f0160208091040260200160405190810160405280929190818152602001828054610898906114de565b80156108e35780601f106108ba576101008083540402835291602001916108e3565b820191905f5260205f20905b8154815290600101906020018083116108c657829003601f168201915b5050505050908060010180546108f8906114de565b80601f0160208091040260200160405190810160405280929190818152602001828054610924906114de565b801561096f5780601f106109465761010080835404028352916020019161096f565b820191905f5260205f20905b81548152906001019060200180831161095257829003601f168201915b5050505050908060020154905083565b60035481565b5f60015f8473ffffffffffffffffffffffffffffffffffffffff1673ffffffffffffffffffffffffffffffffffffffff1681526020019081526020015f20600301805480602002602001604051908101604052809291908181526020018280548015610a0e57602002820191905f5260205f20905b8154815260200190600101908083116109fa575b505050505090505f5b8151811015610acb5782828281518110610a3457610a3361150e565b5b602002602001015103610ab8578160018351610a5091906115af565b81518110610a6157610a6061150e565b5b6020026020010151828281518110610a7c57610a7b61150e565b5b6020026020010181815250508160018351610a9791906115af565b81518110610aa857610aa761150e565b5b602002602001015f815250610acb565b8080610ac390611568565b915050610a17565b50505050565b610ada8361050d565b15610b1a576040517f08c379a0000000000000000000000000000000000000000000000000000000008152600401610b1190611652565b60405180910390fd5b60405180608001604052808381526020018281526020015f81526020015f67ffffffffffffffff811115610b5157610b50611305565b5b604051908082528060200260200182016040528015610b7f5781602001602082028036833780820191505090505b5081525060015f8573ffffffffffffffffffffffffffffffffffffffff1673ffffffffffffffffffffffffffffffffffffffff1681526020019081526020015f205f820151815f019081610bd3919061180d565b506020820151816001019081610be9919061180d565b50604082015181600201556060820151816003019080519060200190610c10929190610d3f565b509050506001600354610c2391906118dc565b6003819055508260025f60035481526020019081526020015f205f6101000a81548173ffffffffffffffffffffffffffffffffffffffff021916908373ffffffffffffffffffffffffffffffffffffffff1602179055508273ffffffffffffffffffffffffffffffffffffffff167f6f289fe93e06e036f01b77da15925ec8bc9ab53277b43b06e133fe1a319e70f38383604051610cc292919061190f565b60405180910390a2505050565b8060015f8473ffffffffffffffffffffffffffffffffffffffff1673ffffffffffffffffffffffffffffffffffffffff1681526020019081526020015f20600201819055505050565b604051806080016040528060608152602001606081526020015f8152602001606081525090565b828054828255905f5260205f20908101928215610d79579160200282015b82811115610d78578251825591602001919060010190610d5d565b5b509050610d869190610d8a565b5090565b5b80821115610da1575f815f905550600101610d8b565b5090565b5f81519050919050565b5f82825260208201905092915050565b5f819050602082019050919050565b5f81519050919050565b5f82825260208201905092915050565b5f5b83811015610e05578082015181840152602081019050610dea565b5f8484015250505050565b5f601f19601f8301169050919050565b5f610e2a82610dce565b610e348185610dd8565b9350610e44818560208601610de8565b610e4d81610e10565b840191505092915050565b5f819050919050565b610e6a81610e58565b82525050565b5f81519050919050565b5f82825260208201905092915050565b5f819050602082019050919050565b5f610ea48383610e61565b60208301905092915050565b5f602082019050919050565b5f610ec682610e70565b610ed08185610e7a565b9350610edb83610e8a565b805f5b83811015610f0b578151610ef28882610e99565b9750610efd83610eb0565b925050600181019050610ede565b5085935050505092915050565b5f608083015f8301518482035f860152610f328282610e20565b91505060208301518482036020860152610f4c8282610e20565b9150506040830151610f616040860182610e61565b5060608301518482036060860152610f798282610ebc565b9150508091505092915050565b5f610f918383610f18565b905092915050565b5f602082019050919050565b5f610faf82610da5565b610fb98185610daf565b935083602082028501610fcb85610dbf565b805f5b858110156110065784840389528151610fe78582610f86565b9450610ff283610f99565b925060208a01995050600181019050610fce565b50829750879550505050505092915050565b5f6020820190508181035f8301526110308184610fa5565b905092915050565b5f604051905090565b5f80fd5b5f80fd5b5f73ffffffffffffffffffffffffffffffffffffffff82169050919050565b5f61107282611049565b9050919050565b61108281611068565b811461108c575f80fd5b50565b5f8135905061109d81611079565b92915050565b5f602082840312156110b8576110b7611041565b5b5f6110c58482850161108f565b91505092915050565b5f8115159050919050565b6110e2816110ce565b82525050565b5f6020820190506110fb5f8301846110d9565b92915050565b61110a81610e58565b8114611114575f80fd5b50565b5f8135905061112581611101565b92915050565b5f806040838503121561114157611140611041565b5b5f61114e8582860161108f565b925050602061115f85828601611117565b9150509250929050565b61117281610e58565b82525050565b5f60208201905061118b5f830184611169565b92915050565b5f602082840312156111a6576111a5611041565b5b5f6111b384828501611117565b91505092915050565b6111c581611068565b82525050565b5f6020820190506111de5f8301846111bc565b92915050565b5f608083015f8301518482035f8601526111fe8282610e20565b915050602083015184820360208601526112188282610e20565b915050604083015161122d6040860182610e61565b50606083015184820360608601526112458282610ebc565b9150508091505092915050565b5f6020820190508181035f83015261126a81846111e4565b905092915050565b5f82825260208201905092915050565b5f61128c82610dce565b6112968185611272565b93506112a6818560208601610de8565b6112af81610e10565b840191505092915050565b5f6060820190508181035f8301526112d28186611282565b905081810360208301526112e68185611282565b90506112f56040830184611169565b949350505050565b5f80fd5b5f80fd5b7f4e487b71000000000000000000000000000000000000000000000000000000005f52604160045260245ffd5b61133b82610e10565b810181811067ffffffffffffffff8211171561135a57611359611305565b5b80604052505050565b5f61136c611038565b90506113788282611332565b919050565b5f67ffffffffffffffff82111561139757611396611305565b5b6113a082610e10565b9050602081019050919050565b828183375f83830152505050565b5f6113cd6113c88461137d565b611363565b9050828152602081018484840111156113e9576113e8611301565b5b6113f48482856113ad565b509392505050565b5f82601f8301126114105761140f6112fd565b5b81356114208482602086016113bb565b91505092915050565b5f805f606084860312156114405761143f611041565b5b5f61144d8682870161108f565b935050602084013567ffffffffffffffff81111561146e5761146d611045565b5b61147a868287016113fc565b925050604084013567ffffffffffffffff81111561149b5761149a611045565b5b6114a7868287016113fc565b9150509250925092565b7f4e487b71000000000000000000000000000000000000000000000000000000005f52602260045260245ffd5b5f60028204905060018216806114f557607f821691505b602082108103611508576115076114b1565b5b50919050565b7f4e487b71000000000000000000000000000000000000000000000000000000005f52603260045260245ffd5b7f4e487b71000000000000000000000000000000000000000000000000000000005f52601160045260245ffd5b5f61157282610e58565b91507fffffffffffffffffffffffffffffffffffffffffffffffffffffffffffffffff82036115a4576115a361153b565b5b600182019050919050565b5f6115b982610e58565b91506115c483610e58565b92508282039050818111156115dc576115db61153b565b5b92915050565b7f5573657220776974682074686973206164647265737320616c726561647920655f8201527f7869737473000000000000000000000000000000000000000000000000000000602082015250565b5f61163c602583611272565b9150611647826115e2565b604082019050919050565b5f6020820190508181035f83015261166981611630565b9050919050565b5f819050815f5260205f209050919050565b5f6020601f8301049050919050565b5f82821b905092915050565b5f600883026116cc7fffffffffffffffffffffffffffffffffffffffffffffffffffffffffffffffff82611691565b6116d68683611691565b95508019841693508086168417925050509392505050565b5f819050919050565b5f61171161170c61170784610e58565b6116ee565b610e58565b9050919050565b5f819050919050565b61172a836116f7565b61173e61173682611718565b84845461169d565b825550505050565b5f90565b611752611746565b61175d818484611721565b505050565b5b81811015611780576117755f8261174a565b600181019050611763565b5050565b601f8211156117c55761179681611670565b61179f84611682565b810160208510156117ae578190505b6117c26117ba85611682565b830182611762565b50505b505050565b5f82821c905092915050565b5f6117e55f19846008026117ca565b1980831691505092915050565b5f6117fd83836117d6565b9150826002028217905092915050565b61181682610dce565b67ffffffffffffffff81111561182f5761182e611305565b5b61183982546114de565b611844828285611784565b5f60209050601f831160018114611875575f8415611863578287015190505b61186d85826117f2565b8655506118d4565b601f19841661188386611670565b5f5b828110156118aa57848901518255600182019150602085019450602081019050611885565b868310156118c757848901516118c3601f8916826117d6565b8355505b6001600288020188555050505b505050505050565b5f6118e682610e58565b91506118f183610e58565b92508282019050808211156119095761190861153b565b5b92915050565b5f6040820190508181035f8301526119278185611282565b9050818103602083015261193b8184611282565b9050939250505056fea26469706673582212209aca278283505a045de567b8afcc8a84101f51b03a5686c1b9a973b0acfd30af64736f6c63430008140033a26469706673582212204e4d44fa0ef73ae484d80a8ba3857b780ba22dd4a0c823e0e212d7b9c5c7eec964736f6c63430008140033",
  "immutableReferences": {},
  "source": "// SPDX-License-Identifier: GPL-3.0\r\npragma solidity >=0.4.16 <0.9.0;\r\n\r\nimport \"./library.sol\";\r\n\r\ncontract LibraryContractFactory {\r\n    mapping(uint256 => address) public libraries;\r\n    // Maps a unique integer to the library address\r\n\r\n    uint256 public totalLibraries = 0;\r\n    // Keeps track of the total number of libraries created by this contract\r\n\r\n    event LibraryCreated(\r\n        address indexed libraryAddress,\r\n        uint256 indexed libraryId,\r\n        string name,\r\n        string location,\r\n        string email,\r\n        string phone,\r\n        uint256 maxholds\r\n    );\r\n\r\n    function createLibrary(\r\n        string memory name,\r\n        string memory location,\r\n        string memory email,\r\n        string memory phone,\r\n        uint256 maxholds\r\n    ) public {\r\n        // Deploy a new instance of the Library contract\r\n        Library newLibrary = new Library(\r\n            name,\r\n            location,\r\n            email,\r\n            phone,\r\n            maxholds\r\n        );\r\n        // Store the library address mapped to its unique address in this contract\r\n        totalLibraries = totalLibraries + 1;\r\n        libraries[totalLibraries] = address(newLibrary);\r\n        // Emit an event to notify the creation of a new library\r\n        emit LibraryCreated(\r\n            address(newLibrary),\r\n            totalLibraries,\r\n            name,\r\n            location,\r\n            email,\r\n            phone,\r\n            maxholds\r\n        );\r\n    }\r\n\r\n    function getLibraryAddress(\r\n        uint256 library_id\r\n    ) public view returns (address) {\r\n        // Retrieve the library address for the calling customer\r\n        return libraries[library_id];\r\n    }\r\n\r\n    function getTotalLibraries() public view returns (uint256) {\r\n        // Retrieve the total number of libraries created by this contract\r\n        return totalLibraries;\r\n    }\r\n}\r\n",
  "sourcePath": "C:\\Users\\DELL\\Desktop\\Side Projects\\Librarium\\contracts\\libraryContractFactory.sol",
  "compiler": {
    "name": "solc",
    "version": "0.8.20+commit.a1b79de6.Emscripten.clang"
  },
  "schemaVersion": "3.4.14",
  "updatedAt": "2023-06-08T06:30:19.013Z",
  "networkType": "ethereum",
  "devdoc": {
    "kind": "dev",
    "methods": {},
    "version": 1
  },
  "userdoc": {
    "kind": "user",
    "methods": {},
    "version": 1
  }
}