{
  "contractName": "Library",
  "abi": [
    {
      "inputs": [
        {
          "internalType": "address",
          "name": "_bookTokenAddress",
          "type": "address"
        },
        {
          "internalType": "address",
          "name": "_userAddress",
          "type": "address"
        }
      ],
      "stateMutability": "nonpayable",
      "type": "constructor"
    },
    {
      "anonymous": false,
      "inputs": [
        {
          "indexed": true,
          "internalType": "address",
          "name": "_borrower",
          "type": "address"
        },
        {
          "indexed": true,
          "internalType": "uint256",
          "name": "_bookId",
          "type": "uint256"
        }
      ],
      "name": "bookBorrowed",
      "type": "event"
    },
    {
      "anonymous": false,
      "inputs": [
        {
          "indexed": true,
          "internalType": "address",
          "name": "_borrower",
          "type": "address"
        },
        {
          "indexed": true,
          "internalType": "uint256",
          "name": "_bookId",
          "type": "uint256"
        }
      ],
      "name": "bookReturned",
      "type": "event"
    },
    {
      "inputs": [
        {
          "internalType": "address",
          "name": "",
          "type": "address"
        }
      ],
      "name": "bookBalance",
      "outputs": [
        {
          "internalType": "uint256",
          "name": "",
          "type": "uint256"
        }
      ],
      "stateMutability": "view",
      "type": "function"
    },
    {
      "inputs": [],
      "name": "bookTokenContract",
      "outputs": [
        {
          "internalType": "contract bookToken",
          "name": "",
          "type": "address"
        }
      ],
      "stateMutability": "view",
      "type": "function"
    },
    {
      "inputs": [
        {
          "internalType": "address",
          "name": "",
          "type": "address"
        },
        {
          "internalType": "uint256",
          "name": "",
          "type": "uint256"
        }
      ],
      "name": "booksIssued",
      "outputs": [
        {
          "internalType": "bool",
          "name": "",
          "type": "bool"
        }
      ],
      "stateMutability": "view",
      "type": "function"
    },
    {
      "inputs": [],
      "name": "userContract",
      "outputs": [
        {
          "internalType": "contract user",
          "name": "",
          "type": "address"
        }
      ],
      "stateMutability": "view",
      "type": "function"
    },
    {
      "inputs": [
        {
          "internalType": "address",
          "name": "_userAddress",
          "type": "address"
        },
        {
          "internalType": "string",
          "name": "name",
          "type": "string"
        },
        {
          "internalType": "string",
          "name": "email",
          "type": "string"
        }
      ],
      "name": "registerUser",
      "outputs": [],
      "stateMutability": "nonpayable",
      "type": "function"
    },
    {
      "inputs": [
        {
          "internalType": "address",
          "name": "_userAddress",
          "type": "address"
        }
      ],
      "name": "getUserDetails",
      "outputs": [
        {
          "components": [
            {
              "internalType": "string",
              "name": "name",
              "type": "string"
            },
            {
              "internalType": "string",
              "name": "email",
              "type": "string"
            },
            {
              "internalType": "uint256",
              "name": "bookBalance",
              "type": "uint256"
            },
            {
              "internalType": "uint256[]",
              "name": "borrowedBooks",
              "type": "uint256[]"
            }
          ],
          "internalType": "struct user.User",
          "name": "",
          "type": "tuple"
        }
      ],
      "stateMutability": "view",
      "type": "function"
    },
    {
      "inputs": [
        {
          "internalType": "uint256",
          "name": "_bookId",
          "type": "uint256"
        },
        {
          "internalType": "uint256",
          "name": "_copies",
          "type": "uint256"
        }
      ],
      "name": "addCopies",
      "outputs": [],
      "stateMutability": "nonpayable",
      "type": "function"
    },
    {
      "inputs": [
        {
          "internalType": "uint256",
          "name": "_bookId",
          "type": "uint256"
        }
      ],
      "name": "bookBorrow",
      "outputs": [],
      "stateMutability": "nonpayable",
      "type": "function"
    },
    {
      "inputs": [
        {
          "internalType": "uint256",
          "name": "_bookId",
          "type": "uint256"
        }
      ],
      "name": "returnBook",
      "outputs": [],
      "stateMutability": "nonpayable",
      "type": "function"
    },
    {
      "inputs": [],
      "name": "getBorrwedBooks",
      "outputs": [
        {
          "internalType": "uint256[]",
          "name": "",
          "type": "uint256[]"
        }
      ],
      "stateMutability": "view",
      "type": "function"
    }
  ],
  "bytecode": "0x608060405234801562000010575f80fd5b5060405162001a4638038062001a468339818101604052810190620000369190620001c1565b815f806101000a81548173ffffffffffffffffffffffffffffffffffffffff021916908373ffffffffffffffffffffffffffffffffffffffff1602179055505f8054906101000a900473ffffffffffffffffffffffffffffffffffffffff1660025f6101000a81548173ffffffffffffffffffffffffffffffffffffffff021916908373ffffffffffffffffffffffffffffffffffffffff1602179055508060015f6101000a81548173ffffffffffffffffffffffffffffffffffffffff021916908373ffffffffffffffffffffffffffffffffffffffff1602179055508060035f6101000a81548173ffffffffffffffffffffffffffffffffffffffff021916908373ffffffffffffffffffffffffffffffffffffffff160217905550505062000206565b5f80fd5b5f73ffffffffffffffffffffffffffffffffffffffff82169050919050565b5f6200018b8262000160565b9050919050565b6200019d816200017f565b8114620001a8575f80fd5b50565b5f81519050620001bb8162000192565b92915050565b5f8060408385031215620001da57620001d96200015c565b5b5f620001e985828601620001ab565b9250506020620001fc85828601620001ab565b9150509250929050565b61183280620002145f395ff3fe608060405234801561000f575f80fd5b506004361061009c575f3560e01c8063c0d0198911610064578063c0d019891461015a578063ca5140c914610176578063cc3d967b14610192578063db0c87c9146101c2578063e21ce12e146101de5761009c565b80635000596b146100a05780635e8f58f4146100be5780635fd3f129146100ee57806384bedc111461010c5780638be9270b1461013c575b5f80fd5b6100a86101fa565b6040516100b59190610ba9565b60405180910390f35b6100d860048036038101906100d39190610c0e565b61021f565b6040516100e59190610c51565b60405180910390f35b6100f6610234565b6040516101039190610c8a565b60405180910390f35b61012660048036038101906101219190610ccd565b610259565b6040516101339190610d25565b60405180910390f35b610144610283565b6040516101519190610df5565b60405180910390f35b610174600480360381019061016f9190610e15565b610458565b005b610190600480360381019061018b9190610e53565b6105bd565b005b6101ac60048036038101906101a79190610c0e565b610758565b6040516101b99190610fe2565b60405180910390f35b6101dc60048036038101906101d7919061112e565b610803565b005b6101f860048036038101906101f39190610e53565b610893565b005b60035f9054906101000a900473ffffffffffffffffffffffffffffffffffffffff1681565b6004602052805f5260405f205f915090505481565b60025f9054906101000a900473ffffffffffffffffffffffffffffffffffffffff1681565b6005602052815f5260405f20602052805f5260405f205f915091509054906101000a900460ff1681565b60605f60045f3373ffffffffffffffffffffffffffffffffffffffff1673ffffffffffffffffffffffffffffffffffffffff1681526020019081526020015f205467ffffffffffffffff8111156102dd576102dc61100a565b5b60405190808252806020026020018201604052801561030b5781602001602082028036833780820191505090505b5090505f80600190505b60025f9054906101000a900473ffffffffffffffffffffffffffffffffffffffff1673ffffffffffffffffffffffffffffffffffffffff16636ec4f4bf6040518163ffffffff1660e01b8152600401602060405180830381865afa15801561037f573d5f803e3d5ffd5b505050506040513d601f19601f820116820180604052508101906103a391906111ca565b811161044f576001151560055f3373ffffffffffffffffffffffffffffffffffffffff1673ffffffffffffffffffffffffffffffffffffffff1681526020019081526020015f205f8381526020019081526020015f205f9054906101000a900460ff1615150361043c5780838381518110610421576104206111f5565b5b60200260200101818152505081806104389061124f565b9250505b80806104479061124f565b915050610315565b50819250505090565b60025f9054906101000a900473ffffffffffffffffffffffffffffffffffffffff1673ffffffffffffffffffffffffffffffffffffffff1663a42a23d2836040518263ffffffff1660e01b81526004016104b29190610c51565b602060405180830381865afa1580156104cd573d5f803e3d5ffd5b505050506040513d601f19601f820116820180604052508101906104f191906112c0565b610530576040517f08c379a000000000000000000000000000000000000000000000000000000000815260040161052790611345565b60405180910390fd5b60025f9054906101000a900473ffffffffffffffffffffffffffffffffffffffff1673ffffffffffffffffffffffffffffffffffffffff1663c0d0198983836040518363ffffffff1660e01b815260040161058c929190611363565b5f604051808303815f87803b1580156105a3575f80fd5b505af11580156105b5573d5f803e3d5ffd5b505050505050565b6001151560055f3373ffffffffffffffffffffffffffffffffffffffff1673ffffffffffffffffffffffffffffffffffffffff1681526020019081526020015f205f8381526020019081526020015f205f9054906101000a900460ff1615151461065c576040517f08c379a0000000000000000000000000000000000000000000000000000000008152600401610653906113d4565b60405180910390fd5b60045f3373ffffffffffffffffffffffffffffffffffffffff1673ffffffffffffffffffffffffffffffffffffffff1681526020019081526020015f205f8154809291906106a9906113f2565b91905055505f60055f3373ffffffffffffffffffffffffffffffffffffffff1673ffffffffffffffffffffffffffffffffffffffff1681526020019081526020015f205f8381526020019081526020015f205f6101000a81548160ff021916908315150217905550803373ffffffffffffffffffffffffffffffffffffffff167fbbab87c695fff7c1e615b3bbd9c293ca0151241ae23d6aded792820ebfb82b2b60405160405180910390a350565b610760610b08565b60035f9054906101000a900473ffffffffffffffffffffffffffffffffffffffff1673ffffffffffffffffffffffffffffffffffffffff16636f77926b836040518263ffffffff1660e01b81526004016107ba9190611428565b5f60405180830381865afa1580156107d4573d5f803e3d5ffd5b505050506040513d5f823e3d601f19601f820116820180604052508101906107fc9190611644565b9050919050565b60035f9054906101000a900473ffffffffffffffffffffffffffffffffffffffff1673ffffffffffffffffffffffffffffffffffffffff1663db0c87c98484846040518463ffffffff1660e01b8152600401610861939291906116c3565b5f604051808303815f87803b158015610878575f80fd5b505af115801561088a573d5f803e3d5ffd5b50505050505050565b5f60025f9054906101000a900473ffffffffffffffffffffffffffffffffffffffff1673ffffffffffffffffffffffffffffffffffffffff1663ffc1c2e6836040518263ffffffff1660e01b81526004016108ee9190610c51565b602060405180830381865afa158015610909573d5f803e3d5ffd5b505050506040513d601f19601f8201168201806040525081019061092d91906111ca565b1161096d576040517f08c379a000000000000000000000000000000000000000000000000000000000815260040161096490611750565b60405180910390fd5b5f151560055f3373ffffffffffffffffffffffffffffffffffffffff1673ffffffffffffffffffffffffffffffffffffffff1681526020019081526020015f205f8381526020019081526020015f205f9054906101000a900460ff16151514610a0b576040517f08c379a0000000000000000000000000000000000000000000000000000000008152600401610a02906117de565b60405180910390fd5b60045f3373ffffffffffffffffffffffffffffffffffffffff1673ffffffffffffffffffffffffffffffffffffffff1681526020019081526020015f205f815480929190610a589061124f565b9190505550600160055f3373ffffffffffffffffffffffffffffffffffffffff1673ffffffffffffffffffffffffffffffffffffffff1681526020019081526020015f205f8381526020019081526020015f205f6101000a81548160ff021916908315150217905550803373ffffffffffffffffffffffffffffffffffffffff167fa72a25288e5e7c2bef56ad47aa60fb25f4da2948f9b3fa603c97dc4cfc8fe1b860405160405180910390a350565b604051806080016040528060608152602001606081526020015f8152602001606081525090565b5f73ffffffffffffffffffffffffffffffffffffffff82169050919050565b5f819050919050565b5f610b71610b6c610b6784610b2f565b610b4e565b610b2f565b9050919050565b5f610b8282610b57565b9050919050565b5f610b9382610b78565b9050919050565b610ba381610b89565b82525050565b5f602082019050610bbc5f830184610b9a565b92915050565b5f604051905090565b5f80fd5b5f80fd5b5f610bdd82610b2f565b9050919050565b610bed81610bd3565b8114610bf7575f80fd5b50565b5f81359050610c0881610be4565b92915050565b5f60208284031215610c2357610c22610bcb565b5b5f610c3084828501610bfa565b91505092915050565b5f819050919050565b610c4b81610c39565b82525050565b5f602082019050610c645f830184610c42565b92915050565b5f610c7482610b78565b9050919050565b610c8481610c6a565b82525050565b5f602082019050610c9d5f830184610c7b565b92915050565b610cac81610c39565b8114610cb6575f80fd5b50565b5f81359050610cc781610ca3565b92915050565b5f8060408385031215610ce357610ce2610bcb565b5b5f610cf085828601610bfa565b9250506020610d0185828601610cb9565b9150509250929050565b5f8115159050919050565b610d1f81610d0b565b82525050565b5f602082019050610d385f830184610d16565b92915050565b5f81519050919050565b5f82825260208201905092915050565b5f819050602082019050919050565b610d7081610c39565b82525050565b5f610d818383610d67565b60208301905092915050565b5f602082019050919050565b5f610da382610d3e565b610dad8185610d48565b9350610db883610d58565b805f5b83811015610de8578151610dcf8882610d76565b9750610dda83610d8d565b925050600181019050610dbb565b5085935050505092915050565b5f6020820190508181035f830152610e0d8184610d99565b905092915050565b5f8060408385031215610e2b57610e2a610bcb565b5b5f610e3885828601610cb9565b9250506020610e4985828601610cb9565b9150509250929050565b5f60208284031215610e6857610e67610bcb565b5b5f610e7584828501610cb9565b91505092915050565b5f81519050919050565b5f82825260208201905092915050565b5f5b83811015610eb5578082015181840152602081019050610e9a565b5f8484015250505050565b5f601f19601f8301169050919050565b5f610eda82610e7e565b610ee48185610e88565b9350610ef4818560208601610e98565b610efd81610ec0565b840191505092915050565b5f82825260208201905092915050565b5f610f2282610d3e565b610f2c8185610f08565b9350610f3783610d58565b805f5b83811015610f67578151610f4e8882610d76565b9750610f5983610d8d565b925050600181019050610f3a565b5085935050505092915050565b5f608083015f8301518482035f860152610f8e8282610ed0565b91505060208301518482036020860152610fa88282610ed0565b9150506040830151610fbd6040860182610d67565b5060608301518482036060860152610fd58282610f18565b9150508091505092915050565b5f6020820190508181035f830152610ffa8184610f74565b905092915050565b5f80fd5b5f80fd5b7f4e487b71000000000000000000000000000000000000000000000000000000005f52604160045260245ffd5b61104082610ec0565b810181811067ffffffffffffffff8211171561105f5761105e61100a565b5b80604052505050565b5f611071610bc2565b905061107d8282611037565b919050565b5f67ffffffffffffffff82111561109c5761109b61100a565b5b6110a582610ec0565b9050602081019050919050565b828183375f83830152505050565b5f6110d26110cd84611082565b611068565b9050828152602081018484840111156110ee576110ed611006565b5b6110f98482856110b2565b509392505050565b5f82601f83011261111557611114611002565b5b81356111258482602086016110c0565b91505092915050565b5f805f6060848603121561114557611144610bcb565b5b5f61115286828701610bfa565b935050602084013567ffffffffffffffff81111561117357611172610bcf565b5b61117f86828701611101565b925050604084013567ffffffffffffffff8111156111a05761119f610bcf565b5b6111ac86828701611101565b9150509250925092565b5f815190506111c481610ca3565b92915050565b5f602082840312156111df576111de610bcb565b5b5f6111ec848285016111b6565b91505092915050565b7f4e487b71000000000000000000000000000000000000000000000000000000005f52603260045260245ffd5b7f4e487b71000000000000000000000000000000000000000000000000000000005f52601160045260245ffd5b5f61125982610c39565b91507fffffffffffffffffffffffffffffffffffffffffffffffffffffffffffffffff820361128b5761128a611222565b5b600182019050919050565b61129f81610d0b565b81146112a9575f80fd5b50565b5f815190506112ba81611296565b92915050565b5f602082840312156112d5576112d4610bcb565b5b5f6112e2848285016112ac565b91505092915050565b5f82825260208201905092915050565b7f4164642074686520626f6f6b20666972737400000000000000000000000000005f82015250565b5f61132f6012836112eb565b915061133a826112fb565b602082019050919050565b5f6020820190508181035f83015261135c81611323565b9050919050565b5f6040820190506113765f830185610c42565b6113836020830184610c42565b9392505050565b7f426f6f6b20686173206e6f74206265656e2069737375656420627920796f75005f82015250565b5f6113be601f836112eb565b91506113c98261138a565b602082019050919050565b5f6020820190508181035f8301526113eb816113b2565b9050919050565b5f6113fc82610c39565b91505f820361140e5761140d611222565b5b600182039050919050565b61142281610bd3565b82525050565b5f60208201905061143b5f830184611419565b92915050565b5f80fd5b5f80fd5b5f61145b61145684611082565b611068565b90508281526020810184848401111561147757611476611006565b5b611482848285610e98565b509392505050565b5f82601f83011261149e5761149d611002565b5b81516114ae848260208601611449565b91505092915050565b5f67ffffffffffffffff8211156114d1576114d061100a565b5b602082029050602081019050919050565b5f80fd5b5f6114f86114f3846114b7565b611068565b9050808382526020820190506020840283018581111561151b5761151a6114e2565b5b835b81811015611544578061153088826111b6565b84526020840193505060208101905061151d565b5050509392505050565b5f82601f83011261156257611561611002565b5b81516115728482602086016114e6565b91505092915050565b5f608082840312156115905761158f611441565b5b61159a6080611068565b90505f82015167ffffffffffffffff8111156115b9576115b8611445565b5b6115c58482850161148a565b5f83015250602082015167ffffffffffffffff8111156115e8576115e7611445565b5b6115f48482850161148a565b6020830152506040611608848285016111b6565b604083015250606082015167ffffffffffffffff81111561162c5761162b611445565b5b6116388482850161154e565b60608301525092915050565b5f6020828403121561165957611658610bcb565b5b5f82015167ffffffffffffffff81111561167657611675610bcf565b5b6116828482850161157b565b91505092915050565b5f61169582610e7e565b61169f81856112eb565b93506116af818560208601610e98565b6116b881610ec0565b840191505092915050565b5f6060820190506116d65f830186611419565b81810360208301526116e8818561168b565b905081810360408301526116fc818461168b565b9050949350505050565b7f426f6f6b20646f6573206e6f74206578697374000000000000000000000000005f82015250565b5f61173a6013836112eb565b915061174582611706565b602082019050919050565b5f6020820190508181035f8301526117678161172e565b9050919050565b7f426f6f6b2068617320616c7265616479206265656e20697373756564206279205f8201527f796f750000000000000000000000000000000000000000000000000000000000602082015250565b5f6117c86023836112eb565b91506117d38261176e565b604082019050919050565b5f6020820190508181035f8301526117f5816117bc565b905091905056fea2646970667358221220a22b2975d96c6113621370e764a788d85fa241e41896a1afddb37cfde8637a7464736f6c63430008140033",
  "immutableReferences": {},
  "source": "// SPDX-License-Identifier: GPL-3.0\r\npragma solidity >=0.4.16 <0.9.0;\r\n\r\nimport \"./bookToken.sol\";\r\nimport \"./user.sol\";\r\n\r\ncontract Library {\r\n    address private bookTokenAddress;\r\n    address private userAddress;\r\n    //The purpose of bookTokenAddress is to store the address of the bookToken contract.\r\n    bookToken public bookTokenContract;\r\n    user public userContract;\r\n\r\n    constructor(address _bookTokenAddress, address _userAddress) {\r\n        bookTokenAddress = _bookTokenAddress;\r\n        bookTokenContract = bookToken(bookTokenAddress);\r\n        // This is how we can access the functions of the bookToken contract.\r\n        userAddress = _userAddress;\r\n        userContract = user(_userAddress);\r\n        // This is how we can access the functions of the user contract.\r\n    }\r\n\r\n    mapping(address => uint256) public bookBalance;\r\n    mapping(address => mapping(uint256 => bool)) public booksIssued;\r\n\r\n    event bookBorrowed(address indexed _borrower, uint256 indexed _bookId);\r\n    event bookReturned(address indexed _borrower, uint256 indexed _bookId);\r\n\r\n    function registerUser(\r\n        address _userAddress,\r\n        string memory name,\r\n        string memory email\r\n    ) public {\r\n        userContract.registerUser(_userAddress, name, email);\r\n    }\r\n\r\n    function getUserDetails(\r\n        address _userAddress\r\n    ) public view returns (user.User memory) {\r\n        return userContract.getUser(_userAddress);\r\n    }\r\n\r\n    function addCopies(uint256 _bookId, uint256 _copies) public {\r\n        require(\r\n            bookTokenContract.isBookAvailable(_bookId),\r\n            \"Add the book first\"\r\n        );\r\n\r\n        bookTokenContract.addCopies(_bookId, _copies);\r\n    }\r\n\r\n    function bookBorrow(uint256 _bookId) public {\r\n        require(\r\n            bookTokenContract.getBookCopies(_bookId) > 0,\r\n            \"Book does not exist\"\r\n        );\r\n\r\n        require(\r\n            booksIssued[msg.sender][_bookId] == false,\r\n            \"Book has already been issued by you\"\r\n        );\r\n\r\n        bookBalance[msg.sender]++;\r\n        booksIssued[msg.sender][_bookId] = true;\r\n\r\n        emit bookBorrowed(msg.sender, _bookId);\r\n    }\r\n\r\n    function returnBook(uint256 _bookId) public {\r\n        require(\r\n            booksIssued[msg.sender][_bookId] == true,\r\n            \"Book has not been issued by you\"\r\n        );\r\n\r\n        bookBalance[msg.sender]--;\r\n        booksIssued[msg.sender][_bookId] = false;\r\n\r\n        emit bookReturned(msg.sender, _bookId);\r\n    }\r\n\r\n    function getBorrwedBooks() public view returns (uint256[] memory) {\r\n        uint256[] memory bookIds = new uint256[](bookBalance[msg.sender]);\r\n        uint256 count = 0;\r\n\r\n        for (uint256 i = 1; i <= bookTokenContract.totalBooks(); i++) {\r\n            if (booksIssued[msg.sender][i] == true) {\r\n                bookIds[count] = i;\r\n                count++;\r\n            }\r\n        }\r\n\r\n        return bookIds;\r\n    }\r\n\r\n    // The booksIssued mapping can only take boolean values for whether the user already holds a particular copy of the title.\r\n    // This functionality is used in bookBorrow, bookReturned and getBorrowedBooks functions.\r\n}\r\n",
  "sourcePath": "C:\\Users\\DELL\\Desktop\\Side Projects\\Librarium\\contracts\\library.sol",
  "compiler": {
    "name": "solc",
    "version": "0.8.20+commit.a1b79de6.Emscripten.clang"
  },
  "schemaVersion": "3.4.14",
  "updatedAt": "2023-05-24T07:51:40.060Z",
  "devdoc": {
    "kind": "dev",
    "methods": {},
    "version": 1
  },
  "userdoc": {
    "kind": "user",
    "methods": {},
    "version": 1
  }
}