{
  "contractName": "Library",
  "abi": [
    {
      "inputs": [
        {
          "internalType": "uint256",
          "name": "_maxHolds",
          "type": "uint256"
        }
      ],
      "stateMutability": "nonpayable",
      "type": "constructor"
    },
    {
      "anonymous": false,
      "inputs": [
        {
          "indexed": true,
          "internalType": "address",
          "name": "_borrower",
          "type": "address"
        },
        {
          "indexed": true,
          "internalType": "uint256",
          "name": "_bookId",
          "type": "uint256"
        },
        {
          "indexed": false,
          "internalType": "uint256",
          "name": "_bookBalance",
          "type": "uint256"
        }
      ],
      "name": "bookBorrowed",
      "type": "event"
    },
    {
      "anonymous": false,
      "inputs": [
        {
          "indexed": true,
          "internalType": "address",
          "name": "_borrower",
          "type": "address"
        },
        {
          "indexed": true,
          "internalType": "uint256",
          "name": "_bookId",
          "type": "uint256"
        },
        {
          "indexed": true,
          "internalType": "uint256",
          "name": "_bookBalance",
          "type": "uint256"
        }
      ],
      "name": "bookReturned",
      "type": "event"
    },
    {
      "inputs": [
        {
          "internalType": "address",
          "name": "",
          "type": "address"
        }
      ],
      "name": "bookBalance",
      "outputs": [
        {
          "internalType": "uint256",
          "name": "",
          "type": "uint256"
        }
      ],
      "stateMutability": "view",
      "type": "function"
    },
    {
      "inputs": [],
      "name": "bookTokenContract",
      "outputs": [
        {
          "internalType": "contract bookToken",
          "name": "",
          "type": "address"
        }
      ],
      "stateMutability": "view",
      "type": "function"
    },
    {
      "inputs": [
        {
          "internalType": "address",
          "name": "",
          "type": "address"
        },
        {
          "internalType": "uint256",
          "name": "",
          "type": "uint256"
        }
      ],
      "name": "booksIssued",
      "outputs": [
        {
          "internalType": "bool",
          "name": "",
          "type": "bool"
        }
      ],
      "stateMutability": "view",
      "type": "function"
    },
    {
      "inputs": [],
      "name": "userContract",
      "outputs": [
        {
          "internalType": "contract user",
          "name": "",
          "type": "address"
        }
      ],
      "stateMutability": "view",
      "type": "function"
    },
    {
      "inputs": [
        {
          "internalType": "address",
          "name": "_userAddress",
          "type": "address"
        }
      ],
      "name": "getbookBalance",
      "outputs": [
        {
          "internalType": "uint256",
          "name": "",
          "type": "uint256"
        }
      ],
      "stateMutability": "view",
      "type": "function"
    },
    {
      "inputs": [
        {
          "internalType": "address",
          "name": "_userAddress",
          "type": "address"
        },
        {
          "internalType": "string",
          "name": "name",
          "type": "string"
        },
        {
          "internalType": "string",
          "name": "email",
          "type": "string"
        }
      ],
      "name": "registerUser",
      "outputs": [],
      "stateMutability": "nonpayable",
      "type": "function"
    },
    {
      "inputs": [
        {
          "internalType": "address",
          "name": "_userAddress",
          "type": "address"
        }
      ],
      "name": "getUserDetails",
      "outputs": [
        {
          "components": [
            {
              "internalType": "string",
              "name": "name",
              "type": "string"
            },
            {
              "internalType": "string",
              "name": "email",
              "type": "string"
            },
            {
              "internalType": "uint256",
              "name": "bookBalance",
              "type": "uint256"
            },
            {
              "internalType": "uint256[]",
              "name": "borrowedBooks",
              "type": "uint256[]"
            }
          ],
          "internalType": "struct user.User",
          "name": "",
          "type": "tuple"
        }
      ],
      "stateMutability": "view",
      "type": "function"
    },
    {
      "inputs": [
        {
          "internalType": "address",
          "name": "_userAddress",
          "type": "address"
        },
        {
          "internalType": "uint256",
          "name": "_balance",
          "type": "uint256"
        }
      ],
      "name": "updateUserBalance",
      "outputs": [],
      "stateMutability": "nonpayable",
      "type": "function"
    },
    {
      "inputs": [
        {
          "internalType": "uint256",
          "name": "_bookId",
          "type": "uint256"
        },
        {
          "internalType": "uint256",
          "name": "_copies",
          "type": "uint256"
        }
      ],
      "name": "addCopies",
      "outputs": [],
      "stateMutability": "nonpayable",
      "type": "function"
    },
    {
      "inputs": [
        {
          "internalType": "address",
          "name": "_userAddress",
          "type": "address"
        },
        {
          "internalType": "uint256",
          "name": "_bookId",
          "type": "uint256"
        }
      ],
      "name": "bookBorrow",
      "outputs": [],
      "stateMutability": "nonpayable",
      "type": "function"
    },
    {
      "inputs": [
        {
          "internalType": "address",
          "name": "_userAddress",
          "type": "address"
        },
        {
          "internalType": "uint256",
          "name": "_bookId",
          "type": "uint256"
        }
      ],
      "name": "bookReturn",
      "outputs": [],
      "stateMutability": "nonpayable",
      "type": "function"
    },
    {
      "inputs": [
        {
          "internalType": "address",
          "name": "_address",
          "type": "address"
        }
      ],
      "name": "getBorrowedBooks",
      "outputs": [
        {
          "internalType": "uint256[]",
          "name": "",
          "type": "uint256[]"
        }
      ],
      "stateMutability": "view",
      "type": "function"
    }
  ],
  "bytecode": "0x608060405234801562000010575f80fd5b5060405162004f0c38038062004f0c83398181016040528101906200003691906200022d565b6040516200004490620001d5565b604051809103905ff0801580156200005e573d5f803e3d5ffd5b5060025f6101000a81548173ffffffffffffffffffffffffffffffffffffffff021916908373ffffffffffffffffffffffffffffffffffffffff16021790555060025f9054906101000a900473ffffffffffffffffffffffffffffffffffffffff165f806101000a81548173ffffffffffffffffffffffffffffffffffffffff021916908373ffffffffffffffffffffffffffffffffffffffff1602179055506040516200010c90620001e3565b604051809103905ff08015801562000126573d5f803e3d5ffd5b5060035f6101000a81548173ffffffffffffffffffffffffffffffffffffffff021916908373ffffffffffffffffffffffffffffffffffffffff16021790555060035f9054906101000a900473ffffffffffffffffffffffffffffffffffffffff1660015f6101000a81548173ffffffffffffffffffffffffffffffffffffffff021916908373ffffffffffffffffffffffffffffffffffffffff16021790555080600481905550506200025d565b6113e0806200219183390190565b61199b806200357183390190565b5f80fd5b5f819050919050565b6200020981620001f5565b811462000214575f80fd5b50565b5f815190506200022781620001fe565b92915050565b5f60208284031215620002455762000244620001f1565b5b5f620002548482850162000217565b91505092915050565b611f26806200026b5f395ff3fe608060405234801561000f575f80fd5b50600436106100b2575f3560e01c80638f45ffd31161006f5780638f45ffd31461019e578063c0d01989146101ba578063cc3d967b146101d6578063db0c87c914610206578063ee92f96b14610222578063fc5ba4861461023e576100b2565b806337eb8fd0146100b65780635000596b146100e65780635e8f58f4146101045780635eba6e47146101345780635fd3f1291461015057806384bedc111461016e575b5f80fd5b6100d060048036038101906100cb919061115d565b61026e565b6040516100dd9190611248565b60405180910390f35b6100ee61040a565b6040516100fb91906112c3565b60405180910390f35b61011e6004803603810190610119919061115d565b61042f565b60405161012b91906112eb565b60405180910390f35b61014e6004803603810190610149919061132e565b610444565b005b6101586104d1565b604051610165919061138c565b60405180910390f35b6101886004803603810190610183919061132e565b6104f6565b60405161019591906113bf565b60405180910390f35b6101b860048036038101906101b3919061132e565b610520565b005b6101d460048036038101906101cf91906113d8565b610a3c565b005b6101f060048036038101906101eb919061115d565b610ba1565b6040516101fd919061157a565b60405180910390f35b610220600480360381019061021b91906116c6565b610c4c565b005b61023c6004803603810190610237919061132e565b610cdc565b005b6102586004803603810190610253919061115d565b611085565b60405161026591906112eb565b60405180910390f35b60605f60045467ffffffffffffffff81111561028d5761028c6115a2565b5b6040519080825280602002602001820160405280156102bb5781602001602082028036833780820191505090505b5090505f80600190505b60025f9054906101000a900473ffffffffffffffffffffffffffffffffffffffff1673ffffffffffffffffffffffffffffffffffffffff16636ec4f4bf6040518163ffffffff1660e01b8152600401602060405180830381865afa15801561032f573d5f803e3d5ffd5b505050506040513d601f19601f820116820180604052508101906103539190611762565b81116103ff576001151560065f8773ffffffffffffffffffffffffffffffffffffffff1673ffffffffffffffffffffffffffffffffffffffff1681526020019081526020015f205f8381526020019081526020015f205f9054906101000a900460ff161515036103ec57808383815181106103d1576103d061178d565b5b60200260200101818152505081806103e8906117e7565b9250505b80806103f7906117e7565b9150506102c5565b508192505050919050565b60035f9054906101000a900473ffffffffffffffffffffffffffffffffffffffff1681565b6005602052805f5260405f205f915090505481565b60035f9054906101000a900473ffffffffffffffffffffffffffffffffffffffff1673ffffffffffffffffffffffffffffffffffffffff1663fe17770083836040518363ffffffff1660e01b81526004016104a092919061183d565b5f604051808303815f87803b1580156104b7575f80fd5b505af11580156104c9573d5f803e3d5ffd5b505050505050565b60025f9054906101000a900473ffffffffffffffffffffffffffffffffffffffff1681565b6006602052815f5260405f20602052805f5260405f205f915091509054906101000a900460ff1681565b60025f9054906101000a900473ffffffffffffffffffffffffffffffffffffffff1673ffffffffffffffffffffffffffffffffffffffff1663a42a23d2826040518263ffffffff1660e01b815260040161057a91906112eb565b602060405180830381865afa158015610595573d5f803e3d5ffd5b505050506040513d601f19601f820116820180604052508101906105b9919061188e565b6105f8576040517f08c379a00000000000000000000000000000000000000000000000000000000081526004016105ef90611913565b60405180910390fd5b5f151560065f8473ffffffffffffffffffffffffffffffffffffffff1673ffffffffffffffffffffffffffffffffffffffff1681526020019081526020015f205f8381526020019081526020015f205f9054906101000a900460ff16151514610696576040517f08c379a000000000000000000000000000000000000000000000000000000000815260040161068d906119a1565b60405180910390fd5b5f60055f8473ffffffffffffffffffffffffffffffffffffffff1673ffffffffffffffffffffffffffffffffffffffff1681526020019081526020015f20540361072257600160055f8473ffffffffffffffffffffffffffffffffffffffff1673ffffffffffffffffffffffffffffffffffffffff1681526020019081526020015f2081905550610777565b600160055f8473ffffffffffffffffffffffffffffffffffffffff1673ffffffffffffffffffffffffffffffffffffffff1681526020019081526020015f205f82825461076f91906119bf565b925050819055505b600160065f8473ffffffffffffffffffffffffffffffffffffffff1673ffffffffffffffffffffffffffffffffffffffff1681526020019081526020015f205f8381526020019081526020015f205f6101000a81548160ff02191690831515021790555060035f9054906101000a900473ffffffffffffffffffffffffffffffffffffffff1673ffffffffffffffffffffffffffffffffffffffff1663fe1777008360055f8673ffffffffffffffffffffffffffffffffffffffff1673ffffffffffffffffffffffffffffffffffffffff1681526020019081526020015f20546040518363ffffffff1660e01b815260040161087492919061183d565b5f604051808303815f87803b15801561088b575f80fd5b505af115801561089d573d5f803e3d5ffd5b5050505060045460055f8473ffffffffffffffffffffffffffffffffffffffff1673ffffffffffffffffffffffffffffffffffffffff1681526020019081526020015f20541115610923576040517f08c379a000000000000000000000000000000000000000000000000000000000815260040161091a90611a62565b60405180910390fd5b60035f9054906101000a900473ffffffffffffffffffffffffffffffffffffffff1673ffffffffffffffffffffffffffffffffffffffff166340405f7e83836040518363ffffffff1660e01b815260040161097f92919061183d565b5f604051808303815f87803b158015610996575f80fd5b505af11580156109a8573d5f803e3d5ffd5b50505050808273ffffffffffffffffffffffffffffffffffffffff167f88be6caf99ff92a5b37beab82fff9ca6f5fc834dfe7da065f7545cb6885026bb60055f8673ffffffffffffffffffffffffffffffffffffffff1673ffffffffffffffffffffffffffffffffffffffff1681526020019081526020015f2054604051610a3091906112eb565b60405180910390a35050565b60025f9054906101000a900473ffffffffffffffffffffffffffffffffffffffff1673ffffffffffffffffffffffffffffffffffffffff1663a42a23d2836040518263ffffffff1660e01b8152600401610a9691906112eb565b602060405180830381865afa158015610ab1573d5f803e3d5ffd5b505050506040513d601f19601f82011682018060405250810190610ad5919061188e565b610b14576040517f08c379a0000000000000000000000000000000000000000000000000000000008152600401610b0b90611aca565b60405180910390fd5b60025f9054906101000a900473ffffffffffffffffffffffffffffffffffffffff1673ffffffffffffffffffffffffffffffffffffffff1663c0d0198983836040518363ffffffff1660e01b8152600401610b70929190611ae8565b5f604051808303815f87803b158015610b87575f80fd5b505af1158015610b99573d5f803e3d5ffd5b505050505050565b610ba96110cb565b60035f9054906101000a900473ffffffffffffffffffffffffffffffffffffffff1673ffffffffffffffffffffffffffffffffffffffff16636f77926b836040518263ffffffff1660e01b8152600401610c039190611b0f565b5f60405180830381865afa158015610c1d573d5f803e3d5ffd5b505050506040513d5f823e3d601f19601f82011682018060405250810190610c459190611d2b565b9050919050565b60035f9054906101000a900473ffffffffffffffffffffffffffffffffffffffff1673ffffffffffffffffffffffffffffffffffffffff1663db0c87c98484846040518463ffffffff1660e01b8152600401610caa93929190611daa565b5f604051808303815f87803b158015610cc1575f80fd5b505af1158015610cd3573d5f803e3d5ffd5b50505050505050565b5f60055f8473ffffffffffffffffffffffffffffffffffffffff1673ffffffffffffffffffffffffffffffffffffffff1681526020019081526020015f205411610d5b576040517f08c379a0000000000000000000000000000000000000000000000000000000008152600401610d5290611e37565b60405180910390fd5b6001151560065f8473ffffffffffffffffffffffffffffffffffffffff1673ffffffffffffffffffffffffffffffffffffffff1681526020019081526020015f205f8381526020019081526020015f205f9054906101000a900460ff16151514610dfa576040517f08c379a0000000000000000000000000000000000000000000000000000000008152600401610df190611e9f565b60405180910390fd5b600160055f8473ffffffffffffffffffffffffffffffffffffffff1673ffffffffffffffffffffffffffffffffffffffff1681526020019081526020015f205f828254610e479190611ebd565b925050819055505f60065f8473ffffffffffffffffffffffffffffffffffffffff1673ffffffffffffffffffffffffffffffffffffffff1681526020019081526020015f205f8381526020019081526020015f205f6101000a81548160ff02191690831515021790555060035f9054906101000a900473ffffffffffffffffffffffffffffffffffffffff1673ffffffffffffffffffffffffffffffffffffffff1663fe1777008360055f8673ffffffffffffffffffffffffffffffffffffffff1673ffffffffffffffffffffffffffffffffffffffff1681526020019081526020015f20546040518363ffffffff1660e01b8152600401610f4a92919061183d565b5f604051808303815f87803b158015610f61575f80fd5b505af1158015610f73573d5f803e3d5ffd5b5050505060035f9054906101000a900473ffffffffffffffffffffffffffffffffffffffff1673ffffffffffffffffffffffffffffffffffffffff1663d81896cb83836040518363ffffffff1660e01b8152600401610fd392919061183d565b5f6040518083038186803b158015610fe9575f80fd5b505afa158015610ffb573d5f803e3d5ffd5b5050505060055f8373ffffffffffffffffffffffffffffffffffffffff1673ffffffffffffffffffffffffffffffffffffffff1681526020019081526020015f2054818373ffffffffffffffffffffffffffffffffffffffff167f058f338aac010b0bcf9a4504585da8288b9f28349e4907efd601b2edcb5b98c260405160405180910390a45050565b5f60055f8373ffffffffffffffffffffffffffffffffffffffff1673ffffffffffffffffffffffffffffffffffffffff1681526020019081526020015f20549050919050565b604051806080016040528060608152602001606081526020015f8152602001606081525090565b5f604051905090565b5f80fd5b5f80fd5b5f73ffffffffffffffffffffffffffffffffffffffff82169050919050565b5f61112c82611103565b9050919050565b61113c81611122565b8114611146575f80fd5b50565b5f8135905061115781611133565b92915050565b5f60208284031215611172576111716110fb565b5b5f61117f84828501611149565b91505092915050565b5f81519050919050565b5f82825260208201905092915050565b5f819050602082019050919050565b5f819050919050565b6111c3816111b1565b82525050565b5f6111d483836111ba565b60208301905092915050565b5f602082019050919050565b5f6111f682611188565b6112008185611192565b935061120b836111a2565b805f5b8381101561123b57815161122288826111c9565b975061122d836111e0565b92505060018101905061120e565b5085935050505092915050565b5f6020820190508181035f83015261126081846111ec565b905092915050565b5f819050919050565b5f61128b61128661128184611103565b611268565b611103565b9050919050565b5f61129c82611271565b9050919050565b5f6112ad82611292565b9050919050565b6112bd816112a3565b82525050565b5f6020820190506112d65f8301846112b4565b92915050565b6112e5816111b1565b82525050565b5f6020820190506112fe5f8301846112dc565b92915050565b61130d816111b1565b8114611317575f80fd5b50565b5f8135905061132881611304565b92915050565b5f8060408385031215611344576113436110fb565b5b5f61135185828601611149565b92505060206113628582860161131a565b9150509250929050565b5f61137682611292565b9050919050565b6113868161136c565b82525050565b5f60208201905061139f5f83018461137d565b92915050565b5f8115159050919050565b6113b9816113a5565b82525050565b5f6020820190506113d25f8301846113b0565b92915050565b5f80604083850312156113ee576113ed6110fb565b5b5f6113fb8582860161131a565b925050602061140c8582860161131a565b9150509250929050565b5f81519050919050565b5f82825260208201905092915050565b5f5b8381101561144d578082015181840152602081019050611432565b5f8484015250505050565b5f601f19601f8301169050919050565b5f61147282611416565b61147c8185611420565b935061148c818560208601611430565b61149581611458565b840191505092915050565b5f82825260208201905092915050565b5f6114ba82611188565b6114c481856114a0565b93506114cf836111a2565b805f5b838110156114ff5781516114e688826111c9565b97506114f1836111e0565b9250506001810190506114d2565b5085935050505092915050565b5f608083015f8301518482035f8601526115268282611468565b915050602083015184820360208601526115408282611468565b915050604083015161155560408601826111ba565b506060830151848203606086015261156d82826114b0565b9150508091505092915050565b5f6020820190508181035f830152611592818461150c565b905092915050565b5f80fd5b5f80fd5b7f4e487b71000000000000000000000000000000000000000000000000000000005f52604160045260245ffd5b6115d882611458565b810181811067ffffffffffffffff821117156115f7576115f66115a2565b5b80604052505050565b5f6116096110f2565b905061161582826115cf565b919050565b5f67ffffffffffffffff821115611634576116336115a2565b5b61163d82611458565b9050602081019050919050565b828183375f83830152505050565b5f61166a6116658461161a565b611600565b9050828152602081018484840111156116865761168561159e565b5b61169184828561164a565b509392505050565b5f82601f8301126116ad576116ac61159a565b5b81356116bd848260208601611658565b91505092915050565b5f805f606084860312156116dd576116dc6110fb565b5b5f6116ea86828701611149565b935050602084013567ffffffffffffffff81111561170b5761170a6110ff565b5b61171786828701611699565b925050604084013567ffffffffffffffff811115611738576117376110ff565b5b61174486828701611699565b9150509250925092565b5f8151905061175c81611304565b92915050565b5f60208284031215611777576117766110fb565b5b5f6117848482850161174e565b91505092915050565b7f4e487b71000000000000000000000000000000000000000000000000000000005f52603260045260245ffd5b7f4e487b71000000000000000000000000000000000000000000000000000000005f52601160045260245ffd5b5f6117f1826111b1565b91507fffffffffffffffffffffffffffffffffffffffffffffffffffffffffffffffff8203611823576118226117ba565b5b600182019050919050565b61183781611122565b82525050565b5f6040820190506118505f83018561182e565b61185d60208301846112dc565b9392505050565b61186d816113a5565b8114611877575f80fd5b50565b5f8151905061188881611864565b92915050565b5f602082840312156118a3576118a26110fb565b5b5f6118b08482850161187a565b91505092915050565b5f82825260208201905092915050565b7f426f6f6b20646f6573206e6f74206578697374000000000000000000000000005f82015250565b5f6118fd6013836118b9565b9150611908826118c9565b602082019050919050565b5f6020820190508181035f83015261192a816118f1565b9050919050565b7f426f6f6b2068617320616c7265616479206265656e20697373756564206279205f8201527f796f750000000000000000000000000000000000000000000000000000000000602082015250565b5f61198b6023836118b9565b915061199682611931565b604082019050919050565b5f6020820190508181035f8301526119b88161197f565b9050919050565b5f6119c9826111b1565b91506119d4836111b1565b92508282019050808211156119ec576119eb6117ba565b5b92915050565b7f596f75206861766520657863656564656420746865206d6178696d756d206e755f8201527f6d626572206f6620686f6c647300000000000000000000000000000000000000602082015250565b5f611a4c602d836118b9565b9150611a57826119f2565b604082019050919050565b5f6020820190508181035f830152611a7981611a40565b9050919050565b7f4164642074686520626f6f6b20666972737400000000000000000000000000005f82015250565b5f611ab46012836118b9565b9150611abf82611a80565b602082019050919050565b5f6020820190508181035f830152611ae181611aa8565b9050919050565b5f604082019050611afb5f8301856112dc565b611b0860208301846112dc565b9392505050565b5f602082019050611b225f83018461182e565b92915050565b5f80fd5b5f80fd5b5f611b42611b3d8461161a565b611600565b905082815260208101848484011115611b5e57611b5d61159e565b5b611b69848285611430565b509392505050565b5f82601f830112611b8557611b8461159a565b5b8151611b95848260208601611b30565b91505092915050565b5f67ffffffffffffffff821115611bb857611bb76115a2565b5b602082029050602081019050919050565b5f80fd5b5f611bdf611bda84611b9e565b611600565b90508083825260208201905060208402830185811115611c0257611c01611bc9565b5b835b81811015611c2b5780611c17888261174e565b845260208401935050602081019050611c04565b5050509392505050565b5f82601f830112611c4957611c4861159a565b5b8151611c59848260208601611bcd565b91505092915050565b5f60808284031215611c7757611c76611b28565b5b611c816080611600565b90505f82015167ffffffffffffffff811115611ca057611c9f611b2c565b5b611cac84828501611b71565b5f83015250602082015167ffffffffffffffff811115611ccf57611cce611b2c565b5b611cdb84828501611b71565b6020830152506040611cef8482850161174e565b604083015250606082015167ffffffffffffffff811115611d1357611d12611b2c565b5b611d1f84828501611c35565b60608301525092915050565b5f60208284031215611d4057611d3f6110fb565b5b5f82015167ffffffffffffffff811115611d5d57611d5c6110ff565b5b611d6984828501611c62565b91505092915050565b5f611d7c82611416565b611d8681856118b9565b9350611d96818560208601611430565b611d9f81611458565b840191505092915050565b5f606082019050611dbd5f83018661182e565b8181036020830152611dcf8185611d72565b90508181036040830152611de38184611d72565b9050949350505050565b7f596f752068617665206e6f20686f6c64730000000000000000000000000000005f82015250565b5f611e216011836118b9565b9150611e2c82611ded565b602082019050919050565b5f6020820190508181035f830152611e4e81611e15565b9050919050565b7f426f6f6b20686173206e6f74206265656e2069737375656420627920796f75005f82015250565b5f611e89601f836118b9565b9150611e9482611e55565b602082019050919050565b5f6020820190508181035f830152611eb681611e7d565b9050919050565b5f611ec7826111b1565b9150611ed2836111b1565b9250828203905081811115611eea57611ee96117ba565b5b9291505056fea26469706673582212202d3e37d7926a144f8796c84eb73b289bac65a80700724f391b4aa6998ea4204464736f6c63430008140033608060405234801561000f575f80fd5b506113c38061001d5f395ff3fe608060405234801561000f575f80fd5b5060043610610091575f3560e01c8063a42a23d211610064578063a42a23d214610132578063c0d0198914610162578063e9189aa51461017e578063edc07913146101ae578063ffc1c2e6146101de57610091565b8063598e14551461009557806368744046146100b15780636ec4f4bf146100e457806374ff481814610102575b5f80fd5b6100af60048036038101906100aa9190610ae2565b61020e565b005b6100cb60048036038101906100c69190610b9a565b6102f6565b6040516100db9493929190610c4e565b60405180910390f35b6100ec6104b3565b6040516100f99190610ca6565b60405180910390f35b61011c60048036038101906101179190610b9a565b6104b9565b6040516101299190610d84565b60405180910390f35b61014c60048036038101906101479190610b9a565b6106f7565b6040516101599190610dbe565b60405180910390f35b61017c60048036038101906101779190610dd7565b610776565b005b61019860048036038101906101939190610e6f565b6107fe565b6040516101a59190610ca6565b60405180910390f35b6101c860048036038101906101c39190610ead565b610829565b6040516101d59190610ca6565b60405180910390f35b6101f860048036038101906101f39190610b9a565b6108c4565b6040516102059190610ca6565b60405180910390f35b6040518060800160405280858152602001848152602001838152602001828152505f806001805461023f9190610f21565b81526020019081526020015f205f820151815f01908161025f919061114e565b506020820151816001019081610275919061114e565b50604082015181600201556060820151816003019081610295919061114e565b5090505060015f8154809291906102ab9061121d565b91905055506001547ffdb5003c5673529a025856519bf3b990c87366e1b12f22d82eab9040e7af3905858585856040516102e89493929190610c4e565b60405180910390a250505050565b5f602052805f5260405f205f91509050805f01805461031490610f81565b80601f016020809104026020016040519081016040528092919081815260200182805461034090610f81565b801561038b5780601f106103625761010080835404028352916020019161038b565b820191905f5260205f20905b81548152906001019060200180831161036e57829003601f168201915b5050505050908060010180546103a090610f81565b80601f01602080910402602001604051908101604052809291908181526020018280546103cc90610f81565b80156104175780601f106103ee57610100808354040283529160200191610417565b820191905f5260205f20905b8154815290600101906020018083116103fa57829003601f168201915b50505050509080600201549080600301805461043290610f81565b80601f016020809104026020016040519081016040528092919081815260200182805461045e90610f81565b80156104a95780601f10610480576101008083540402835291602001916104a9565b820191905f5260205f20905b81548152906001019060200180831161048c57829003601f168201915b5050505050905084565b60015481565b6104c161093b565b6001548211806104d057505f82105b806104dc57505f600154145b1561051c576040517f08c379a0000000000000000000000000000000000000000000000000000000008152600401610513906112ae565b60405180910390fd5b5f808381526020019081526020015f206040518060800160405290815f8201805461054690610f81565b80601f016020809104026020016040519081016040528092919081815260200182805461057290610f81565b80156105bd5780601f10610594576101008083540402835291602001916105bd565b820191905f5260205f20905b8154815290600101906020018083116105a057829003601f168201915b505050505081526020016001820180546105d690610f81565b80601f016020809104026020016040519081016040528092919081815260200182805461060290610f81565b801561064d5780601f106106245761010080835404028352916020019161064d565b820191905f5260205f20905b81548152906001019060200180831161063057829003601f168201915b505050505081526020016002820154815260200160038201805461067090610f81565b80601f016020809104026020016040519081016040528092919081815260200182805461069c90610f81565b80156106e75780601f106106be576101008083540402835291602001916106e7565b820191905f5260205f20905b8154815290600101906020018083116106ca57829003601f168201915b5050505050815250509050919050565b5f60015482118061070957505f600154145b15610749576040517f08c379a0000000000000000000000000000000000000000000000000000000008152600401610740906112ae565b60405180910390fd5b5f805f8481526020019081526020015f2060020154111561076d5760019050610771565b5f90505b919050565b60015482118061078557505f82105b8061079157505f600154145b156107d1576040517f08c379a00000000000000000000000000000000000000000000000000000000081526004016107c8906112ae565b60405180910390fd5b805f808481526020019081526020015f206002015f8282546107f39190610f21565b925050819055505050565b6002602052815f5260405f208181548110610817575f80fd5b905f5260205f20015f91509150505481565b5f80600190505b60015481116108ba578260405160200161084a91906112cc565b604051602081830303815290604052805190602001205f808381526020019081526020015f20600301604051602001610883919061136d565b60405160208183030381529060405280519060200120036108a757809150506108bf565b80806108b29061121d565b915050610830565b505f90505b919050565b5f6001548211806108d457505f82105b806108e057505f600154145b15610920576040517f08c379a0000000000000000000000000000000000000000000000000000000008152600401610917906112ae565b60405180910390fd5b5f808381526020019081526020015f20600201549050919050565b604051806080016040528060608152602001606081526020015f8152602001606081525090565b5f604051905090565b5f80fd5b5f80fd5b5f80fd5b5f80fd5b5f601f19601f8301169050919050565b7f4e487b71000000000000000000000000000000000000000000000000000000005f52604160045260245ffd5b6109c18261097b565b810181811067ffffffffffffffff821117156109e0576109df61098b565b5b80604052505050565b5f6109f2610962565b90506109fe82826109b8565b919050565b5f67ffffffffffffffff821115610a1d57610a1c61098b565b5b610a268261097b565b9050602081019050919050565b828183375f83830152505050565b5f610a53610a4e84610a03565b6109e9565b905082815260208101848484011115610a6f57610a6e610977565b5b610a7a848285610a33565b509392505050565b5f82601f830112610a9657610a95610973565b5b8135610aa6848260208601610a41565b91505092915050565b5f819050919050565b610ac181610aaf565b8114610acb575f80fd5b50565b5f81359050610adc81610ab8565b92915050565b5f805f8060808587031215610afa57610af961096b565b5b5f85013567ffffffffffffffff811115610b1757610b1661096f565b5b610b2387828801610a82565b945050602085013567ffffffffffffffff811115610b4457610b4361096f565b5b610b5087828801610a82565b9350506040610b6187828801610ace565b925050606085013567ffffffffffffffff811115610b8257610b8161096f565b5b610b8e87828801610a82565b91505092959194509250565b5f60208284031215610baf57610bae61096b565b5b5f610bbc84828501610ace565b91505092915050565b5f81519050919050565b5f82825260208201905092915050565b5f5b83811015610bfc578082015181840152602081019050610be1565b5f8484015250505050565b5f610c1182610bc5565b610c1b8185610bcf565b9350610c2b818560208601610bdf565b610c348161097b565b840191505092915050565b610c4881610aaf565b82525050565b5f6080820190508181035f830152610c668187610c07565b90508181036020830152610c7a8186610c07565b9050610c896040830185610c3f565b8181036060830152610c9b8184610c07565b905095945050505050565b5f602082019050610cb95f830184610c3f565b92915050565b5f82825260208201905092915050565b5f610cd982610bc5565b610ce38185610cbf565b9350610cf3818560208601610bdf565b610cfc8161097b565b840191505092915050565b610d1081610aaf565b82525050565b5f608083015f8301518482035f860152610d308282610ccf565b91505060208301518482036020860152610d4a8282610ccf565b9150506040830151610d5f6040860182610d07565b5060608301518482036060860152610d778282610ccf565b9150508091505092915050565b5f6020820190508181035f830152610d9c8184610d16565b905092915050565b5f8115159050919050565b610db881610da4565b82525050565b5f602082019050610dd15f830184610daf565b92915050565b5f8060408385031215610ded57610dec61096b565b5b5f610dfa85828601610ace565b9250506020610e0b85828601610ace565b9150509250929050565b5f73ffffffffffffffffffffffffffffffffffffffff82169050919050565b5f610e3e82610e15565b9050919050565b610e4e81610e34565b8114610e58575f80fd5b50565b5f81359050610e6981610e45565b92915050565b5f8060408385031215610e8557610e8461096b565b5b5f610e9285828601610e5b565b9250506020610ea385828601610ace565b9150509250929050565b5f60208284031215610ec257610ec161096b565b5b5f82013567ffffffffffffffff811115610edf57610ede61096f565b5b610eeb84828501610a82565b91505092915050565b7f4e487b71000000000000000000000000000000000000000000000000000000005f52601160045260245ffd5b5f610f2b82610aaf565b9150610f3683610aaf565b9250828201905080821115610f4e57610f4d610ef4565b5b92915050565b7f4e487b71000000000000000000000000000000000000000000000000000000005f52602260045260245ffd5b5f6002820490506001821680610f9857607f821691505b602082108103610fab57610faa610f54565b5b50919050565b5f819050815f5260205f209050919050565b5f6020601f8301049050919050565b5f82821b905092915050565b5f6008830261100d7fffffffffffffffffffffffffffffffffffffffffffffffffffffffffffffffff82610fd2565b6110178683610fd2565b95508019841693508086168417925050509392505050565b5f819050919050565b5f61105261104d61104884610aaf565b61102f565b610aaf565b9050919050565b5f819050919050565b61106b83611038565b61107f61107782611059565b848454610fde565b825550505050565b5f90565b611093611087565b61109e818484611062565b505050565b5b818110156110c1576110b65f8261108b565b6001810190506110a4565b5050565b601f821115611106576110d781610fb1565b6110e084610fc3565b810160208510156110ef578190505b6111036110fb85610fc3565b8301826110a3565b50505b505050565b5f82821c905092915050565b5f6111265f198460080261110b565b1980831691505092915050565b5f61113e8383611117565b9150826002028217905092915050565b61115782610bc5565b67ffffffffffffffff8111156111705761116f61098b565b5b61117a8254610f81565b6111858282856110c5565b5f60209050601f8311600181146111b6575f84156111a4578287015190505b6111ae8582611133565b865550611215565b601f1984166111c486610fb1565b5f5b828110156111eb578489015182556001820191506020850194506020810190506111c6565b868310156112085784890151611204601f891682611117565b8355505b6001600288020188555050505b505050505050565b5f61122782610aaf565b91507fffffffffffffffffffffffffffffffffffffffffffffffffffffffffffffffff820361125957611258610ef4565b5b600182019050919050565b7f426f6f6b20646f6573206e6f74206578697374000000000000000000000000005f82015250565b5f611298601383610bcf565b91506112a382611264565b602082019050919050565b5f6020820190508181035f8301526112c58161128c565b9050919050565b5f6020820190508181035f8301526112e48184610c07565b905092915050565b5f81546112f881610f81565b6113028186610bcf565b9450600182165f811461131c576001811461133257611364565b60ff198316865281151560200286019350611364565b61133b85610fb1565b5f5b8381101561135c5781548189015260018201915060208101905061133d565b808801955050505b50505092915050565b5f6020820190508181035f83015261138581846112ec565b90509291505056fea26469706673582212205ed1fa4238bcfbf9bdb91697f2ebc2194a985375cb632006f9ffef1e2ab9655e64736f6c6343000814003360806040525f600355348015610013575f80fd5b5061197a806100215f395ff3fe608060405234801561000f575f80fd5b50600436106100b1575f3560e01c80639320b4741161006f5780639320b474146101af578063a87430ba146101cd578063bff1f9e1146101ff578063d81896cb1461021d578063db0c87c914610239578063fe17770014610255576100b1565b8062ce8e3e146100b55780630e666e49146100d357806340405f7e14610103578063477348921461011f5780634aed47cf1461014f5780636f77926b1461017f575b5f80fd5b6100bd610271565b6040516100ca9190611018565b60405180910390f35b6100ed60048036038101906100e891906110a3565b61050d565b6040516100fa91906110e8565b60405180910390f35b61011d6004803603810190610118919061112b565b610573565b005b610139600480360381019061013491906110a3565b6105db565b6040516101469190611178565b60405180910390f35b61016960048036038101906101649190611191565b610624565b60405161017691906111cb565b60405180910390f35b610199600480360381019061019491906110a3565b610654565b6040516101a69190611252565b60405180910390f35b6101b761082a565b6040516101c491906111cb565b60405180910390f35b6101e760048036038101906101e291906110a3565b61084d565b6040516101f6939291906112ba565b60405180910390f35b61020761097f565b6040516102149190611178565b60405180910390f35b6102376004803603810190610232919061112b565b610985565b005b610253600480360381019061024e9190611429565b610ad1565b005b61026f600480360381019061026a919061112b565b610ccf565b005b60605f8060035467ffffffffffffffff81111561029157610290611305565b5b6040519080825280602002602001820160405280156102ca57816020015b6102b7610d18565b8152602001906001900390816102af5790505b5090505f5b6003548110156105045760025f8281526020019081526020015f205f9054906101000a900473ffffffffffffffffffffffffffffffffffffffff16925060015f8473ffffffffffffffffffffffffffffffffffffffff1673ffffffffffffffffffffffffffffffffffffffff1681526020019081526020015f206040518060800160405290815f82018054610363906114de565b80601f016020809104026020016040519081016040528092919081815260200182805461038f906114de565b80156103da5780601f106103b1576101008083540402835291602001916103da565b820191905f5260205f20905b8154815290600101906020018083116103bd57829003601f168201915b505050505081526020016001820180546103f3906114de565b80601f016020809104026020016040519081016040528092919081815260200182805461041f906114de565b801561046a5780601f106104415761010080835404028352916020019161046a565b820191905f5260205f20905b81548152906001019060200180831161044d57829003601f168201915b5050505050815260200160028201548152602001600382018054806020026020016040519081016040528092919081815260200182805480156104ca57602002820191905f5260205f20905b8154815260200190600101908083116104b6575b5050505050815250508282815181106104e6576104e561150e565b5b602002602001018190525080806104fc90611568565b9150506102cf565b50809250505090565b5f8060015f8473ffffffffffffffffffffffffffffffffffffffff1673ffffffffffffffffffffffffffffffffffffffff1681526020019081526020015f205f018054610559906114de565b9050111561056a576001905061056e565b5f90505b919050565b60015f8373ffffffffffffffffffffffffffffffffffffffff1673ffffffffffffffffffffffffffffffffffffffff1681526020019081526020015f2060030181908060018154018082558091505060019003905f5260205f20015f90919091909150555050565b5f60015f8373ffffffffffffffffffffffffffffffffffffffff1673ffffffffffffffffffffffffffffffffffffffff1681526020019081526020015f20600201549050919050565b6002602052805f5260405f205f915054906101000a900473ffffffffffffffffffffffffffffffffffffffff1681565b61065c610d18565b60015f8373ffffffffffffffffffffffffffffffffffffffff1673ffffffffffffffffffffffffffffffffffffffff1681526020019081526020015f206040518060800160405290815f820180546106b3906114de565b80601f01602080910402602001604051908101604052809291908181526020018280546106df906114de565b801561072a5780601f106107015761010080835404028352916020019161072a565b820191905f5260205f20905b81548152906001019060200180831161070d57829003601f168201915b50505050508152602001600182018054610743906114de565b80601f016020809104026020016040519081016040528092919081815260200182805461076f906114de565b80156107ba5780601f10610791576101008083540402835291602001916107ba565b820191905f5260205f20905b81548152906001019060200180831161079d57829003601f168201915b50505050508152602001600282015481526020016003820180548060200260200160405190810160405280929190818152602001828054801561081a57602002820191905f5260205f20905b815481526020019060010190808311610806575b5050505050815250509050919050565b5f8054906101000a900473ffffffffffffffffffffffffffffffffffffffff1681565b6001602052805f5260405f205f91509050805f01805461086c906114de565b80601f0160208091040260200160405190810160405280929190818152602001828054610898906114de565b80156108e35780601f106108ba576101008083540402835291602001916108e3565b820191905f5260205f20905b8154815290600101906020018083116108c657829003601f168201915b5050505050908060010180546108f8906114de565b80601f0160208091040260200160405190810160405280929190818152602001828054610924906114de565b801561096f5780601f106109465761010080835404028352916020019161096f565b820191905f5260205f20905b81548152906001019060200180831161095257829003601f168201915b5050505050908060020154905083565b60035481565b5f60015f8473ffffffffffffffffffffffffffffffffffffffff1673ffffffffffffffffffffffffffffffffffffffff1681526020019081526020015f20600301805480602002602001604051908101604052809291908181526020018280548015610a0e57602002820191905f5260205f20905b8154815260200190600101908083116109fa575b505050505090505f5b8151811015610acb5782828281518110610a3457610a3361150e565b5b602002602001015103610ab8578160018351610a5091906115af565b81518110610a6157610a6061150e565b5b6020026020010151828281518110610a7c57610a7b61150e565b5b6020026020010181815250508160018351610a9791906115af565b81518110610aa857610aa761150e565b5b602002602001015f815250610acb565b8080610ac390611568565b915050610a17565b50505050565b610ada8361050d565b15610b1a576040517f08c379a0000000000000000000000000000000000000000000000000000000008152600401610b1190611652565b60405180910390fd5b60405180608001604052808381526020018281526020015f81526020015f67ffffffffffffffff811115610b5157610b50611305565b5b604051908082528060200260200182016040528015610b7f5781602001602082028036833780820191505090505b5081525060015f8573ffffffffffffffffffffffffffffffffffffffff1673ffffffffffffffffffffffffffffffffffffffff1681526020019081526020015f205f820151815f019081610bd3919061180d565b506020820151816001019081610be9919061180d565b50604082015181600201556060820151816003019080519060200190610c10929190610d3f565b509050506001600354610c2391906118dc565b6003819055508260025f60035481526020019081526020015f205f6101000a81548173ffffffffffffffffffffffffffffffffffffffff021916908373ffffffffffffffffffffffffffffffffffffffff1602179055508273ffffffffffffffffffffffffffffffffffffffff167f6f289fe93e06e036f01b77da15925ec8bc9ab53277b43b06e133fe1a319e70f38383604051610cc292919061190f565b60405180910390a2505050565b8060015f8473ffffffffffffffffffffffffffffffffffffffff1673ffffffffffffffffffffffffffffffffffffffff1681526020019081526020015f20600201819055505050565b604051806080016040528060608152602001606081526020015f8152602001606081525090565b828054828255905f5260205f20908101928215610d79579160200282015b82811115610d78578251825591602001919060010190610d5d565b5b509050610d869190610d8a565b5090565b5b80821115610da1575f815f905550600101610d8b565b5090565b5f81519050919050565b5f82825260208201905092915050565b5f819050602082019050919050565b5f81519050919050565b5f82825260208201905092915050565b5f5b83811015610e05578082015181840152602081019050610dea565b5f8484015250505050565b5f601f19601f8301169050919050565b5f610e2a82610dce565b610e348185610dd8565b9350610e44818560208601610de8565b610e4d81610e10565b840191505092915050565b5f819050919050565b610e6a81610e58565b82525050565b5f81519050919050565b5f82825260208201905092915050565b5f819050602082019050919050565b5f610ea48383610e61565b60208301905092915050565b5f602082019050919050565b5f610ec682610e70565b610ed08185610e7a565b9350610edb83610e8a565b805f5b83811015610f0b578151610ef28882610e99565b9750610efd83610eb0565b925050600181019050610ede565b5085935050505092915050565b5f608083015f8301518482035f860152610f328282610e20565b91505060208301518482036020860152610f4c8282610e20565b9150506040830151610f616040860182610e61565b5060608301518482036060860152610f798282610ebc565b9150508091505092915050565b5f610f918383610f18565b905092915050565b5f602082019050919050565b5f610faf82610da5565b610fb98185610daf565b935083602082028501610fcb85610dbf565b805f5b858110156110065784840389528151610fe78582610f86565b9450610ff283610f99565b925060208a01995050600181019050610fce565b50829750879550505050505092915050565b5f6020820190508181035f8301526110308184610fa5565b905092915050565b5f604051905090565b5f80fd5b5f80fd5b5f73ffffffffffffffffffffffffffffffffffffffff82169050919050565b5f61107282611049565b9050919050565b61108281611068565b811461108c575f80fd5b50565b5f8135905061109d81611079565b92915050565b5f602082840312156110b8576110b7611041565b5b5f6110c58482850161108f565b91505092915050565b5f8115159050919050565b6110e2816110ce565b82525050565b5f6020820190506110fb5f8301846110d9565b92915050565b61110a81610e58565b8114611114575f80fd5b50565b5f8135905061112581611101565b92915050565b5f806040838503121561114157611140611041565b5b5f61114e8582860161108f565b925050602061115f85828601611117565b9150509250929050565b61117281610e58565b82525050565b5f60208201905061118b5f830184611169565b92915050565b5f602082840312156111a6576111a5611041565b5b5f6111b384828501611117565b91505092915050565b6111c581611068565b82525050565b5f6020820190506111de5f8301846111bc565b92915050565b5f608083015f8301518482035f8601526111fe8282610e20565b915050602083015184820360208601526112188282610e20565b915050604083015161122d6040860182610e61565b50606083015184820360608601526112458282610ebc565b9150508091505092915050565b5f6020820190508181035f83015261126a81846111e4565b905092915050565b5f82825260208201905092915050565b5f61128c82610dce565b6112968185611272565b93506112a6818560208601610de8565b6112af81610e10565b840191505092915050565b5f6060820190508181035f8301526112d28186611282565b905081810360208301526112e68185611282565b90506112f56040830184611169565b949350505050565b5f80fd5b5f80fd5b7f4e487b71000000000000000000000000000000000000000000000000000000005f52604160045260245ffd5b61133b82610e10565b810181811067ffffffffffffffff8211171561135a57611359611305565b5b80604052505050565b5f61136c611038565b90506113788282611332565b919050565b5f67ffffffffffffffff82111561139757611396611305565b5b6113a082610e10565b9050602081019050919050565b828183375f83830152505050565b5f6113cd6113c88461137d565b611363565b9050828152602081018484840111156113e9576113e8611301565b5b6113f48482856113ad565b509392505050565b5f82601f8301126114105761140f6112fd565b5b81356114208482602086016113bb565b91505092915050565b5f805f606084860312156114405761143f611041565b5b5f61144d8682870161108f565b935050602084013567ffffffffffffffff81111561146e5761146d611045565b5b61147a868287016113fc565b925050604084013567ffffffffffffffff81111561149b5761149a611045565b5b6114a7868287016113fc565b9150509250925092565b7f4e487b71000000000000000000000000000000000000000000000000000000005f52602260045260245ffd5b5f60028204905060018216806114f557607f821691505b602082108103611508576115076114b1565b5b50919050565b7f4e487b71000000000000000000000000000000000000000000000000000000005f52603260045260245ffd5b7f4e487b71000000000000000000000000000000000000000000000000000000005f52601160045260245ffd5b5f61157282610e58565b91507fffffffffffffffffffffffffffffffffffffffffffffffffffffffffffffffff82036115a4576115a361153b565b5b600182019050919050565b5f6115b982610e58565b91506115c483610e58565b92508282039050818111156115dc576115db61153b565b5b92915050565b7f5573657220776974682074686973206164647265737320616c726561647920655f8201527f7869737473000000000000000000000000000000000000000000000000000000602082015250565b5f61163c602583611272565b9150611647826115e2565b604082019050919050565b5f6020820190508181035f83015261166981611630565b9050919050565b5f819050815f5260205f209050919050565b5f6020601f8301049050919050565b5f82821b905092915050565b5f600883026116cc7fffffffffffffffffffffffffffffffffffffffffffffffffffffffffffffffff82611691565b6116d68683611691565b95508019841693508086168417925050509392505050565b5f819050919050565b5f61171161170c61170784610e58565b6116ee565b610e58565b9050919050565b5f819050919050565b61172a836116f7565b61173e61173682611718565b84845461169d565b825550505050565b5f90565b611752611746565b61175d818484611721565b505050565b5b81811015611780576117755f8261174a565b600181019050611763565b5050565b601f8211156117c55761179681611670565b61179f84611682565b810160208510156117ae578190505b6117c26117ba85611682565b830182611762565b50505b505050565b5f82821c905092915050565b5f6117e55f19846008026117ca565b1980831691505092915050565b5f6117fd83836117d6565b9150826002028217905092915050565b61181682610dce565b67ffffffffffffffff81111561182f5761182e611305565b5b61183982546114de565b611844828285611784565b5f60209050601f831160018114611875575f8415611863578287015190505b61186d85826117f2565b8655506118d4565b601f19841661188386611670565b5f5b828110156118aa57848901518255600182019150602085019450602081019050611885565b868310156118c757848901516118c3601f8916826117d6565b8355505b6001600288020188555050505b505050505050565b5f6118e682610e58565b91506118f183610e58565b92508282019050808211156119095761190861153b565b5b92915050565b5f6040820190508181035f8301526119278185611282565b9050818103602083015261193b8184611282565b9050939250505056fea26469706673582212209aca278283505a045de567b8afcc8a84101f51b03a5686c1b9a973b0acfd30af64736f6c63430008140033",
  "immutableReferences": {},
  "source": "// SPDX-License-Identifier: GPL-3.0\r\npragma solidity >=0.4.16 <0.9.0;\r\n\r\nimport \"./bookToken.sol\";\r\nimport \"./user.sol\";\r\n\r\ncontract Library {\r\n    address private bookTokenAddress;\r\n    address private userAddress;\r\n    // bookTokenAddress is to store the address of the bookToken contract.\r\n    bookToken public bookTokenContract;\r\n    user public userContract;\r\n\r\n    uint256 maxHolds;\r\n\r\n    // Maximum number of hold the library allows a user to have at a time.\r\n\r\n    constructor(uint256 _maxHolds) {\r\n        bookTokenContract = new bookToken();\r\n        bookTokenAddress = address(bookTokenContract);\r\n        // This is how we can access the functions of the bookToken contract.\r\n        userContract = new user();\r\n        userAddress = address(userContract);\r\n        // This is how we can access the functions of the user contract.\r\n\r\n        maxHolds = _maxHolds;\r\n    }\r\n\r\n    mapping(address => uint256) public bookBalance;\r\n\r\n    function getbookBalance(\r\n        address _userAddress\r\n    ) public view returns (uint256) {\r\n        return bookBalance[_userAddress];\r\n    }\r\n\r\n    mapping(address => mapping(uint256 => bool)) public booksIssued;\r\n\r\n    event bookBorrowed(\r\n        address indexed _borrower,\r\n        uint256 indexed _bookId,\r\n        uint256 _bookBalance\r\n    );\r\n    event bookReturned(\r\n        address indexed _borrower,\r\n        uint256 indexed _bookId,\r\n        uint256 indexed _bookBalance\r\n    );\r\n\r\n    function registerUser(\r\n        address _userAddress,\r\n        string memory name,\r\n        string memory email\r\n    ) public {\r\n        userContract.registerUser(_userAddress, name, email);\r\n    }\r\n\r\n    function getUserDetails(\r\n        address _userAddress\r\n    ) public view returns (user.User memory) {\r\n        return userContract.getUser(_userAddress);\r\n    }\r\n\r\n    function updateUserBalance(address _userAddress, uint256 _balance) public {\r\n        userContract.setUserBalance(_userAddress, _balance);\r\n    }\r\n\r\n    function addCopies(uint256 _bookId, uint256 _copies) public {\r\n        require(\r\n            bookTokenContract.isBookAvailable(_bookId),\r\n            \"Add the book first\"\r\n        );\r\n\r\n        bookTokenContract.addCopies(_bookId, _copies);\r\n    }\r\n\r\n    function bookBorrow(address _userAddress, uint256 _bookId) public {\r\n        require(\r\n            bookTokenContract.isBookAvailable(_bookId),\r\n            \"Book does not exist\"\r\n        );\r\n\r\n        require(\r\n            booksIssued[_userAddress][_bookId] == false,\r\n            \"Book has already been issued by you\"\r\n        );\r\n\r\n        if (bookBalance[_userAddress] == 0) {\r\n            bookBalance[_userAddress] = 1;\r\n        } else {\r\n            bookBalance[_userAddress] += 1;\r\n        }\r\n\r\n        booksIssued[_userAddress][_bookId] = true;\r\n\r\n        userContract.setUserBalance(_userAddress, bookBalance[_userAddress]);\r\n        // Update the user's book balance in the user contract struct.\r\n\r\n        if (bookBalance[_userAddress] > maxHolds) {\r\n            revert(\"You have exceeded the maximum number of holds\");\r\n        } else {\r\n            userContract.setUserHoldsBorrow(_userAddress, _bookId);\r\n        }\r\n        // Add the bookId to the user's borrowedBooks array.\r\n\r\n        emit bookBorrowed(_userAddress, _bookId, bookBalance[_userAddress]);\r\n    }\r\n\r\n    function bookReturn(address _userAddress, uint256 _bookId) public {\r\n        require(bookBalance[_userAddress] > 0, \"You have no holds\");\r\n\r\n        require(\r\n            booksIssued[_userAddress][_bookId] == true,\r\n            \"Book has not been issued by you\"\r\n        );\r\n\r\n        bookBalance[_userAddress] -= 1;\r\n        booksIssued[_userAddress][_bookId] = false;\r\n\r\n        userContract.setUserBalance(_userAddress, bookBalance[_userAddress]);\r\n        // Update the user's book balance in the user contract struct.\r\n\r\n        userContract.setUserHoldsReturn(_userAddress, _bookId);\r\n        // Remove the bookId from the user's borrowedBooks array.\r\n\r\n        emit bookReturned(_userAddress, _bookId, bookBalance[_userAddress]);\r\n    }\r\n\r\n    function getBorrowedBooks(\r\n        address _address\r\n    ) public view returns (uint256[] memory) {\r\n        uint256[] memory bookIds = new uint256[](maxHolds);\r\n        uint256 count = 0;\r\n\r\n        for (uint256 i = 1; i <= bookTokenContract.totalBooks(); i++) {\r\n            if (booksIssued[_address][i] == true) {\r\n                bookIds[count] = i;\r\n                count++;\r\n            }\r\n        }\r\n\r\n        return bookIds;\r\n    }\r\n\r\n    // The booksIssued mapping can only take boolean values for whether the user already holds a particular copy of the title.\r\n    // This functionality is used in bookBorrow, bookReturned and getBorrowedBooks functions.\r\n}\r\n",
  "sourcePath": "C:\\Users\\DELL\\Desktop\\Side Projects\\Librarium\\contracts\\library.sol",
  "compiler": {
    "name": "solc",
    "version": "0.8.20+commit.a1b79de6.Emscripten.clang"
  },
  "schemaVersion": "3.4.14",
  "updatedAt": "2023-06-04T12:02:39.732Z",
  "devdoc": {
    "kind": "dev",
    "methods": {},
    "version": 1
  },
  "userdoc": {
    "kind": "user",
    "methods": {},
    "version": 1
  }
}