{
  "contractName": "Library",
  "abi": [
    {
      "inputs": [
        {
          "internalType": "address",
          "name": "_bookTokenAddress",
          "type": "address"
        }
      ],
      "stateMutability": "nonpayable",
      "type": "constructor"
    },
    {
      "anonymous": false,
      "inputs": [
        {
          "indexed": true,
          "internalType": "address",
          "name": "_borrower",
          "type": "address"
        },
        {
          "indexed": true,
          "internalType": "uint256",
          "name": "_bookId",
          "type": "uint256"
        }
      ],
      "name": "bookBorrowed",
      "type": "event"
    },
    {
      "anonymous": false,
      "inputs": [
        {
          "indexed": true,
          "internalType": "address",
          "name": "_borrower",
          "type": "address"
        },
        {
          "indexed": true,
          "internalType": "uint256",
          "name": "_bookId",
          "type": "uint256"
        }
      ],
      "name": "bookReturned",
      "type": "event"
    },
    {
      "inputs": [
        {
          "internalType": "address",
          "name": "",
          "type": "address"
        }
      ],
      "name": "bookBalance",
      "outputs": [
        {
          "internalType": "uint256",
          "name": "",
          "type": "uint256"
        }
      ],
      "stateMutability": "view",
      "type": "function"
    },
    {
      "inputs": [],
      "name": "bookTokenContract",
      "outputs": [
        {
          "internalType": "contract bookToken",
          "name": "",
          "type": "address"
        }
      ],
      "stateMutability": "view",
      "type": "function"
    },
    {
      "inputs": [
        {
          "internalType": "address",
          "name": "",
          "type": "address"
        },
        {
          "internalType": "uint256",
          "name": "",
          "type": "uint256"
        }
      ],
      "name": "booksIssued",
      "outputs": [
        {
          "internalType": "bool",
          "name": "",
          "type": "bool"
        }
      ],
      "stateMutability": "view",
      "type": "function"
    },
    {
      "inputs": [
        {
          "internalType": "string",
          "name": "name",
          "type": "string"
        },
        {
          "internalType": "string",
          "name": "email",
          "type": "string"
        }
      ],
      "name": "registerUser",
      "outputs": [],
      "stateMutability": "nonpayable",
      "type": "function"
    },
    {
      "inputs": [
        {
          "internalType": "uint256",
          "name": "_bookId",
          "type": "uint256"
        }
      ],
      "name": "bookBorrow",
      "outputs": [],
      "stateMutability": "nonpayable",
      "type": "function"
    },
    {
      "inputs": [
        {
          "internalType": "uint256",
          "name": "_bookId",
          "type": "uint256"
        }
      ],
      "name": "returnBook",
      "outputs": [],
      "stateMutability": "nonpayable",
      "type": "function"
    },
    {
      "inputs": [],
      "name": "getBorrwedBooks",
      "outputs": [
        {
          "internalType": "uint256[]",
          "name": "",
          "type": "uint256[]"
        }
      ],
      "stateMutability": "view",
      "type": "function"
    }
  ],
  "bytecode": "0x608060405234801562000010575f80fd5b506040516200117b3803806200117b833981810160405281019062000036919062000140565b805f806101000a81548173ffffffffffffffffffffffffffffffffffffffff021916908373ffffffffffffffffffffffffffffffffffffffff1602179055505f8054906101000a900473ffffffffffffffffffffffffffffffffffffffff1660015f6101000a81548173ffffffffffffffffffffffffffffffffffffffff021916908373ffffffffffffffffffffffffffffffffffffffff1602179055505062000170565b5f80fd5b5f73ffffffffffffffffffffffffffffffffffffffff82169050919050565b5f6200010a82620000df565b9050919050565b6200011c81620000fe565b811462000127575f80fd5b50565b5f815190506200013a8162000111565b92915050565b5f60208284031215620001585762000157620000db565b5b5f62000167848285016200012a565b91505092915050565b610ffd806200017e5f395ff3fe608060405234801561000f575f80fd5b506004361061007b575f3560e01c806384bedc111161005957806384bedc11146100e95780638be9270b14610119578063ca5140c914610137578063e21ce12e146101535761007b565b80631d2e4afd1461007f5780635e8f58f41461009b5780635fd3f129146100cb575b5f80fd5b61009960048036038101906100949190610976565b61016f565b005b6100b560048036038101906100b09190610a46565b6101e0565b6040516100c29190610a89565b60405180910390f35b6100d36101f5565b6040516100e09190610afd565b60405180910390f35b61010360048036038101906100fe9190610b40565b61021a565b6040516101109190610b98565b60405180910390f35b610121610244565b60405161012e9190610c68565b60405180910390f35b610151600480360381019061014c9190610c88565b610419565b005b61016d60048036038101906101689190610c88565b6105b4565b005b5f3390508073ffffffffffffffffffffffffffffffffffffffff16631d2e4afd84846040518363ffffffff1660e01b81526004016101ae929190610d2d565b5f604051808303815f87803b1580156101c5575f80fd5b505af11580156101d7573d5f803e3d5ffd5b50505050505050565b6002602052805f5260405f205f915090505481565b60015f9054906101000a900473ffffffffffffffffffffffffffffffffffffffff1681565b6003602052815f5260405f20602052805f5260405f205f915091509054906101000a900460ff1681565b60605f60025f3373ffffffffffffffffffffffffffffffffffffffff1673ffffffffffffffffffffffffffffffffffffffff1681526020019081526020015f205467ffffffffffffffff81111561029e5761029d610852565b5b6040519080825280602002602001820160405280156102cc5781602001602082028036833780820191505090505b5090505f80600190505b60015f9054906101000a900473ffffffffffffffffffffffffffffffffffffffff1673ffffffffffffffffffffffffffffffffffffffff16636ec4f4bf6040518163ffffffff1660e01b8152600401602060405180830381865afa158015610340573d5f803e3d5ffd5b505050506040513d601f19601f820116820180604052508101906103649190610d76565b8111610410576001151560035f3373ffffffffffffffffffffffffffffffffffffffff1673ffffffffffffffffffffffffffffffffffffffff1681526020019081526020015f205f8381526020019081526020015f205f9054906101000a900460ff161515036103fd57808383815181106103e2576103e1610da1565b5b60200260200101818152505081806103f990610dfb565b9250505b808061040890610dfb565b9150506102d6565b50819250505090565b6001151560035f3373ffffffffffffffffffffffffffffffffffffffff1673ffffffffffffffffffffffffffffffffffffffff1681526020019081526020015f205f8381526020019081526020015f205f9054906101000a900460ff161515146104b8576040517f08c379a00000000000000000000000000000000000000000000000000000000081526004016104af90610e8c565b60405180910390fd5b60025f3373ffffffffffffffffffffffffffffffffffffffff1673ffffffffffffffffffffffffffffffffffffffff1681526020019081526020015f205f81548092919061050590610eaa565b91905055505f60035f3373ffffffffffffffffffffffffffffffffffffffff1673ffffffffffffffffffffffffffffffffffffffff1681526020019081526020015f205f8381526020019081526020015f205f6101000a81548160ff021916908315150217905550803373ffffffffffffffffffffffffffffffffffffffff167fbbab87c695fff7c1e615b3bbd9c293ca0151241ae23d6aded792820ebfb82b2b60405160405180910390a350565b5f60015f9054906101000a900473ffffffffffffffffffffffffffffffffffffffff1673ffffffffffffffffffffffffffffffffffffffff1663ffc1c2e6836040518263ffffffff1660e01b815260040161060f9190610a89565b602060405180830381865afa15801561062a573d5f803e3d5ffd5b505050506040513d601f19601f8201168201806040525081019061064e9190610d76565b1161068e576040517f08c379a000000000000000000000000000000000000000000000000000000000815260040161068590610f1b565b60405180910390fd5b5f151560035f3373ffffffffffffffffffffffffffffffffffffffff1673ffffffffffffffffffffffffffffffffffffffff1681526020019081526020015f205f8381526020019081526020015f205f9054906101000a900460ff1615151461072c576040517f08c379a000000000000000000000000000000000000000000000000000000000815260040161072390610fa9565b60405180910390fd5b60025f3373ffffffffffffffffffffffffffffffffffffffff1673ffffffffffffffffffffffffffffffffffffffff1681526020019081526020015f205f81548092919061077990610dfb565b9190505550600160035f3373ffffffffffffffffffffffffffffffffffffffff1673ffffffffffffffffffffffffffffffffffffffff1681526020019081526020015f205f8381526020019081526020015f205f6101000a81548160ff021916908315150217905550803373ffffffffffffffffffffffffffffffffffffffff167fa72a25288e5e7c2bef56ad47aa60fb25f4da2948f9b3fa603c97dc4cfc8fe1b860405160405180910390a350565b5f604051905090565b5f80fd5b5f80fd5b5f80fd5b5f80fd5b5f601f19601f8301169050919050565b7f4e487b71000000000000000000000000000000000000000000000000000000005f52604160045260245ffd5b61088882610842565b810181811067ffffffffffffffff821117156108a7576108a6610852565b5b80604052505050565b5f6108b9610829565b90506108c5828261087f565b919050565b5f67ffffffffffffffff8211156108e4576108e3610852565b5b6108ed82610842565b9050602081019050919050565b828183375f83830152505050565b5f61091a610915846108ca565b6108b0565b9050828152602081018484840111156109365761093561083e565b5b6109418482856108fa565b509392505050565b5f82601f83011261095d5761095c61083a565b5b813561096d848260208601610908565b91505092915050565b5f806040838503121561098c5761098b610832565b5b5f83013567ffffffffffffffff8111156109a9576109a8610836565b5b6109b585828601610949565b925050602083013567ffffffffffffffff8111156109d6576109d5610836565b5b6109e285828601610949565b9150509250929050565b5f73ffffffffffffffffffffffffffffffffffffffff82169050919050565b5f610a15826109ec565b9050919050565b610a2581610a0b565b8114610a2f575f80fd5b50565b5f81359050610a4081610a1c565b92915050565b5f60208284031215610a5b57610a5a610832565b5b5f610a6884828501610a32565b91505092915050565b5f819050919050565b610a8381610a71565b82525050565b5f602082019050610a9c5f830184610a7a565b92915050565b5f819050919050565b5f610ac5610ac0610abb846109ec565b610aa2565b6109ec565b9050919050565b5f610ad682610aab565b9050919050565b5f610ae782610acc565b9050919050565b610af781610add565b82525050565b5f602082019050610b105f830184610aee565b92915050565b610b1f81610a71565b8114610b29575f80fd5b50565b5f81359050610b3a81610b16565b92915050565b5f8060408385031215610b5657610b55610832565b5b5f610b6385828601610a32565b9250506020610b7485828601610b2c565b9150509250929050565b5f8115159050919050565b610b9281610b7e565b82525050565b5f602082019050610bab5f830184610b89565b92915050565b5f81519050919050565b5f82825260208201905092915050565b5f819050602082019050919050565b610be381610a71565b82525050565b5f610bf48383610bda565b60208301905092915050565b5f602082019050919050565b5f610c1682610bb1565b610c208185610bbb565b9350610c2b83610bcb565b805f5b83811015610c5b578151610c428882610be9565b9750610c4d83610c00565b925050600181019050610c2e565b5085935050505092915050565b5f6020820190508181035f830152610c808184610c0c565b905092915050565b5f60208284031215610c9d57610c9c610832565b5b5f610caa84828501610b2c565b91505092915050565b5f81519050919050565b5f82825260208201905092915050565b5f5b83811015610cea578082015181840152602081019050610ccf565b5f8484015250505050565b5f610cff82610cb3565b610d098185610cbd565b9350610d19818560208601610ccd565b610d2281610842565b840191505092915050565b5f6040820190508181035f830152610d458185610cf5565b90508181036020830152610d598184610cf5565b90509392505050565b5f81519050610d7081610b16565b92915050565b5f60208284031215610d8b57610d8a610832565b5b5f610d9884828501610d62565b91505092915050565b7f4e487b71000000000000000000000000000000000000000000000000000000005f52603260045260245ffd5b7f4e487b71000000000000000000000000000000000000000000000000000000005f52601160045260245ffd5b5f610e0582610a71565b91507fffffffffffffffffffffffffffffffffffffffffffffffffffffffffffffffff8203610e3757610e36610dce565b5b600182019050919050565b7f426f6f6b20686173206e6f74206265656e2069737375656420627920796f75005f82015250565b5f610e76601f83610cbd565b9150610e8182610e42565b602082019050919050565b5f6020820190508181035f830152610ea381610e6a565b9050919050565b5f610eb482610a71565b91505f8203610ec657610ec5610dce565b5b600182039050919050565b7f426f6f6b20646f6573206e6f74206578697374000000000000000000000000005f82015250565b5f610f05601383610cbd565b9150610f1082610ed1565b602082019050919050565b5f6020820190508181035f830152610f3281610ef9565b9050919050565b7f426f6f6b2068617320616c7265616479206265656e20697373756564206279205f8201527f796f750000000000000000000000000000000000000000000000000000000000602082015250565b5f610f93602383610cbd565b9150610f9e82610f39565b604082019050919050565b5f6020820190508181035f830152610fc081610f87565b905091905056fea26469706673582212200cc4dba3e48149333359ad4218b3742639c084cda6534eb6c8cd0ccb2b9fa7ee64736f6c63430008140033",
  "immutableReferences": {},
  "source": "// SPDX-License-Identifier: GPL-3.0\r\npragma solidity >=0.4.16 <0.9.0;\r\n\r\nimport \"./bookToken.sol\";\r\nimport \"./user.sol\";\r\n\r\ncontract Library {\r\n    address private bookTokenAddress;\r\n    bookToken public bookTokenContract;\r\n\r\n    constructor(address _bookTokenAddress) {\r\n        bookTokenAddress = _bookTokenAddress;\r\n        bookTokenContract = bookToken(bookTokenAddress);\r\n    }\r\n\r\n    mapping(address => uint256) public bookBalance;\r\n    mapping(address => mapping(uint256 => bool)) public booksIssued;\r\n\r\n    event bookBorrowed(address indexed _borrower, uint256 indexed _bookId);\r\n    event bookReturned(address indexed _borrower, uint256 indexed _bookId);\r\n\r\n    function registerUser(string memory name, string memory email) public {\r\n        user userContract = user(msg.sender);\r\n        userContract.registerUser(name, email);\r\n    }\r\n\r\n    function bookBorrow(uint256 _bookId) public {\r\n        require(\r\n            bookTokenContract.getBookCopies(_bookId) > 0,\r\n            \"Book does not exist\"\r\n        );\r\n\r\n        require(\r\n            booksIssued[msg.sender][_bookId] == false,\r\n            \"Book has already been issued by you\"\r\n        );\r\n\r\n        bookBalance[msg.sender]++;\r\n        booksIssued[msg.sender][_bookId] = true;\r\n\r\n        emit bookBorrowed(msg.sender, _bookId);\r\n    }\r\n\r\n    function returnBook(uint256 _bookId) public {\r\n        require(\r\n            booksIssued[msg.sender][_bookId] == true,\r\n            \"Book has not been issued by you\"\r\n        );\r\n\r\n        bookBalance[msg.sender]--;\r\n        booksIssued[msg.sender][_bookId] = false;\r\n\r\n        emit bookReturned(msg.sender, _bookId);\r\n    }\r\n\r\n    function getBorrwedBooks() public view returns (uint256[] memory) {\r\n        uint256[] memory bookIds = new uint256[](bookBalance[msg.sender]);\r\n        uint256 count = 0;\r\n\r\n        for (uint256 i = 1; i <= bookTokenContract.totalBooks(); i++) {\r\n            if (booksIssued[msg.sender][i] == true) {\r\n                bookIds[count] = i;\r\n                count++;\r\n            }\r\n        }\r\n\r\n        return bookIds;\r\n    }\r\n\r\n    // The booksIssued mapping can only take boolean values for whether the user already holds a particular copy of the title.\r\n    // This functionality is used in bookBorrow, bookReturned and getBorrowedBooks functions.\r\n}\r\n",
  "sourcePath": "C:\\Users\\DELL\\Desktop\\Side Projects\\Librarium\\contracts\\library.sol",
  "compiler": {
    "name": "solc",
    "version": "0.8.20+commit.a1b79de6.Emscripten.clang"
  },
  "schemaVersion": "3.4.14",
  "updatedAt": "2023-05-21T18:14:34.228Z",
  "devdoc": {
    "kind": "dev",
    "methods": {},
    "version": 1
  },
  "userdoc": {
    "kind": "user",
    "methods": {},
    "version": 1
  }
}