{
  "contractName": "Library",
  "abi": [
    {
      "inputs": [
        {
          "internalType": "string",
          "name": "_name",
          "type": "string"
        },
        {
          "internalType": "string",
          "name": "_location",
          "type": "string"
        },
        {
          "internalType": "string",
          "name": "_email",
          "type": "string"
        },
        {
          "internalType": "string",
          "name": "_phone",
          "type": "string"
        },
        {
          "internalType": "uint256",
          "name": "_maxHolds",
          "type": "uint256"
        }
      ],
      "stateMutability": "nonpayable",
      "type": "constructor"
    },
    {
      "anonymous": false,
      "inputs": [
        {
          "indexed": true,
          "internalType": "address",
          "name": "_borrower",
          "type": "address"
        },
        {
          "indexed": true,
          "internalType": "uint256",
          "name": "_bookId",
          "type": "uint256"
        },
        {
          "indexed": false,
          "internalType": "uint256",
          "name": "_bookBalance",
          "type": "uint256"
        }
      ],
      "name": "bookBorrowed",
      "type": "event"
    },
    {
      "anonymous": false,
      "inputs": [
        {
          "indexed": true,
          "internalType": "address",
          "name": "_borrower",
          "type": "address"
        },
        {
          "indexed": true,
          "internalType": "uint256",
          "name": "_bookId",
          "type": "uint256"
        },
        {
          "indexed": true,
          "internalType": "uint256",
          "name": "_bookBalance",
          "type": "uint256"
        }
      ],
      "name": "bookReturned",
      "type": "event"
    },
    {
      "inputs": [
        {
          "internalType": "address",
          "name": "",
          "type": "address"
        }
      ],
      "name": "bookBalance",
      "outputs": [
        {
          "internalType": "uint256",
          "name": "",
          "type": "uint256"
        }
      ],
      "stateMutability": "view",
      "type": "function",
      "constant": true
    },
    {
      "inputs": [],
      "name": "bookTokenAddress",
      "outputs": [
        {
          "internalType": "address",
          "name": "",
          "type": "address"
        }
      ],
      "stateMutability": "view",
      "type": "function",
      "constant": true
    },
    {
      "inputs": [],
      "name": "bookTokenContract",
      "outputs": [
        {
          "internalType": "contract bookToken",
          "name": "",
          "type": "address"
        }
      ],
      "stateMutability": "view",
      "type": "function",
      "constant": true
    },
    {
      "inputs": [
        {
          "internalType": "address",
          "name": "",
          "type": "address"
        },
        {
          "internalType": "uint256",
          "name": "",
          "type": "uint256"
        }
      ],
      "name": "booksIssued",
      "outputs": [
        {
          "internalType": "bool",
          "name": "",
          "type": "bool"
        }
      ],
      "stateMutability": "view",
      "type": "function",
      "constant": true
    },
    {
      "inputs": [],
      "name": "libraryDetails",
      "outputs": [
        {
          "internalType": "string",
          "name": "name",
          "type": "string"
        },
        {
          "internalType": "string",
          "name": "location",
          "type": "string"
        },
        {
          "internalType": "string",
          "name": "email",
          "type": "string"
        },
        {
          "internalType": "string",
          "name": "phone",
          "type": "string"
        },
        {
          "internalType": "uint256",
          "name": "maxHolds",
          "type": "uint256"
        }
      ],
      "stateMutability": "view",
      "type": "function",
      "constant": true
    },
    {
      "inputs": [],
      "name": "userAddress",
      "outputs": [
        {
          "internalType": "address",
          "name": "",
          "type": "address"
        }
      ],
      "stateMutability": "view",
      "type": "function",
      "constant": true
    },
    {
      "inputs": [],
      "name": "userContract",
      "outputs": [
        {
          "internalType": "contract user",
          "name": "",
          "type": "address"
        }
      ],
      "stateMutability": "view",
      "type": "function",
      "constant": true
    },
    {
      "inputs": [],
      "name": "getLibraryDetails",
      "outputs": [
        {
          "components": [
            {
              "internalType": "string",
              "name": "name",
              "type": "string"
            },
            {
              "internalType": "string",
              "name": "location",
              "type": "string"
            },
            {
              "internalType": "string",
              "name": "email",
              "type": "string"
            },
            {
              "internalType": "string",
              "name": "phone",
              "type": "string"
            },
            {
              "internalType": "uint256",
              "name": "maxHolds",
              "type": "uint256"
            }
          ],
          "internalType": "struct Library.Lib_Details",
          "name": "",
          "type": "tuple"
        }
      ],
      "stateMutability": "view",
      "type": "function",
      "constant": true
    },
    {
      "inputs": [],
      "name": "getBookTokenAddress",
      "outputs": [
        {
          "internalType": "address",
          "name": "",
          "type": "address"
        }
      ],
      "stateMutability": "view",
      "type": "function",
      "constant": true
    },
    {
      "inputs": [],
      "name": "getUserContractAddress",
      "outputs": [
        {
          "internalType": "address",
          "name": "",
          "type": "address"
        }
      ],
      "stateMutability": "view",
      "type": "function",
      "constant": true
    },
    {
      "inputs": [
        {
          "internalType": "address",
          "name": "_userAddress",
          "type": "address"
        },
        {
          "internalType": "string",
          "name": "name",
          "type": "string"
        },
        {
          "internalType": "string",
          "name": "email",
          "type": "string"
        }
      ],
      "name": "registerUser",
      "outputs": [],
      "stateMutability": "nonpayable",
      "type": "function"
    },
    {
      "inputs": [
        {
          "internalType": "string",
          "name": "_title",
          "type": "string"
        },
        {
          "internalType": "string",
          "name": "_author",
          "type": "string"
        },
        {
          "internalType": "uint256",
          "name": "_copies",
          "type": "uint256"
        },
        {
          "internalType": "string",
          "name": "_isbn",
          "type": "string"
        }
      ],
      "name": "addBook",
      "outputs": [],
      "stateMutability": "nonpayable",
      "type": "function"
    },
    {
      "inputs": [
        {
          "internalType": "address",
          "name": "_userAddress",
          "type": "address"
        },
        {
          "internalType": "uint256",
          "name": "_bookId",
          "type": "uint256"
        }
      ],
      "name": "bookBorrow",
      "outputs": [],
      "stateMutability": "nonpayable",
      "type": "function"
    },
    {
      "inputs": [
        {
          "internalType": "address",
          "name": "_userAddress",
          "type": "address"
        },
        {
          "internalType": "uint256",
          "name": "_bookId",
          "type": "uint256"
        }
      ],
      "name": "bookReturn",
      "outputs": [],
      "stateMutability": "nonpayable",
      "type": "function"
    }
  ],
  "bytecode": "0x608060405234801562000010575f80fd5b50604051620057243803806200572483398181016040528101906200003691906200043f565b604051620000449062000266565b604051809103905ff0801580156200005e573d5f803e3d5ffd5b5060075f6101000a81548173ffffffffffffffffffffffffffffffffffffffff021916908373ffffffffffffffffffffffffffffffffffffffff16021790555060075f9054906101000a900473ffffffffffffffffffffffffffffffffffffffff1660055f6101000a81548173ffffffffffffffffffffffffffffffffffffffff021916908373ffffffffffffffffffffffffffffffffffffffff1602179055506040516200010d9062000274565b604051809103905ff08015801562000127573d5f803e3d5ffd5b5060085f6101000a81548173ffffffffffffffffffffffffffffffffffffffff021916908373ffffffffffffffffffffffffffffffffffffffff16021790555060085f9054906101000a900473ffffffffffffffffffffffffffffffffffffffff1660065f6101000a81548173ffffffffffffffffffffffffffffffffffffffff021916908373ffffffffffffffffffffffffffffffffffffffff1602179055506040518060a00160405280868152602001858152602001848152602001838152602001828152505f80820151815f0190816200020591906200076d565b5060208201518160010190816200021d91906200076d565b5060408201518160020190816200023591906200076d565b5060608201518160030190816200024d91906200076d565b5060808201518160040155905050505050505062000851565b611835806200261083390190565b6118df8062003e4583390190565b5f604051905090565b5f80fd5b5f80fd5b5f80fd5b5f80fd5b5f601f19601f8301169050919050565b7f4e487b71000000000000000000000000000000000000000000000000000000005f52604160045260245ffd5b620002e3826200029b565b810181811067ffffffffffffffff82111715620003055762000304620002ab565b5b80604052505050565b5f6200031962000282565b9050620003278282620002d8565b919050565b5f67ffffffffffffffff821115620003495762000348620002ab565b5b62000354826200029b565b9050602081019050919050565b5f5b838110156200038057808201518184015260208101905062000363565b5f8484015250505050565b5f620003a16200039b846200032c565b6200030e565b905082815260208101848484011115620003c057620003bf62000297565b5b620003cd84828562000361565b509392505050565b5f82601f830112620003ec57620003eb62000293565b5b8151620003fe8482602086016200038b565b91505092915050565b5f819050919050565b6200041b8162000407565b811462000426575f80fd5b50565b5f81519050620004398162000410565b92915050565b5f805f805f60a086880312156200045b576200045a6200028b565b5b5f86015167ffffffffffffffff8111156200047b576200047a6200028f565b5b6200048988828901620003d5565b955050602086015167ffffffffffffffff811115620004ad57620004ac6200028f565b5b620004bb88828901620003d5565b945050604086015167ffffffffffffffff811115620004df57620004de6200028f565b5b620004ed88828901620003d5565b935050606086015167ffffffffffffffff8111156200051157620005106200028f565b5b6200051f88828901620003d5565b9250506080620005328882890162000429565b9150509295509295909350565b5f81519050919050565b7f4e487b71000000000000000000000000000000000000000000000000000000005f52602260045260245ffd5b5f60028204905060018216806200058e57607f821691505b602082108103620005a457620005a362000549565b5b50919050565b5f819050815f5260205f209050919050565b5f6020601f8301049050919050565b5f82821b905092915050565b5f60088302620006087fffffffffffffffffffffffffffffffffffffffffffffffffffffffffffffffff82620005cb565b620006148683620005cb565b95508019841693508086168417925050509392505050565b5f819050919050565b5f620006556200064f620006498462000407565b6200062c565b62000407565b9050919050565b5f819050919050565b620006708362000635565b620006886200067f826200065c565b848454620005d7565b825550505050565b5f90565b6200069e62000690565b620006ab81848462000665565b505050565b5b81811015620006d257620006c65f8262000694565b600181019050620006b1565b5050565b601f8211156200072157620006eb81620005aa565b620006f684620005bc565b8101602085101562000706578190505b6200071e6200071585620005bc565b830182620006b0565b50505b505050565b5f82821c905092915050565b5f620007435f198460080262000726565b1980831691505092915050565b5f6200075d838362000732565b9150826002028217905092915050565b62000778826200053f565b67ffffffffffffffff811115620007945762000793620002ab565b5b620007a0825462000576565b620007ad828285620006d6565b5f60209050601f831160018114620007e3575f8415620007ce578287015190505b620007da858262000750565b86555062000849565b601f198416620007f386620005aa565b5f5b828110156200081c57848901518255600182019150602085019450602081019050620007f5565b868310156200083c578489015162000838601f89168262000732565b8355505b6001600288020188555050505b505050505050565b611db1806200085f5f395ff3fe608060405234801561000f575f80fd5b50600436106100e8575f3560e01c8063a59f960f1161008a578063df8a1efe11610064578063df8a1efe1461023a578063e4128fb314610258578063ee92f96b14610276578063f2a4600614610292576100e8565b8063a59f960f146101de578063c087c91814610200578063db0c87c91461021e576100e8565b80635fd3f129116100c65780635fd3f1291461015657806384bedc11146101745780638f45ffd3146101a4578063a0633d45146101c0576100e8565b80635000596b146100ec578063598e14551461010a5780635e8f58f414610126575b5f80fd5b6100f46102b0565b6040516101019190611301565b60405180910390f35b610124600480360381019061011f919061149a565b6102d5565b005b610140600480360381019061013b919061158d565b610368565b60405161014d91906115c7565b60405180910390f35b61015e61037d565b60405161016b9190611600565b60405180910390f35b61018e60048036038101906101899190611619565b6103a2565b60405161019b9190611671565b60405180910390f35b6101be60048036038101906101b99190611619565b6103cc565b005b6101c86108ea565b6040516101d59190611699565b60405180910390f35b6101e6610912565b6040516101f795949392919061172c565b60405180910390f35b610208610b4c565b6040516102159190611699565b60405180910390f35b61023860048036038101906102339190611799565b610b74565b005b610242610c04565b60405161024f9190611900565b60405180910390f35b610260610e66565b60405161026d9190611699565b60405180910390f35b610290600480360381019061028b9190611619565b610e8b565b005b61029a611234565b6040516102a79190611699565b60405180910390f35b60085f9054906101000a900473ffffffffffffffffffffffffffffffffffffffff1681565b60075f9054906101000a900473ffffffffffffffffffffffffffffffffffffffff1673ffffffffffffffffffffffffffffffffffffffff1663598e1455858585856040518563ffffffff1660e01b81526004016103359493929190611920565b5f604051808303815f87803b15801561034c575f80fd5b505af115801561035e573d5f803e3d5ffd5b5050505050505050565b6009602052805f5260405f205f915090505481565b60075f9054906101000a900473ffffffffffffffffffffffffffffffffffffffff1681565b600a602052815f5260405f20602052805f5260405f205f915091509054906101000a900460ff1681565b60075f9054906101000a900473ffffffffffffffffffffffffffffffffffffffff1673ffffffffffffffffffffffffffffffffffffffff1663a42a23d2826040518263ffffffff1660e01b815260040161042691906115c7565b602060405180830381865afa158015610441573d5f803e3d5ffd5b505050506040513d601f19601f8201168201806040525081019061046591906119a2565b6104a4576040517f08c379a000000000000000000000000000000000000000000000000000000000815260040161049b90611a17565b60405180910390fd5b5f1515600a5f8473ffffffffffffffffffffffffffffffffffffffff1673ffffffffffffffffffffffffffffffffffffffff1681526020019081526020015f205f8381526020019081526020015f205f9054906101000a900460ff16151514610542576040517f08c379a000000000000000000000000000000000000000000000000000000000815260040161053990611aa5565b60405180910390fd5b5f60095f8473ffffffffffffffffffffffffffffffffffffffff1673ffffffffffffffffffffffffffffffffffffffff1681526020019081526020015f2054036105ce57600160095f8473ffffffffffffffffffffffffffffffffffffffff1673ffffffffffffffffffffffffffffffffffffffff1681526020019081526020015f2081905550610623565b600160095f8473ffffffffffffffffffffffffffffffffffffffff1673ffffffffffffffffffffffffffffffffffffffff1681526020019081526020015f205f82825461061b9190611af0565b925050819055505b6001600a5f8473ffffffffffffffffffffffffffffffffffffffff1673ffffffffffffffffffffffffffffffffffffffff1681526020019081526020015f205f8381526020019081526020015f205f6101000a81548160ff02191690831515021790555060085f9054906101000a900473ffffffffffffffffffffffffffffffffffffffff1673ffffffffffffffffffffffffffffffffffffffff1663fe1777008360095f8673ffffffffffffffffffffffffffffffffffffffff1673ffffffffffffffffffffffffffffffffffffffff1681526020019081526020015f20546040518363ffffffff1660e01b8152600401610720929190611b23565b5f604051808303815f87803b158015610737575f80fd5b505af1158015610749573d5f803e3d5ffd5b505050505f6004015460095f8473ffffffffffffffffffffffffffffffffffffffff1673ffffffffffffffffffffffffffffffffffffffff1681526020019081526020015f205411156107d1576040517f08c379a00000000000000000000000000000000000000000000000000000000081526004016107c890611bba565b60405180910390fd5b60085f9054906101000a900473ffffffffffffffffffffffffffffffffffffffff1673ffffffffffffffffffffffffffffffffffffffff166340405f7e83836040518363ffffffff1660e01b815260040161082d929190611b23565b5f604051808303815f87803b158015610844575f80fd5b505af1158015610856573d5f803e3d5ffd5b50505050808273ffffffffffffffffffffffffffffffffffffffff167f88be6caf99ff92a5b37beab82fff9ca6f5fc834dfe7da065f7545cb6885026bb60095f8673ffffffffffffffffffffffffffffffffffffffff1673ffffffffffffffffffffffffffffffffffffffff1681526020019081526020015f20546040516108de91906115c7565b60405180910390a35050565b5f60055f9054906101000a900473ffffffffffffffffffffffffffffffffffffffff16905090565b5f805f01805461092190611c05565b80601f016020809104026020016040519081016040528092919081815260200182805461094d90611c05565b80156109985780601f1061096f57610100808354040283529160200191610998565b820191905f5260205f20905b81548152906001019060200180831161097b57829003601f168201915b5050505050908060010180546109ad90611c05565b80601f01602080910402602001604051908101604052809291908181526020018280546109d990611c05565b8015610a245780601f106109fb57610100808354040283529160200191610a24565b820191905f5260205f20905b815481529060010190602001808311610a0757829003601f168201915b505050505090806002018054610a3990611c05565b80601f0160208091040260200160405190810160405280929190818152602001828054610a6590611c05565b8015610ab05780601f10610a8757610100808354040283529160200191610ab0565b820191905f5260205f20905b815481529060010190602001808311610a9357829003601f168201915b505050505090806003018054610ac590611c05565b80601f0160208091040260200160405190810160405280929190818152602001828054610af190611c05565b8015610b3c5780601f10610b1357610100808354040283529160200191610b3c565b820191905f5260205f20905b815481529060010190602001808311610b1f57829003601f168201915b5050505050908060040154905085565b5f60065f9054906101000a900473ffffffffffffffffffffffffffffffffffffffff16905090565b60085f9054906101000a900473ffffffffffffffffffffffffffffffffffffffff1673ffffffffffffffffffffffffffffffffffffffff1663db0c87c98484846040518463ffffffff1660e01b8152600401610bd293929190611c35565b5f604051808303815f87803b158015610be9575f80fd5b505af1158015610bfb573d5f803e3d5ffd5b50505050505050565b610c0c611259565b5f6040518060a00160405290815f82018054610c2790611c05565b80601f0160208091040260200160405190810160405280929190818152602001828054610c5390611c05565b8015610c9e5780601f10610c7557610100808354040283529160200191610c9e565b820191905f5260205f20905b815481529060010190602001808311610c8157829003601f168201915b50505050508152602001600182018054610cb790611c05565b80601f0160208091040260200160405190810160405280929190818152602001828054610ce390611c05565b8015610d2e5780601f10610d0557610100808354040283529160200191610d2e565b820191905f5260205f20905b815481529060010190602001808311610d1157829003601f168201915b50505050508152602001600282018054610d4790611c05565b80601f0160208091040260200160405190810160405280929190818152602001828054610d7390611c05565b8015610dbe5780601f10610d9557610100808354040283529160200191610dbe565b820191905f5260205f20905b815481529060010190602001808311610da157829003601f168201915b50505050508152602001600382018054610dd790611c05565b80601f0160208091040260200160405190810160405280929190818152602001828054610e0390611c05565b8015610e4e5780601f10610e2557610100808354040283529160200191610e4e565b820191905f5260205f20905b815481529060010190602001808311610e3157829003601f168201915b50505050508152602001600482015481525050905090565b60065f9054906101000a900473ffffffffffffffffffffffffffffffffffffffff1681565b5f60095f8473ffffffffffffffffffffffffffffffffffffffff1673ffffffffffffffffffffffffffffffffffffffff1681526020019081526020015f205411610f0a576040517f08c379a0000000000000000000000000000000000000000000000000000000008152600401610f0190611cc2565b60405180910390fd5b60011515600a5f8473ffffffffffffffffffffffffffffffffffffffff1673ffffffffffffffffffffffffffffffffffffffff1681526020019081526020015f205f8381526020019081526020015f205f9054906101000a900460ff16151514610fa9576040517f08c379a0000000000000000000000000000000000000000000000000000000008152600401610fa090611d2a565b60405180910390fd5b600160095f8473ffffffffffffffffffffffffffffffffffffffff1673ffffffffffffffffffffffffffffffffffffffff1681526020019081526020015f205f828254610ff69190611d48565b925050819055505f600a5f8473ffffffffffffffffffffffffffffffffffffffff1673ffffffffffffffffffffffffffffffffffffffff1681526020019081526020015f205f8381526020019081526020015f205f6101000a81548160ff02191690831515021790555060085f9054906101000a900473ffffffffffffffffffffffffffffffffffffffff1673ffffffffffffffffffffffffffffffffffffffff1663fe1777008360095f8673ffffffffffffffffffffffffffffffffffffffff1673ffffffffffffffffffffffffffffffffffffffff1681526020019081526020015f20546040518363ffffffff1660e01b81526004016110f9929190611b23565b5f604051808303815f87803b158015611110575f80fd5b505af1158015611122573d5f803e3d5ffd5b5050505060085f9054906101000a900473ffffffffffffffffffffffffffffffffffffffff1673ffffffffffffffffffffffffffffffffffffffff1663d81896cb83836040518363ffffffff1660e01b8152600401611182929190611b23565b5f6040518083038186803b158015611198575f80fd5b505afa1580156111aa573d5f803e3d5ffd5b5050505060095f8373ffffffffffffffffffffffffffffffffffffffff1673ffffffffffffffffffffffffffffffffffffffff1681526020019081526020015f2054818373ffffffffffffffffffffffffffffffffffffffff167f058f338aac010b0bcf9a4504585da8288b9f28349e4907efd601b2edcb5b98c260405160405180910390a45050565b60055f9054906101000a900473ffffffffffffffffffffffffffffffffffffffff1681565b6040518060a00160405280606081526020016060815260200160608152602001606081526020015f81525090565b5f73ffffffffffffffffffffffffffffffffffffffff82169050919050565b5f819050919050565b5f6112c96112c46112bf84611287565b6112a6565b611287565b9050919050565b5f6112da826112af565b9050919050565b5f6112eb826112d0565b9050919050565b6112fb816112e1565b82525050565b5f6020820190506113145f8301846112f2565b92915050565b5f604051905090565b5f80fd5b5f80fd5b5f80fd5b5f80fd5b5f601f19601f8301169050919050565b7f4e487b71000000000000000000000000000000000000000000000000000000005f52604160045260245ffd5b61137982611333565b810181811067ffffffffffffffff8211171561139857611397611343565b5b80604052505050565b5f6113aa61131a565b90506113b68282611370565b919050565b5f67ffffffffffffffff8211156113d5576113d4611343565b5b6113de82611333565b9050602081019050919050565b828183375f83830152505050565b5f61140b611406846113bb565b6113a1565b9050828152602081018484840111156114275761142661132f565b5b6114328482856113eb565b509392505050565b5f82601f83011261144e5761144d61132b565b5b813561145e8482602086016113f9565b91505092915050565b5f819050919050565b61147981611467565b8114611483575f80fd5b50565b5f8135905061149481611470565b92915050565b5f805f80608085870312156114b2576114b1611323565b5b5f85013567ffffffffffffffff8111156114cf576114ce611327565b5b6114db8782880161143a565b945050602085013567ffffffffffffffff8111156114fc576114fb611327565b5b6115088782880161143a565b935050604061151987828801611486565b925050606085013567ffffffffffffffff81111561153a57611539611327565b5b6115468782880161143a565b91505092959194509250565b5f61155c82611287565b9050919050565b61156c81611552565b8114611576575f80fd5b50565b5f8135905061158781611563565b92915050565b5f602082840312156115a2576115a1611323565b5b5f6115af84828501611579565b91505092915050565b6115c181611467565b82525050565b5f6020820190506115da5f8301846115b8565b92915050565b5f6115ea826112d0565b9050919050565b6115fa816115e0565b82525050565b5f6020820190506116135f8301846115f1565b92915050565b5f806040838503121561162f5761162e611323565b5b5f61163c85828601611579565b925050602061164d85828601611486565b9150509250929050565b5f8115159050919050565b61166b81611657565b82525050565b5f6020820190506116845f830184611662565b92915050565b61169381611552565b82525050565b5f6020820190506116ac5f83018461168a565b92915050565b5f81519050919050565b5f82825260208201905092915050565b5f5b838110156116e95780820151818401526020810190506116ce565b5f8484015250505050565b5f6116fe826116b2565b61170881856116bc565b93506117188185602086016116cc565b61172181611333565b840191505092915050565b5f60a0820190508181035f83015261174481886116f4565b9050818103602083015261175881876116f4565b9050818103604083015261176c81866116f4565b9050818103606083015261178081856116f4565b905061178f60808301846115b8565b9695505050505050565b5f805f606084860312156117b0576117af611323565b5b5f6117bd86828701611579565b935050602084013567ffffffffffffffff8111156117de576117dd611327565b5b6117ea8682870161143a565b925050604084013567ffffffffffffffff81111561180b5761180a611327565b5b6118178682870161143a565b9150509250925092565b5f82825260208201905092915050565b5f61183b826116b2565b6118458185611821565b93506118558185602086016116cc565b61185e81611333565b840191505092915050565b61187281611467565b82525050565b5f60a083015f8301518482035f8601526118928282611831565b915050602083015184820360208601526118ac8282611831565b915050604083015184820360408601526118c68282611831565b915050606083015184820360608601526118e08282611831565b91505060808301516118f56080860182611869565b508091505092915050565b5f6020820190508181035f8301526119188184611878565b905092915050565b5f6080820190508181035f83015261193881876116f4565b9050818103602083015261194c81866116f4565b905061195b60408301856115b8565b818103606083015261196d81846116f4565b905095945050505050565b61198181611657565b811461198b575f80fd5b50565b5f8151905061199c81611978565b92915050565b5f602082840312156119b7576119b6611323565b5b5f6119c48482850161198e565b91505092915050565b7f426f6f6b20646f6573206e6f74206578697374000000000000000000000000005f82015250565b5f611a016013836116bc565b9150611a0c826119cd565b602082019050919050565b5f6020820190508181035f830152611a2e816119f5565b9050919050565b7f426f6f6b2068617320616c7265616479206265656e20697373756564206279205f8201527f796f750000000000000000000000000000000000000000000000000000000000602082015250565b5f611a8f6023836116bc565b9150611a9a82611a35565b604082019050919050565b5f6020820190508181035f830152611abc81611a83565b9050919050565b7f4e487b71000000000000000000000000000000000000000000000000000000005f52601160045260245ffd5b5f611afa82611467565b9150611b0583611467565b9250828201905080821115611b1d57611b1c611ac3565b5b92915050565b5f604082019050611b365f83018561168a565b611b4360208301846115b8565b9392505050565b7f596f75206861766520657863656564656420746865206d6178696d756d206e755f8201527f6d626572206f6620686f6c647300000000000000000000000000000000000000602082015250565b5f611ba4602d836116bc565b9150611baf82611b4a565b604082019050919050565b5f6020820190508181035f830152611bd181611b98565b9050919050565b7f4e487b71000000000000000000000000000000000000000000000000000000005f52602260045260245ffd5b5f6002820490506001821680611c1c57607f821691505b602082108103611c2f57611c2e611bd8565b5b50919050565b5f606082019050611c485f83018661168a565b8181036020830152611c5a81856116f4565b90508181036040830152611c6e81846116f4565b9050949350505050565b7f596f752068617665206e6f20686f6c64730000000000000000000000000000005f82015250565b5f611cac6011836116bc565b9150611cb782611c78565b602082019050919050565b5f6020820190508181035f830152611cd981611ca0565b9050919050565b7f426f6f6b20686173206e6f74206265656e2069737375656420627920796f75005f82015250565b5f611d14601f836116bc565b9150611d1f82611ce0565b602082019050919050565b5f6020820190508181035f830152611d4181611d08565b9050919050565b5f611d5282611467565b9150611d5d83611467565b9250828203905081811115611d7557611d74611ac3565b5b9291505056fea2646970667358221220961803f8327263b771bd70fb4fd9b05567f05ee510f0b10bc1c2b4e2b4b4eac764736f6c63430008140033608060405234801561000f575f80fd5b506118188061001d5f395ff3fe608060405234801561000f575f80fd5b506004361061009c575f3560e01c8063a42a23d211610064578063a42a23d21461015b578063c0d019891461018b578063e9189aa5146101a7578063edc07913146101d7578063ffc1c2e6146102075761009c565b8063598e1455146100a057806368744046146100bc5780636ec4f4bf146100ef57806374ff48181461010d5780639f3497891461013d575b5f80fd5b6100ba60048036038101906100b59190610d8e565b610237565b005b6100d660048036038101906100d19190610e46565b61031f565b6040516100e69493929190610efa565b60405180910390f35b6100f76104dc565b6040516101049190610f52565b60405180910390f35b61012760048036038101906101229190610e46565b6104e2565b6040516101349190611030565b60405180910390f35b610145610720565b6040516101529190611179565b60405180910390f35b61017560048036038101906101709190610e46565b6109a3565b60405161018291906111b3565b60405180910390f35b6101a560048036038101906101a091906111cc565b610a22565b005b6101c160048036038101906101bc9190611264565b610aaa565b6040516101ce9190610f52565b60405180910390f35b6101f160048036038101906101ec91906112a2565b610ad5565b6040516101fe9190610f52565b60405180910390f35b610221600480360381019061021c9190610e46565b610b70565b60405161022e9190610f52565b60405180910390f35b6040518060800160405280858152602001848152602001838152602001828152505f80600180546102689190611316565b81526020019081526020015f205f820151815f0190816102889190611543565b50602082015181600101908161029e9190611543565b506040820151816002015560608201518160030190816102be9190611543565b5090505060015f8154809291906102d490611612565b91905055506001547ffdb5003c5673529a025856519bf3b990c87366e1b12f22d82eab9040e7af3905858585856040516103119493929190610efa565b60405180910390a250505050565b5f602052805f5260405f205f91509050805f01805461033d90611376565b80601f016020809104026020016040519081016040528092919081815260200182805461036990611376565b80156103b45780601f1061038b576101008083540402835291602001916103b4565b820191905f5260205f20905b81548152906001019060200180831161039757829003601f168201915b5050505050908060010180546103c990611376565b80601f01602080910402602001604051908101604052809291908181526020018280546103f590611376565b80156104405780601f1061041757610100808354040283529160200191610440565b820191905f5260205f20905b81548152906001019060200180831161042357829003601f168201915b50505050509080600201549080600301805461045b90611376565b80601f016020809104026020016040519081016040528092919081815260200182805461048790611376565b80156104d25780601f106104a9576101008083540402835291602001916104d2565b820191905f5260205f20905b8154815290600101906020018083116104b557829003601f168201915b5050505050905084565b60015481565b6104ea610be7565b6001548211806104f957505f82105b8061050557505f600154145b15610545576040517f08c379a000000000000000000000000000000000000000000000000000000000815260040161053c906116a3565b60405180910390fd5b5f808381526020019081526020015f206040518060800160405290815f8201805461056f90611376565b80601f016020809104026020016040519081016040528092919081815260200182805461059b90611376565b80156105e65780601f106105bd576101008083540402835291602001916105e6565b820191905f5260205f20905b8154815290600101906020018083116105c957829003601f168201915b505050505081526020016001820180546105ff90611376565b80601f016020809104026020016040519081016040528092919081815260200182805461062b90611376565b80156106765780601f1061064d57610100808354040283529160200191610676565b820191905f5260205f20905b81548152906001019060200180831161065957829003601f168201915b505050505081526020016002820154815260200160038201805461069990611376565b80601f01602080910402602001604051908101604052809291908181526020018280546106c590611376565b80156107105780601f106106e757610100808354040283529160200191610710565b820191905f5260205f20905b8154815290600101906020018083116106f357829003601f168201915b5050505050815250509050919050565b60605f60015467ffffffffffffffff81111561073f5761073e610c37565b5b60405190808252806020026020018201604052801561077857816020015b610765610be7565b81526020019060019003908161075d5790505b5090505f600190505b600154811161099b575f808281526020019081526020015f206040518060800160405290815f820180546107b490611376565b80601f01602080910402602001604051908101604052809291908181526020018280546107e090611376565b801561082b5780601f106108025761010080835404028352916020019161082b565b820191905f5260205f20905b81548152906001019060200180831161080e57829003601f168201915b5050505050815260200160018201805461084490611376565b80601f016020809104026020016040519081016040528092919081815260200182805461087090611376565b80156108bb5780601f10610892576101008083540402835291602001916108bb565b820191905f5260205f20905b81548152906001019060200180831161089e57829003601f168201915b50505050508152602001600282015481526020016003820180546108de90611376565b80601f016020809104026020016040519081016040528092919081815260200182805461090a90611376565b80156109555780601f1061092c57610100808354040283529160200191610955565b820191905f5260205f20905b81548152906001019060200180831161093857829003601f168201915b5050505050815250508260018361096c91906116c1565b8151811061097d5761097c6116f4565b5b6020026020010181905250808061099390611612565b915050610781565b508091505090565b5f6001548211806109b557505f600154145b156109f5576040517f08c379a00000000000000000000000000000000000000000000000000000000081526004016109ec906116a3565b60405180910390fd5b5f805f8481526020019081526020015f20600201541115610a195760019050610a1d565b5f90505b919050565b600154821180610a3157505f82105b80610a3d57505f600154145b15610a7d576040517f08c379a0000000000000000000000000000000000000000000000000000000008152600401610a74906116a3565b60405180910390fd5b805f808481526020019081526020015f206002015f828254610a9f9190611316565b925050819055505050565b6002602052815f5260405f208181548110610ac3575f80fd5b905f5260205f20015f91509150505481565b5f80600190505b6001548111610b665782604051602001610af69190611721565b604051602081830303815290604052805190602001205f808381526020019081526020015f20600301604051602001610b2f91906117c2565b6040516020818303038152906040528051906020012003610b535780915050610b6b565b8080610b5e90611612565b915050610adc565b505f90505b919050565b5f600154821180610b8057505f82105b80610b8c57505f600154145b15610bcc576040517f08c379a0000000000000000000000000000000000000000000000000000000008152600401610bc3906116a3565b60405180910390fd5b5f808381526020019081526020015f20600201549050919050565b604051806080016040528060608152602001606081526020015f8152602001606081525090565b5f604051905090565b5f80fd5b5f80fd5b5f80fd5b5f80fd5b5f601f19601f8301169050919050565b7f4e487b71000000000000000000000000000000000000000000000000000000005f52604160045260245ffd5b610c6d82610c27565b810181811067ffffffffffffffff82111715610c8c57610c8b610c37565b5b80604052505050565b5f610c9e610c0e565b9050610caa8282610c64565b919050565b5f67ffffffffffffffff821115610cc957610cc8610c37565b5b610cd282610c27565b9050602081019050919050565b828183375f83830152505050565b5f610cff610cfa84610caf565b610c95565b905082815260208101848484011115610d1b57610d1a610c23565b5b610d26848285610cdf565b509392505050565b5f82601f830112610d4257610d41610c1f565b5b8135610d52848260208601610ced565b91505092915050565b5f819050919050565b610d6d81610d5b565b8114610d77575f80fd5b50565b5f81359050610d8881610d64565b92915050565b5f805f8060808587031215610da657610da5610c17565b5b5f85013567ffffffffffffffff811115610dc357610dc2610c1b565b5b610dcf87828801610d2e565b945050602085013567ffffffffffffffff811115610df057610def610c1b565b5b610dfc87828801610d2e565b9350506040610e0d87828801610d7a565b925050606085013567ffffffffffffffff811115610e2e57610e2d610c1b565b5b610e3a87828801610d2e565b91505092959194509250565b5f60208284031215610e5b57610e5a610c17565b5b5f610e6884828501610d7a565b91505092915050565b5f81519050919050565b5f82825260208201905092915050565b5f5b83811015610ea8578082015181840152602081019050610e8d565b5f8484015250505050565b5f610ebd82610e71565b610ec78185610e7b565b9350610ed7818560208601610e8b565b610ee081610c27565b840191505092915050565b610ef481610d5b565b82525050565b5f6080820190508181035f830152610f128187610eb3565b90508181036020830152610f268186610eb3565b9050610f356040830185610eeb565b8181036060830152610f478184610eb3565b905095945050505050565b5f602082019050610f655f830184610eeb565b92915050565b5f82825260208201905092915050565b5f610f8582610e71565b610f8f8185610f6b565b9350610f9f818560208601610e8b565b610fa881610c27565b840191505092915050565b610fbc81610d5b565b82525050565b5f608083015f8301518482035f860152610fdc8282610f7b565b91505060208301518482036020860152610ff68282610f7b565b915050604083015161100b6040860182610fb3565b50606083015184820360608601526110238282610f7b565b9150508091505092915050565b5f6020820190508181035f8301526110488184610fc2565b905092915050565b5f81519050919050565b5f82825260208201905092915050565b5f819050602082019050919050565b5f608083015f8301518482035f8601526110938282610f7b565b915050602083015184820360208601526110ad8282610f7b565b91505060408301516110c26040860182610fb3565b50606083015184820360608601526110da8282610f7b565b9150508091505092915050565b5f6110f28383611079565b905092915050565b5f602082019050919050565b5f61111082611050565b61111a818561105a565b93508360208202850161112c8561106a565b805f5b85811015611167578484038952815161114885826110e7565b9450611153836110fa565b925060208a0199505060018101905061112f565b50829750879550505050505092915050565b5f6020820190508181035f8301526111918184611106565b905092915050565b5f8115159050919050565b6111ad81611199565b82525050565b5f6020820190506111c65f8301846111a4565b92915050565b5f80604083850312156111e2576111e1610c17565b5b5f6111ef85828601610d7a565b925050602061120085828601610d7a565b9150509250929050565b5f73ffffffffffffffffffffffffffffffffffffffff82169050919050565b5f6112338261120a565b9050919050565b61124381611229565b811461124d575f80fd5b50565b5f8135905061125e8161123a565b92915050565b5f806040838503121561127a57611279610c17565b5b5f61128785828601611250565b925050602061129885828601610d7a565b9150509250929050565b5f602082840312156112b7576112b6610c17565b5b5f82013567ffffffffffffffff8111156112d4576112d3610c1b565b5b6112e084828501610d2e565b91505092915050565b7f4e487b71000000000000000000000000000000000000000000000000000000005f52601160045260245ffd5b5f61132082610d5b565b915061132b83610d5b565b9250828201905080821115611343576113426112e9565b5b92915050565b7f4e487b71000000000000000000000000000000000000000000000000000000005f52602260045260245ffd5b5f600282049050600182168061138d57607f821691505b6020821081036113a05761139f611349565b5b50919050565b5f819050815f5260205f209050919050565b5f6020601f8301049050919050565b5f82821b905092915050565b5f600883026114027fffffffffffffffffffffffffffffffffffffffffffffffffffffffffffffffff826113c7565b61140c86836113c7565b95508019841693508086168417925050509392505050565b5f819050919050565b5f61144761144261143d84610d5b565b611424565b610d5b565b9050919050565b5f819050919050565b6114608361142d565b61147461146c8261144e565b8484546113d3565b825550505050565b5f90565b61148861147c565b611493818484611457565b505050565b5b818110156114b6576114ab5f82611480565b600181019050611499565b5050565b601f8211156114fb576114cc816113a6565b6114d5846113b8565b810160208510156114e4578190505b6114f86114f0856113b8565b830182611498565b50505b505050565b5f82821c905092915050565b5f61151b5f1984600802611500565b1980831691505092915050565b5f611533838361150c565b9150826002028217905092915050565b61154c82610e71565b67ffffffffffffffff81111561156557611564610c37565b5b61156f8254611376565b61157a8282856114ba565b5f60209050601f8311600181146115ab575f8415611599578287015190505b6115a38582611528565b86555061160a565b601f1984166115b9866113a6565b5f5b828110156115e0578489015182556001820191506020850194506020810190506115bb565b868310156115fd57848901516115f9601f89168261150c565b8355505b6001600288020188555050505b505050505050565b5f61161c82610d5b565b91507fffffffffffffffffffffffffffffffffffffffffffffffffffffffffffffffff820361164e5761164d6112e9565b5b600182019050919050565b7f426f6f6b20646f6573206e6f74206578697374000000000000000000000000005f82015250565b5f61168d601383610e7b565b915061169882611659565b602082019050919050565b5f6020820190508181035f8301526116ba81611681565b9050919050565b5f6116cb82610d5b565b91506116d683610d5b565b92508282039050818111156116ee576116ed6112e9565b5b92915050565b7f4e487b71000000000000000000000000000000000000000000000000000000005f52603260045260245ffd5b5f6020820190508181035f8301526117398184610eb3565b905092915050565b5f815461174d81611376565b6117578186610e7b565b9450600182165f81146117715760018114611787576117b9565b60ff1983168652811515602002860193506117b9565b611790856113a6565b5f5b838110156117b157815481890152600182019150602081019050611792565b808801955050505b50505092915050565b5f6020820190508181035f8301526117da8184611741565b90509291505056fea2646970667358221220858d1c388e6883a8a0fca007e05a5e2b7d7adcb7fd165752065b3c8cf16df41264736f6c6343000814003360806040525f600355348015610013575f80fd5b506118be806100215f395ff3fe608060405234801561000f575f80fd5b50600436106100b1575f3560e01c80639320b4741161006f5780639320b474146101af578063a87430ba146101cd578063bff1f9e1146101ff578063d81896cb1461021d578063db0c87c914610239578063fe17770014610255576100b1565b8062ce8e3e146100b557806340405f7e146100d357806347734892146100ef5780634aed47cf1461011f5780636f77926b1461014f5780638a03ad861461017f575b5f80fd5b6100bd610271565b6040516100ca919061101d565b60405180910390f35b6100ed60048036038101906100e891906110d2565b61051c565b005b61010960048036038101906101049190611110565b610584565b604051610116919061114a565b60405180910390f35b61013960048036038101906101349190611163565b6105cd565b604051610146919061119d565b60405180910390f35b61016960048036038101906101649190611110565b6105fd565b6040516101769190611224565b60405180910390f35b61019960048036038101906101949190611163565b6107d3565b6040516101a6919061119d565b60405180910390f35b6101b7610878565b6040516101c4919061119d565b60405180910390f35b6101e760048036038101906101e29190611110565b61089b565b6040516101f69392919061128c565b60405180910390f35b6102076109cd565b604051610214919061114a565b60405180910390f35b610237600480360381019061023291906110d2565b6109d3565b005b610253600480360381019061024e91906113fb565b610b1f565b005b61026f600480360381019061026a91906110d2565b610cd4565b005b60605f8060035467ffffffffffffffff811115610291576102906112d7565b5b6040519080825280602002602001820160405280156102ca57816020015b6102b7610d1d565b8152602001906001900390816102af5790505b5090505f600190505b60035481116105135760025f8281526020019081526020015f205f9054906101000a900473ffffffffffffffffffffffffffffffffffffffff16925060015f8473ffffffffffffffffffffffffffffffffffffffff1673ffffffffffffffffffffffffffffffffffffffff1681526020019081526020015f206040518060800160405290815f82018054610366906114b0565b80601f0160208091040260200160405190810160405280929190818152602001828054610392906114b0565b80156103dd5780601f106103b4576101008083540402835291602001916103dd565b820191905f5260205f20905b8154815290600101906020018083116103c057829003601f168201915b505050505081526020016001820180546103f6906114b0565b80601f0160208091040260200160405190810160405280929190818152602001828054610422906114b0565b801561046d5780601f106104445761010080835404028352916020019161046d565b820191905f5260205f20905b81548152906001019060200180831161045057829003601f168201915b5050505050815260200160028201548152602001600382018054806020026020016040519081016040528092919081815260200182805480156104cd57602002820191905f5260205f20905b8154815260200190600101908083116104b9575b505050505081525050826001836104e4919061150d565b815181106104f5576104f4611540565b5b6020026020010181905250808061050b9061156d565b9150506102d3565b50809250505090565b60015f8373ffffffffffffffffffffffffffffffffffffffff1673ffffffffffffffffffffffffffffffffffffffff1681526020019081526020015f2060030181908060018154018082558091505060019003905f5260205f20015f90919091909150555050565b5f60015f8373ffffffffffffffffffffffffffffffffffffffff1673ffffffffffffffffffffffffffffffffffffffff1681526020019081526020015f20600201549050919050565b6002602052805f5260405f205f915054906101000a900473ffffffffffffffffffffffffffffffffffffffff1681565b610605610d1d565b60015f8373ffffffffffffffffffffffffffffffffffffffff1673ffffffffffffffffffffffffffffffffffffffff1681526020019081526020015f206040518060800160405290815f8201805461065c906114b0565b80601f0160208091040260200160405190810160405280929190818152602001828054610688906114b0565b80156106d35780601f106106aa576101008083540402835291602001916106d3565b820191905f5260205f20905b8154815290600101906020018083116106b657829003601f168201915b505050505081526020016001820180546106ec906114b0565b80601f0160208091040260200160405190810160405280929190818152602001828054610718906114b0565b80156107635780601f1061073a57610100808354040283529160200191610763565b820191905f5260205f20905b81548152906001019060200180831161074657829003601f168201915b5050505050815260200160028201548152602001600382018054806020026020016040519081016040528092919081815260200182805480156107c357602002820191905f5260205f20905b8154815260200190600101908083116107af575b5050505050815250509050919050565b5f8073ffffffffffffffffffffffffffffffffffffffff1660025f8481526020019081526020015f205f9054906101000a900473ffffffffffffffffffffffffffffffffffffffff1673ffffffffffffffffffffffffffffffffffffffff161461086f5760025f8381526020019081526020015f205f9054906101000a900473ffffffffffffffffffffffffffffffffffffffff169050610873565b5f90505b919050565b5f8054906101000a900473ffffffffffffffffffffffffffffffffffffffff1681565b6001602052805f5260405f205f91509050805f0180546108ba906114b0565b80601f01602080910402602001604051908101604052809291908181526020018280546108e6906114b0565b80156109315780601f1061090857610100808354040283529160200191610931565b820191905f5260205f20905b81548152906001019060200180831161091457829003601f168201915b505050505090806001018054610946906114b0565b80601f0160208091040260200160405190810160405280929190818152602001828054610972906114b0565b80156109bd5780601f10610994576101008083540402835291602001916109bd565b820191905f5260205f20905b8154815290600101906020018083116109a057829003601f168201915b5050505050908060020154905083565b60035481565b5f60015f8473ffffffffffffffffffffffffffffffffffffffff1673ffffffffffffffffffffffffffffffffffffffff1681526020019081526020015f20600301805480602002602001604051908101604052809291908181526020018280548015610a5c57602002820191905f5260205f20905b815481526020019060010190808311610a48575b505050505090505f5b8151811015610b195782828281518110610a8257610a81611540565b5b602002602001015103610b06578160018351610a9e919061150d565b81518110610aaf57610aae611540565b5b6020026020010151828281518110610aca57610ac9611540565b5b6020026020010181815250508160018351610ae5919061150d565b81518110610af657610af5611540565b5b602002602001015f815250610b19565b8080610b119061156d565b915050610a65565b50505050565b60405180608001604052808381526020018281526020015f81526020015f67ffffffffffffffff811115610b5657610b556112d7565b5b604051908082528060200260200182016040528015610b845781602001602082028036833780820191505090505b5081525060015f8573ffffffffffffffffffffffffffffffffffffffff1673ffffffffffffffffffffffffffffffffffffffff1681526020019081526020015f205f820151815f019081610bd89190611751565b506020820151816001019081610bee9190611751565b50604082015181600201556060820151816003019080519060200190610c15929190610d44565b509050506001600354610c289190611820565b6003819055508260025f60035481526020019081526020015f205f6101000a81548173ffffffffffffffffffffffffffffffffffffffff021916908373ffffffffffffffffffffffffffffffffffffffff1602179055508273ffffffffffffffffffffffffffffffffffffffff167f6f289fe93e06e036f01b77da15925ec8bc9ab53277b43b06e133fe1a319e70f38383604051610cc7929190611853565b60405180910390a2505050565b8060015f8473ffffffffffffffffffffffffffffffffffffffff1673ffffffffffffffffffffffffffffffffffffffff1681526020019081526020015f20600201819055505050565b604051806080016040528060608152602001606081526020015f8152602001606081525090565b828054828255905f5260205f20908101928215610d7e579160200282015b82811115610d7d578251825591602001919060010190610d62565b5b509050610d8b9190610d8f565b5090565b5b80821115610da6575f815f905550600101610d90565b5090565b5f81519050919050565b5f82825260208201905092915050565b5f819050602082019050919050565b5f81519050919050565b5f82825260208201905092915050565b5f5b83811015610e0a578082015181840152602081019050610def565b5f8484015250505050565b5f601f19601f8301169050919050565b5f610e2f82610dd3565b610e398185610ddd565b9350610e49818560208601610ded565b610e5281610e15565b840191505092915050565b5f819050919050565b610e6f81610e5d565b82525050565b5f81519050919050565b5f82825260208201905092915050565b5f819050602082019050919050565b5f610ea98383610e66565b60208301905092915050565b5f602082019050919050565b5f610ecb82610e75565b610ed58185610e7f565b9350610ee083610e8f565b805f5b83811015610f10578151610ef78882610e9e565b9750610f0283610eb5565b925050600181019050610ee3565b5085935050505092915050565b5f608083015f8301518482035f860152610f378282610e25565b91505060208301518482036020860152610f518282610e25565b9150506040830151610f666040860182610e66565b5060608301518482036060860152610f7e8282610ec1565b9150508091505092915050565b5f610f968383610f1d565b905092915050565b5f602082019050919050565b5f610fb482610daa565b610fbe8185610db4565b935083602082028501610fd085610dc4565b805f5b8581101561100b5784840389528151610fec8582610f8b565b9450610ff783610f9e565b925060208a01995050600181019050610fd3565b50829750879550505050505092915050565b5f6020820190508181035f8301526110358184610faa565b905092915050565b5f604051905090565b5f80fd5b5f80fd5b5f73ffffffffffffffffffffffffffffffffffffffff82169050919050565b5f6110778261104e565b9050919050565b6110878161106d565b8114611091575f80fd5b50565b5f813590506110a28161107e565b92915050565b6110b181610e5d565b81146110bb575f80fd5b50565b5f813590506110cc816110a8565b92915050565b5f80604083850312156110e8576110e7611046565b5b5f6110f585828601611094565b9250506020611106858286016110be565b9150509250929050565b5f6020828403121561112557611124611046565b5b5f61113284828501611094565b91505092915050565b61114481610e5d565b82525050565b5f60208201905061115d5f83018461113b565b92915050565b5f6020828403121561117857611177611046565b5b5f611185848285016110be565b91505092915050565b6111978161106d565b82525050565b5f6020820190506111b05f83018461118e565b92915050565b5f608083015f8301518482035f8601526111d08282610e25565b915050602083015184820360208601526111ea8282610e25565b91505060408301516111ff6040860182610e66565b50606083015184820360608601526112178282610ec1565b9150508091505092915050565b5f6020820190508181035f83015261123c81846111b6565b905092915050565b5f82825260208201905092915050565b5f61125e82610dd3565b6112688185611244565b9350611278818560208601610ded565b61128181610e15565b840191505092915050565b5f6060820190508181035f8301526112a48186611254565b905081810360208301526112b88185611254565b90506112c7604083018461113b565b949350505050565b5f80fd5b5f80fd5b7f4e487b71000000000000000000000000000000000000000000000000000000005f52604160045260245ffd5b61130d82610e15565b810181811067ffffffffffffffff8211171561132c5761132b6112d7565b5b80604052505050565b5f61133e61103d565b905061134a8282611304565b919050565b5f67ffffffffffffffff821115611369576113686112d7565b5b61137282610e15565b9050602081019050919050565b828183375f83830152505050565b5f61139f61139a8461134f565b611335565b9050828152602081018484840111156113bb576113ba6112d3565b5b6113c684828561137f565b509392505050565b5f82601f8301126113e2576113e16112cf565b5b81356113f284826020860161138d565b91505092915050565b5f805f6060848603121561141257611411611046565b5b5f61141f86828701611094565b935050602084013567ffffffffffffffff8111156114405761143f61104a565b5b61144c868287016113ce565b925050604084013567ffffffffffffffff81111561146d5761146c61104a565b5b611479868287016113ce565b9150509250925092565b7f4e487b71000000000000000000000000000000000000000000000000000000005f52602260045260245ffd5b5f60028204905060018216806114c757607f821691505b6020821081036114da576114d9611483565b5b50919050565b7f4e487b71000000000000000000000000000000000000000000000000000000005f52601160045260245ffd5b5f61151782610e5d565b915061152283610e5d565b925082820390508181111561153a576115396114e0565b5b92915050565b7f4e487b71000000000000000000000000000000000000000000000000000000005f52603260045260245ffd5b5f61157782610e5d565b91507fffffffffffffffffffffffffffffffffffffffffffffffffffffffffffffffff82036115a9576115a86114e0565b5b600182019050919050565b5f819050815f5260205f209050919050565b5f6020601f8301049050919050565b5f82821b905092915050565b5f600883026116107fffffffffffffffffffffffffffffffffffffffffffffffffffffffffffffffff826115d5565b61161a86836115d5565b95508019841693508086168417925050509392505050565b5f819050919050565b5f61165561165061164b84610e5d565b611632565b610e5d565b9050919050565b5f819050919050565b61166e8361163b565b61168261167a8261165c565b8484546115e1565b825550505050565b5f90565b61169661168a565b6116a1818484611665565b505050565b5b818110156116c4576116b95f8261168e565b6001810190506116a7565b5050565b601f821115611709576116da816115b4565b6116e3846115c6565b810160208510156116f2578190505b6117066116fe856115c6565b8301826116a6565b50505b505050565b5f82821c905092915050565b5f6117295f198460080261170e565b1980831691505092915050565b5f611741838361171a565b9150826002028217905092915050565b61175a82610dd3565b67ffffffffffffffff811115611773576117726112d7565b5b61177d82546114b0565b6117888282856116c8565b5f60209050601f8311600181146117b9575f84156117a7578287015190505b6117b18582611736565b865550611818565b601f1984166117c7866115b4565b5f5b828110156117ee578489015182556001820191506020850194506020810190506117c9565b8683101561180b5784890151611807601f89168261171a565b8355505b6001600288020188555050505b505050505050565b5f61182a82610e5d565b915061183583610e5d565b925082820190508082111561184d5761184c6114e0565b5b92915050565b5f6040820190508181035f83015261186b8185611254565b9050818103602083015261187f8184611254565b9050939250505056fea2646970667358221220b4ba0eccc3d3a3c9b4b5407aad8f4d6b6fb1d1aa859542e2ad28ea52c8e67a3064736f6c63430008140033",
  "immutableReferences": {},
  "source": "// SPDX-License-Identifier: GPL-3.0\r\npragma solidity >=0.4.16 <0.9.0;\r\n\r\nimport \"./bookToken.sol\";\r\nimport \"./user.sol\";\r\n\r\ncontract Library {\r\n    struct Lib_Details {\r\n        string name;\r\n        string location;\r\n        string email;\r\n        string phone;\r\n        uint256 maxHolds;\r\n    }\r\n    Lib_Details public libraryDetails;\r\n    address public bookTokenAddress;\r\n    address public userAddress;\r\n    // bookTokenAddress is to store the address of the bookToken contract.\r\n    bookToken public bookTokenContract;\r\n    user public userContract;\r\n\r\n    // Maximum number of hold the library allows a user to have at a time.\r\n\r\n    constructor(\r\n        string memory _name,\r\n        string memory _location,\r\n        string memory _email,\r\n        string memory _phone,\r\n        uint256 _maxHolds\r\n    ) {\r\n        bookTokenContract = new bookToken();\r\n        bookTokenAddress = address(bookTokenContract);\r\n        // This is how we can access the functions of the bookToken contract.\r\n        userContract = new user();\r\n        userAddress = address(userContract);\r\n        // This is how we can access the functions of the user contract.\r\n\r\n        libraryDetails = Lib_Details(\r\n            _name,\r\n            _location,\r\n            _email,\r\n            _phone,\r\n            _maxHolds\r\n        );\r\n    }\r\n\r\n    function getLibraryDetails() public view returns (Lib_Details memory) {\r\n        return libraryDetails;\r\n    }\r\n\r\n    // We can fetch library Data using this function.\r\n    // Routing setup for this => Library Id will be passed through query params => Library address will be fetched using the\r\n    // function defined in the library factory contract => Using this address we can connect to this specific instance of\r\n    // library contract => then this function will be called using instance.getLibraryDetails().call()\r\n\r\n    function getBookTokenAddress() public view returns (address) {\r\n        return bookTokenAddress;\r\n    }\r\n\r\n    function getUserContractAddress() public view returns (address) {\r\n        return userAddress;\r\n    }\r\n\r\n    mapping(address => uint256) public bookBalance;\r\n\r\n    // function getbookBalance(\r\n    //     address _userAddress\r\n    // ) public view returns (uint256) {\r\n    //     return bookBalance[_userAddress];\r\n    // }\r\n    // Instead of creating this function and hence causing a puff in the size of the contract we can extrat this information from the user struct itself.\r\n\r\n    mapping(address => mapping(uint256 => bool)) public booksIssued;\r\n\r\n    event bookBorrowed(\r\n        address indexed _borrower,\r\n        uint256 indexed _bookId,\r\n        uint256 _bookBalance\r\n    );\r\n    event bookReturned(\r\n        address indexed _borrower,\r\n        uint256 indexed _bookId,\r\n        uint256 indexed _bookBalance\r\n    );\r\n\r\n    function registerUser(\r\n        address _userAddress,\r\n        string memory name,\r\n        string memory email\r\n    ) public {\r\n        userContract.registerUser(_userAddress, name, email);\r\n    }\r\n\r\n    function addBook(\r\n        string memory _title,\r\n        string memory _author,\r\n        uint256 _copies,\r\n        string memory _isbn\r\n    ) public {\r\n        bookTokenContract.addBook(_title, _author, _copies, _isbn);\r\n    }\r\n\r\n    // function getUserDetails(\r\n    //     address _userAddress\r\n    // ) public view returns (user.User memory) {\r\n    //     return userContract.getUser(_userAddress);\r\n    // }\r\n\r\n    // function updateUserBalance(address _userAddress, uint256 _balance) public {\r\n    //     userContract.setUserBalance(_userAddress, _balance);\r\n    // }\r\n\r\n    // function addCopies(uint256 _bookId, uint256 _copies) public {\r\n    //     require(\r\n    //         bookTokenContract.isBookAvailable(_bookId),\r\n    //         \"Add the book first\"\r\n    //     );\r\n\r\n    //     bookTokenContract.addCopies(_bookId, _copies);\r\n    // }\r\n\r\n    function bookBorrow(address _userAddress, uint256 _bookId) public {\r\n        require(\r\n            bookTokenContract.isBookAvailable(_bookId),\r\n            \"Book does not exist\"\r\n        );\r\n\r\n        require(\r\n            booksIssued[_userAddress][_bookId] == false,\r\n            \"Book has already been issued by you\"\r\n        );\r\n\r\n        if (bookBalance[_userAddress] == 0) {\r\n            bookBalance[_userAddress] = 1;\r\n        } else {\r\n            bookBalance[_userAddress] += 1;\r\n        }\r\n\r\n        booksIssued[_userAddress][_bookId] = true;\r\n\r\n        userContract.setUserBalance(_userAddress, bookBalance[_userAddress]);\r\n        // Update the user's book balance in the user contract struct.\r\n\r\n        if (bookBalance[_userAddress] > libraryDetails.maxHolds) {\r\n            revert(\"You have exceeded the maximum number of holds\");\r\n        } else {\r\n            userContract.setUserHoldsBorrow(_userAddress, _bookId);\r\n        }\r\n        // Add the bookId to the user's borrowedBooks array.\r\n\r\n        emit bookBorrowed(_userAddress, _bookId, bookBalance[_userAddress]);\r\n    }\r\n\r\n    function bookReturn(address _userAddress, uint256 _bookId) public {\r\n        require(bookBalance[_userAddress] > 0, \"You have no holds\");\r\n\r\n        require(\r\n            booksIssued[_userAddress][_bookId] == true,\r\n            \"Book has not been issued by you\"\r\n        );\r\n\r\n        bookBalance[_userAddress] -= 1;\r\n        booksIssued[_userAddress][_bookId] = false;\r\n\r\n        userContract.setUserBalance(_userAddress, bookBalance[_userAddress]);\r\n        // Update the user's book balance in the user contract struct.\r\n\r\n        userContract.setUserHoldsReturn(_userAddress, _bookId);\r\n        // Remove the bookId from the user's borrowedBooks array.\r\n\r\n        emit bookReturned(_userAddress, _bookId, bookBalance[_userAddress]);\r\n    }\r\n\r\n    // function getBorrowedBooks(\r\n    //     address _address\r\n    // ) public view returns (uint256[] memory) {\r\n    //     uint256[] memory bookIds = new uint256[](libraryDetails.maxHolds);\r\n    //     uint256 count = 0;\r\n\r\n    //     for (uint256 i = 1; i <= bookTokenContract.totalBooks(); i++) {\r\n    //         if (booksIssued[_address][i] == true) {\r\n    //             bookIds[count] = i;\r\n    //             count++;\r\n    //         }\r\n    //     }\r\n\r\n    //     return bookIds;\r\n    // }\r\n\r\n    // The booksIssued mapping can only take boolean values for whether the user already holds a particular copy of the title.\r\n    // This functionality is used in bookBorrow, bookReturned and getBorrowedBooks functions.\r\n}\r\n",
  "sourcePath": "C:\\Users\\maste_0c98yk4\\OneDrive\\Desktop\\Projects\\Librarium\\contracts\\library.sol",
  "compiler": {
    "name": "solc",
    "version": "0.8.20+commit.a1b79de6.Emscripten.clang"
  },
  "schemaVersion": "3.4.14",
  "updatedAt": "2023-06-28T07:55:50.695Z",
  "networkType": "ethereum",
  "devdoc": {
    "kind": "dev",
    "methods": {},
    "version": 1
  },
  "userdoc": {
    "kind": "user",
    "methods": {},
    "version": 1
  }
}