{
  "contractName": "user",
  "abi": [
    {
      "inputs": [
        {
          "internalType": "address",
          "name": "_userAddress",
          "type": "address"
        },
        {
          "internalType": "string",
          "name": "_name",
          "type": "string"
        },
        {
          "internalType": "string",
          "name": "_email",
          "type": "string"
        }
      ],
      "stateMutability": "nonpayable",
      "type": "constructor"
    },
    {
      "anonymous": false,
      "inputs": [
        {
          "indexed": true,
          "internalType": "address",
          "name": "_user",
          "type": "address"
        },
        {
          "indexed": false,
          "internalType": "string",
          "name": "_name",
          "type": "string"
        },
        {
          "indexed": false,
          "internalType": "string",
          "name": "_email",
          "type": "string"
        }
      ],
      "name": "userRegistered",
      "type": "event"
    },
    {
      "inputs": [],
      "name": "UserAddress",
      "outputs": [
        {
          "internalType": "address",
          "name": "",
          "type": "address"
        }
      ],
      "stateMutability": "view",
      "type": "function"
    },
    {
      "inputs": [
        {
          "internalType": "address",
          "name": "",
          "type": "address"
        }
      ],
      "name": "users",
      "outputs": [
        {
          "internalType": "string",
          "name": "name",
          "type": "string"
        },
        {
          "internalType": "string",
          "name": "email",
          "type": "string"
        },
        {
          "internalType": "uint256",
          "name": "bookBalance",
          "type": "uint256"
        }
      ],
      "stateMutability": "view",
      "type": "function"
    },
    {
      "inputs": [
        {
          "internalType": "address",
          "name": "_userAddress",
          "type": "address"
        }
      ],
      "name": "getUser",
      "outputs": [
        {
          "components": [
            {
              "internalType": "string",
              "name": "name",
              "type": "string"
            },
            {
              "internalType": "string",
              "name": "email",
              "type": "string"
            },
            {
              "internalType": "uint256",
              "name": "bookBalance",
              "type": "uint256"
            },
            {
              "internalType": "uint256[]",
              "name": "borrowedBooks",
              "type": "uint256[]"
            }
          ],
          "internalType": "struct user.User",
          "name": "",
          "type": "tuple"
        }
      ],
      "stateMutability": "view",
      "type": "function"
    },
    {
      "inputs": [
        {
          "internalType": "address",
          "name": "_userAddress",
          "type": "address"
        },
        {
          "internalType": "string",
          "name": "_name",
          "type": "string"
        },
        {
          "internalType": "string",
          "name": "_email",
          "type": "string"
        }
      ],
      "name": "registerUser",
      "outputs": [],
      "stateMutability": "nonpayable",
      "type": "function"
    },
    {
      "inputs": [
        {
          "internalType": "address",
          "name": "_userAddress",
          "type": "address"
        }
      ],
      "name": "userExists",
      "outputs": [
        {
          "internalType": "bool",
          "name": "",
          "type": "bool"
        }
      ],
      "stateMutability": "view",
      "type": "function"
    }
  ],
  "bytecode": "0x608060405234801562000010575f80fd5b50604051620014df380380620014df833981810160405281019062000036919062000493565b6200004783620001d660201b60201c565b156200008a576040517f08c379a00000000000000000000000000000000000000000000000000000000081526004016200008190620005ae565b60405180910390fd5b825f806101000a81548173ffffffffffffffffffffffffffffffffffffffff021916908373ffffffffffffffffffffffffffffffffffffffff16021790555060405180608001604052808381526020018281526020015f81526020015f67ffffffffffffffff81111562000103576200010262000337565b5b604051908082528060200260200182016040528015620001325781602001602082028036833780820191505090505b5081525060015f8573ffffffffffffffffffffffffffffffffffffffff1673ffffffffffffffffffffffffffffffffffffffff1681526020019081526020015f205f820151815f01908162000188919062000805565b506020820151816001019081620001a0919062000805565b50604082015181600201556060820151816003019080519060200190620001c992919062000240565b50905050505050620008e9565b5f8060015f8473ffffffffffffffffffffffffffffffffffffffff1673ffffffffffffffffffffffffffffffffffffffff1681526020019081526020015f205f018054620002249062000605565b905011156200023757600190506200023b565b5f90505b919050565b828054828255905f5260205f209081019282156200027d579160200282015b828111156200027c5782518255916020019190600101906200025f565b5b5090506200028c919062000290565b5090565b5b80821115620002a9575f815f90555060010162000291565b5090565b5f604051905090565b5f80fd5b5f80fd5b5f73ffffffffffffffffffffffffffffffffffffffff82169050919050565b5f620002e982620002be565b9050919050565b620002fb81620002dd565b811462000306575f80fd5b50565b5f815190506200031981620002f0565b92915050565b5f80fd5b5f80fd5b5f601f19601f8301169050919050565b7f4e487b71000000000000000000000000000000000000000000000000000000005f52604160045260245ffd5b6200036f8262000327565b810181811067ffffffffffffffff8211171562000391576200039062000337565b5b80604052505050565b5f620003a5620002ad565b9050620003b3828262000364565b919050565b5f67ffffffffffffffff821115620003d557620003d462000337565b5b620003e08262000327565b9050602081019050919050565b5f5b838110156200040c578082015181840152602081019050620003ef565b5f8484015250505050565b5f6200042d6200042784620003b8565b6200039a565b9050828152602081018484840111156200044c576200044b62000323565b5b62000459848285620003ed565b509392505050565b5f82601f8301126200047857620004776200031f565b5b81516200048a84826020860162000417565b91505092915050565b5f805f60608486031215620004ad57620004ac620002b6565b5b5f620004bc8682870162000309565b935050602084015167ffffffffffffffff811115620004e057620004df620002ba565b5b620004ee8682870162000461565b925050604084015167ffffffffffffffff811115620005125762000511620002ba565b5b620005208682870162000461565b9150509250925092565b5f82825260208201905092915050565b7f5573657220776974682074686973206164647265737320616c726561647920655f8201527f7869737473000000000000000000000000000000000000000000000000000000602082015250565b5f620005966025836200052a565b9150620005a3826200053a565b604082019050919050565b5f6020820190508181035f830152620005c78162000588565b9050919050565b5f81519050919050565b7f4e487b71000000000000000000000000000000000000000000000000000000005f52602260045260245ffd5b5f60028204905060018216806200061d57607f821691505b602082108103620006335762000632620005d8565b5b50919050565b5f819050815f5260205f209050919050565b5f6020601f8301049050919050565b5f82821b905092915050565b5f60088302620006977fffffffffffffffffffffffffffffffffffffffffffffffffffffffffffffffff826200065a565b620006a386836200065a565b95508019841693508086168417925050509392505050565b5f819050919050565b5f819050919050565b5f620006ed620006e7620006e184620006bb565b620006c4565b620006bb565b9050919050565b5f819050919050565b6200070883620006cd565b620007206200071782620006f4565b84845462000666565b825550505050565b5f90565b6200073662000728565b62000743818484620006fd565b505050565b5b818110156200076a576200075e5f826200072c565b60018101905062000749565b5050565b601f821115620007b957620007838162000639565b6200078e846200064b565b810160208510156200079e578190505b620007b6620007ad856200064b565b83018262000748565b50505b505050565b5f82821c905092915050565b5f620007db5f1984600802620007be565b1980831691505092915050565b5f620007f58383620007ca565b9150826002028217905092915050565b6200081082620005ce565b67ffffffffffffffff8111156200082c576200082b62000337565b5b62000838825462000605565b620008458282856200076e565b5f60209050601f8311600181146200087b575f841562000866578287015190505b620008728582620007e8565b865550620008e1565b601f1984166200088b8662000639565b5f5b82811015620008b4578489015182556001820191506020850194506020810190506200088d565b86831015620008d45784890151620008d0601f891682620007ca565b8355505b6001600288020188555050505b505050505050565b610be880620008f75f395ff3fe608060405234801561000f575f80fd5b5060043610610055575f3560e01c80630e666e49146100595780636f77926b146100895780639320b474146100b9578063a87430ba146100d7578063db0c87c914610109575b5f80fd5b610073600480360381019061006e91906105e6565b610125565b604051610080919061062b565b60405180910390f35b6100a3600480360381019061009e91906105e6565b61018b565b6040516100b091906107fc565b60405180910390f35b6100c1610361565b6040516100ce919061082b565b60405180910390f35b6100f160048036038101906100ec91906105e6565b610384565b6040516101009392919061089b565b60405180910390f35b610123600480360381019061011e9190610a0a565b6104b6565b005b5f8060015f8473ffffffffffffffffffffffffffffffffffffffff1673ffffffffffffffffffffffffffffffffffffffff1681526020019081526020015f205f01805461017190610abf565b905011156101825760019050610186565b5f90505b919050565b610193610554565b60015f8373ffffffffffffffffffffffffffffffffffffffff1673ffffffffffffffffffffffffffffffffffffffff1681526020019081526020015f206040518060800160405290815f820180546101ea90610abf565b80601f016020809104026020016040519081016040528092919081815260200182805461021690610abf565b80156102615780601f1061023857610100808354040283529160200191610261565b820191905f5260205f20905b81548152906001019060200180831161024457829003601f168201915b5050505050815260200160018201805461027a90610abf565b80601f01602080910402602001604051908101604052809291908181526020018280546102a690610abf565b80156102f15780601f106102c8576101008083540402835291602001916102f1565b820191905f5260205f20905b8154815290600101906020018083116102d457829003601f168201915b50505050508152602001600282015481526020016003820180548060200260200160405190810160405280929190818152602001828054801561035157602002820191905f5260205f20905b81548152602001906001019080831161033d575b5050505050815250509050919050565b5f8054906101000a900473ffffffffffffffffffffffffffffffffffffffff1681565b6001602052805f5260405f205f91509050805f0180546103a390610abf565b80601f01602080910402602001604051908101604052809291908181526020018280546103cf90610abf565b801561041a5780601f106103f15761010080835404028352916020019161041a565b820191905f5260205f20905b8154815290600101906020018083116103fd57829003601f168201915b50505050509080600101805461042f90610abf565b80601f016020809104026020016040519081016040528092919081815260200182805461045b90610abf565b80156104a65780601f1061047d576101008083540402835291602001916104a6565b820191905f5260205f20905b81548152906001019060200180831161048957829003601f168201915b5050505050908060020154905083565b6104bf83610125565b156104ff576040517f08c379a00000000000000000000000000000000000000000000000000000000081526004016104f690610b5f565b60405180910390fd5b8273ffffffffffffffffffffffffffffffffffffffff167f6f289fe93e06e036f01b77da15925ec8bc9ab53277b43b06e133fe1a319e70f38383604051610547929190610b7d565b60405180910390a2505050565b604051806080016040528060608152602001606081526020015f8152602001606081525090565b5f604051905090565b5f80fd5b5f80fd5b5f73ffffffffffffffffffffffffffffffffffffffff82169050919050565b5f6105b58261058c565b9050919050565b6105c5816105ab565b81146105cf575f80fd5b50565b5f813590506105e0816105bc565b92915050565b5f602082840312156105fb576105fa610584565b5b5f610608848285016105d2565b91505092915050565b5f8115159050919050565b61062581610611565b82525050565b5f60208201905061063e5f83018461061c565b92915050565b5f81519050919050565b5f82825260208201905092915050565b5f5b8381101561067b578082015181840152602081019050610660565b5f8484015250505050565b5f601f19601f8301169050919050565b5f6106a082610644565b6106aa818561064e565b93506106ba81856020860161065e565b6106c381610686565b840191505092915050565b5f819050919050565b6106e0816106ce565b82525050565b5f81519050919050565b5f82825260208201905092915050565b5f819050602082019050919050565b5f61071a83836106d7565b60208301905092915050565b5f602082019050919050565b5f61073c826106e6565b61074681856106f0565b935061075183610700565b805f5b83811015610781578151610768888261070f565b975061077383610726565b925050600181019050610754565b5085935050505092915050565b5f608083015f8301518482035f8601526107a88282610696565b915050602083015184820360208601526107c28282610696565b91505060408301516107d760408601826106d7565b50606083015184820360608601526107ef8282610732565b9150508091505092915050565b5f6020820190508181035f830152610814818461078e565b905092915050565b610825816105ab565b82525050565b5f60208201905061083e5f83018461081c565b92915050565b5f82825260208201905092915050565b5f61085e82610644565b6108688185610844565b935061087881856020860161065e565b61088181610686565b840191505092915050565b610895816106ce565b82525050565b5f6060820190508181035f8301526108b38186610854565b905081810360208301526108c78185610854565b90506108d6604083018461088c565b949350505050565b5f80fd5b5f80fd5b7f4e487b71000000000000000000000000000000000000000000000000000000005f52604160045260245ffd5b61091c82610686565b810181811067ffffffffffffffff8211171561093b5761093a6108e6565b5b80604052505050565b5f61094d61057b565b90506109598282610913565b919050565b5f67ffffffffffffffff821115610978576109776108e6565b5b61098182610686565b9050602081019050919050565b828183375f83830152505050565b5f6109ae6109a98461095e565b610944565b9050828152602081018484840111156109ca576109c96108e2565b5b6109d584828561098e565b509392505050565b5f82601f8301126109f1576109f06108de565b5b8135610a0184826020860161099c565b91505092915050565b5f805f60608486031215610a2157610a20610584565b5b5f610a2e868287016105d2565b935050602084013567ffffffffffffffff811115610a4f57610a4e610588565b5b610a5b868287016109dd565b925050604084013567ffffffffffffffff811115610a7c57610a7b610588565b5b610a88868287016109dd565b9150509250925092565b7f4e487b71000000000000000000000000000000000000000000000000000000005f52602260045260245ffd5b5f6002820490506001821680610ad657607f821691505b602082108103610ae957610ae8610a92565b5b50919050565b7f5573657220776974682074686973206164647265737320616c726561647920655f8201527f7869737473000000000000000000000000000000000000000000000000000000602082015250565b5f610b49602583610844565b9150610b5482610aef565b604082019050919050565b5f6020820190508181035f830152610b7681610b3d565b9050919050565b5f6040820190508181035f830152610b958185610854565b90508181036020830152610ba98184610854565b9050939250505056fea2646970667358221220ffe59f210f01e6d7ddb0606b196e971ab76b99495eba76ac0fd395b364eae8e464736f6c63430008140033",
  "immutableReferences": {},
  "source": "// SPDX-License-Identifier: GPL-3.0\r\npragma solidity >=0.4.16 <0.9.0;\r\n\r\ncontract user {\r\n    address public UserAddress;\r\n\r\n    struct User {\r\n        string name;\r\n        string email;\r\n        uint256 bookBalance;\r\n        uint256[] borrowedBooks;\r\n    }\r\n\r\n    mapping(address => User) public users;\r\n\r\n    event userRegistered(address indexed _user, string _name, string _email);\r\n\r\n    constructor(\r\n        address _userAddress,\r\n        string memory _name,\r\n        string memory _email\r\n    ) {\r\n        require(\r\n            !userExists(_userAddress),\r\n            \"User with this address already exists\"\r\n        );\r\n\r\n        UserAddress = _userAddress;\r\n        users[_userAddress] = User(_name, _email, 0, new uint256[](0));\r\n    }\r\n\r\n    function getUser(address _userAddress) public view returns (User memory) {\r\n        return users[_userAddress];\r\n    }\r\n\r\n    function registerUser(\r\n        address _userAddress,\r\n        string memory _name,\r\n        string memory _email\r\n    ) public {\r\n        require(\r\n            !userExists(_userAddress),\r\n            \"User with this address already exists\"\r\n        );\r\n        emit userRegistered(_userAddress, _name, _email);\r\n    }\r\n\r\n    function userExists(address _userAddress) public view returns (bool) {\r\n        if (bytes(users[_userAddress].name).length > 0) {\r\n            return true;\r\n        } else {\r\n            return false;\r\n        }\r\n    }\r\n}\r\n",
  "sourcePath": "C:\\Users\\DELL\\Desktop\\Side Projects\\Librarium\\contracts\\user.sol",
  "compiler": {
    "name": "solc",
    "version": "0.8.20+commit.a1b79de6.Emscripten.clang"
  },
  "schemaVersion": "3.4.14",
  "updatedAt": "2023-05-23T14:59:42.616Z",
  "devdoc": {
    "kind": "dev",
    "methods": {},
    "version": 1
  },
  "userdoc": {
    "kind": "user",
    "methods": {},
    "version": 1
  }
}