{
  "contractName": "user",
  "abi": [
    {
      "inputs": [
        {
          "internalType": "address",
          "name": "_userAddress",
          "type": "address"
        }
      ],
      "stateMutability": "nonpayable",
      "type": "constructor"
    },
    {
      "anonymous": false,
      "inputs": [
        {
          "indexed": true,
          "internalType": "address",
          "name": "_user",
          "type": "address"
        },
        {
          "indexed": false,
          "internalType": "string",
          "name": "_name",
          "type": "string"
        },
        {
          "indexed": false,
          "internalType": "string",
          "name": "_email",
          "type": "string"
        }
      ],
      "name": "userRegistered",
      "type": "event"
    },
    {
      "inputs": [
        {
          "internalType": "address",
          "name": "",
          "type": "address"
        }
      ],
      "name": "users",
      "outputs": [
        {
          "internalType": "string",
          "name": "name",
          "type": "string"
        },
        {
          "internalType": "string",
          "name": "email",
          "type": "string"
        },
        {
          "internalType": "uint256",
          "name": "bookBalance",
          "type": "uint256"
        }
      ],
      "stateMutability": "view",
      "type": "function"
    },
    {
      "inputs": [
        {
          "internalType": "string",
          "name": "_name",
          "type": "string"
        },
        {
          "internalType": "string",
          "name": "_email",
          "type": "string"
        }
      ],
      "name": "registerUser",
      "outputs": [],
      "stateMutability": "nonpayable",
      "type": "function"
    },
    {
      "inputs": [
        {
          "internalType": "address",
          "name": "_userAddress",
          "type": "address"
        }
      ],
      "name": "userExists",
      "outputs": [
        {
          "internalType": "bool",
          "name": "",
          "type": "bool"
        }
      ],
      "stateMutability": "view",
      "type": "function"
    }
  ],
  "bytecode": "0x608060405234801562000010575f80fd5b5060405162000d7338038062000d7383398181016040528101906200003691906200019f565b6200004781620000d060201b60201c565b156200008a576040517f08c379a0000000000000000000000000000000000000000000000000000000008152600401620000819062000253565b60405180910390fd5b805f806101000a81548173ffffffffffffffffffffffffffffffffffffffff021916908373ffffffffffffffffffffffffffffffffffffffff16021790555050620002d4565b5f8060015f8473ffffffffffffffffffffffffffffffffffffffff1673ffffffffffffffffffffffffffffffffffffffff1681526020019081526020015f205f0180546200011e90620002a0565b9050111562000131576001905062000135565b5f90505b919050565b5f80fd5b5f73ffffffffffffffffffffffffffffffffffffffff82169050919050565b5f62000169826200013e565b9050919050565b6200017b816200015d565b811462000186575f80fd5b50565b5f81519050620001998162000170565b92915050565b5f60208284031215620001b757620001b66200013a565b5b5f620001c68482850162000189565b91505092915050565b5f82825260208201905092915050565b7f5573657220776974682074686973206164647265737320616c726561647920655f8201527f7869737473000000000000000000000000000000000000000000000000000000602082015250565b5f6200023b602583620001cf565b91506200024882620001df565b604082019050919050565b5f6020820190508181035f8301526200026c816200022d565b9050919050565b7f4e487b71000000000000000000000000000000000000000000000000000000005f52602260045260245ffd5b5f6002820490506001821680620002b857607f821691505b602082108103620002ce57620002cd62000273565b5b50919050565b610a9180620002e25f395ff3fe608060405234801561000f575f80fd5b506004361061003f575f3560e01c80630e666e49146100435780631d2e4afd14610073578063a87430ba1461008f575b5f80fd5b61005d60048036038101906100589190610478565b6100c1565b60405161006a91906104bd565b60405180910390f35b61008d60048036038101906100889190610612565b610127565b005b6100a960048036038101906100a49190610478565b610275565b6040516100b89392919061071a565b60405180910390f35b5f8060015f8473ffffffffffffffffffffffffffffffffffffffff1673ffffffffffffffffffffffffffffffffffffffff1681526020019081526020015f205f01805461010d9061078a565b9050111561011e5760019050610122565b5f90505b919050565b60405180608001604052808381526020018281526020015f81526020015f67ffffffffffffffff81111561015e5761015d6104ee565b5b60405190808252806020026020018201604052801561018c5781602001602082028036833780820191505090505b5081525060015f3373ffffffffffffffffffffffffffffffffffffffff1673ffffffffffffffffffffffffffffffffffffffff1681526020019081526020015f205f820151815f0190816101e09190610957565b5060208201518160010190816101f69190610957565b5060408201518160020155606082015181600301908051906020019061021d9291906103a7565b509050503373ffffffffffffffffffffffffffffffffffffffff167f6f289fe93e06e036f01b77da15925ec8bc9ab53277b43b06e133fe1a319e70f38383604051610269929190610a26565b60405180910390a25050565b6001602052805f5260405f205f91509050805f0180546102949061078a565b80601f01602080910402602001604051908101604052809291908181526020018280546102c09061078a565b801561030b5780601f106102e25761010080835404028352916020019161030b565b820191905f5260205f20905b8154815290600101906020018083116102ee57829003601f168201915b5050505050908060010180546103209061078a565b80601f016020809104026020016040519081016040528092919081815260200182805461034c9061078a565b80156103975780601f1061036e57610100808354040283529160200191610397565b820191905f5260205f20905b81548152906001019060200180831161037a57829003601f168201915b5050505050908060020154905083565b828054828255905f5260205f209081019282156103e1579160200282015b828111156103e05782518255916020019190600101906103c5565b5b5090506103ee91906103f2565b5090565b5b80821115610409575f815f9055506001016103f3565b5090565b5f604051905090565b5f80fd5b5f80fd5b5f73ffffffffffffffffffffffffffffffffffffffff82169050919050565b5f6104478261041e565b9050919050565b6104578161043d565b8114610461575f80fd5b50565b5f813590506104728161044e565b92915050565b5f6020828403121561048d5761048c610416565b5b5f61049a84828501610464565b91505092915050565b5f8115159050919050565b6104b7816104a3565b82525050565b5f6020820190506104d05f8301846104ae565b92915050565b5f80fd5b5f80fd5b5f601f19601f8301169050919050565b7f4e487b71000000000000000000000000000000000000000000000000000000005f52604160045260245ffd5b610524826104de565b810181811067ffffffffffffffff82111715610543576105426104ee565b5b80604052505050565b5f61055561040d565b9050610561828261051b565b919050565b5f67ffffffffffffffff8211156105805761057f6104ee565b5b610589826104de565b9050602081019050919050565b828183375f83830152505050565b5f6105b66105b184610566565b61054c565b9050828152602081018484840111156105d2576105d16104da565b5b6105dd848285610596565b509392505050565b5f82601f8301126105f9576105f86104d6565b5b81356106098482602086016105a4565b91505092915050565b5f806040838503121561062857610627610416565b5b5f83013567ffffffffffffffff8111156106455761064461041a565b5b610651858286016105e5565b925050602083013567ffffffffffffffff8111156106725761067161041a565b5b61067e858286016105e5565b9150509250929050565b5f81519050919050565b5f82825260208201905092915050565b5f5b838110156106bf5780820151818401526020810190506106a4565b5f8484015250505050565b5f6106d482610688565b6106de8185610692565b93506106ee8185602086016106a2565b6106f7816104de565b840191505092915050565b5f819050919050565b61071481610702565b82525050565b5f6060820190508181035f83015261073281866106ca565b9050818103602083015261074681856106ca565b9050610755604083018461070b565b949350505050565b7f4e487b71000000000000000000000000000000000000000000000000000000005f52602260045260245ffd5b5f60028204905060018216806107a157607f821691505b6020821081036107b4576107b361075d565b5b50919050565b5f819050815f5260205f209050919050565b5f6020601f8301049050919050565b5f82821b905092915050565b5f600883026108167fffffffffffffffffffffffffffffffffffffffffffffffffffffffffffffffff826107db565b61082086836107db565b95508019841693508086168417925050509392505050565b5f819050919050565b5f61085b61085661085184610702565b610838565b610702565b9050919050565b5f819050919050565b61087483610841565b61088861088082610862565b8484546107e7565b825550505050565b5f90565b61089c610890565b6108a781848461086b565b505050565b5b818110156108ca576108bf5f82610894565b6001810190506108ad565b5050565b601f82111561090f576108e0816107ba565b6108e9846107cc565b810160208510156108f8578190505b61090c610904856107cc565b8301826108ac565b50505b505050565b5f82821c905092915050565b5f61092f5f1984600802610914565b1980831691505092915050565b5f6109478383610920565b9150826002028217905092915050565b61096082610688565b67ffffffffffffffff811115610979576109786104ee565b5b610983825461078a565b61098e8282856108ce565b5f60209050601f8311600181146109bf575f84156109ad578287015190505b6109b7858261093c565b865550610a1e565b601f1984166109cd866107ba565b5f5b828110156109f4578489015182556001820191506020850194506020810190506109cf565b86831015610a115784890151610a0d601f891682610920565b8355505b6001600288020188555050505b505050505050565b5f6040820190508181035f830152610a3e81856106ca565b90508181036020830152610a5281846106ca565b9050939250505056fea2646970667358221220fd38cc05adf7f2e9203f367da32cea33e8d294f41514d86fa82a053b696728f964736f6c63430008140033",
  "immutableReferences": {},
  "source": "// SPDX-License-Identifier: GPL-3.0\r\npragma solidity >=0.4.16 <0.9.0;\r\n\r\ncontract user {\r\n    address private UserAddress;\r\n\r\n    struct User {\r\n        string name;\r\n        string email;\r\n        uint256 bookBalance;\r\n        uint256[] borrowedBooks;\r\n    }\r\n\r\n    mapping(address => User) public users;\r\n\r\n    event userRegistered(address indexed _user, string _name, string _email);\r\n\r\n    constructor(address _userAddress) {\r\n        require(\r\n            !userExists(_userAddress),\r\n            \"User with this address already exists\"\r\n        );\r\n\r\n        UserAddress = _userAddress;\r\n    }\r\n\r\n    function registerUser(string memory _name, string memory _email) public {\r\n        users[msg.sender] = User(_name, _email, 0, new uint256[](0));\r\n        emit userRegistered(msg.sender, _name, _email);\r\n    }\r\n\r\n    function userExists(address _userAddress) public view returns (bool) {\r\n        if (bytes(users[_userAddress].name).length > 0) {\r\n            return true;\r\n        } else {\r\n            return false;\r\n        }\r\n    }\r\n}\r\n",
  "sourcePath": "C:\\Users\\DELL\\Desktop\\Side Projects\\Librarium\\contracts\\user.sol",
  "compiler": {
    "name": "solc",
    "version": "0.8.20+commit.a1b79de6.Emscripten.clang"
  },
  "schemaVersion": "3.4.14",
  "updatedAt": "2023-05-21T18:14:34.237Z",
  "devdoc": {
    "kind": "dev",
    "methods": {},
    "version": 1
  },
  "userdoc": {
    "kind": "user",
    "methods": {},
    "version": 1
  }
}