{
  "contractName": "user",
  "abi": [
    {
      "anonymous": false,
      "inputs": [
        {
          "indexed": true,
          "internalType": "address",
          "name": "_user",
          "type": "address"
        },
        {
          "indexed": false,
          "internalType": "string",
          "name": "_name",
          "type": "string"
        },
        {
          "indexed": false,
          "internalType": "string",
          "name": "_email",
          "type": "string"
        }
      ],
      "name": "userRegistered",
      "type": "event"
    },
    {
      "inputs": [],
      "name": "UserAddress",
      "outputs": [
        {
          "internalType": "address",
          "name": "",
          "type": "address"
        }
      ],
      "stateMutability": "view",
      "type": "function",
      "constant": true
    },
    {
      "inputs": [],
      "name": "totalUsers",
      "outputs": [
        {
          "internalType": "uint256",
          "name": "",
          "type": "uint256"
        }
      ],
      "stateMutability": "view",
      "type": "function",
      "constant": true
    },
    {
      "inputs": [
        {
          "internalType": "uint256",
          "name": "",
          "type": "uint256"
        }
      ],
      "name": "userAddressById",
      "outputs": [
        {
          "internalType": "address",
          "name": "",
          "type": "address"
        }
      ],
      "stateMutability": "view",
      "type": "function",
      "constant": true
    },
    {
      "inputs": [
        {
          "internalType": "address",
          "name": "",
          "type": "address"
        }
      ],
      "name": "users",
      "outputs": [
        {
          "internalType": "string",
          "name": "name",
          "type": "string"
        },
        {
          "internalType": "string",
          "name": "email",
          "type": "string"
        },
        {
          "internalType": "uint256",
          "name": "bookBalance",
          "type": "uint256"
        }
      ],
      "stateMutability": "view",
      "type": "function",
      "constant": true
    },
    {
      "inputs": [
        {
          "internalType": "address",
          "name": "_userAddress",
          "type": "address"
        },
        {
          "internalType": "string",
          "name": "_name",
          "type": "string"
        },
        {
          "internalType": "string",
          "name": "_email",
          "type": "string"
        }
      ],
      "name": "registerUser",
      "outputs": [],
      "stateMutability": "nonpayable",
      "type": "function"
    },
    {
      "inputs": [
        {
          "internalType": "address",
          "name": "_userAddress",
          "type": "address"
        },
        {
          "internalType": "uint256",
          "name": "_balance",
          "type": "uint256"
        }
      ],
      "name": "setUserBalance",
      "outputs": [],
      "stateMutability": "nonpayable",
      "type": "function"
    },
    {
      "inputs": [
        {
          "internalType": "address",
          "name": "_userAddress",
          "type": "address"
        }
      ],
      "name": "getUserBalance",
      "outputs": [
        {
          "internalType": "uint256",
          "name": "",
          "type": "uint256"
        }
      ],
      "stateMutability": "view",
      "type": "function",
      "constant": true
    },
    {
      "inputs": [
        {
          "internalType": "address",
          "name": "_address",
          "type": "address"
        },
        {
          "internalType": "uint256",
          "name": "_bookId",
          "type": "uint256"
        }
      ],
      "name": "setUserHoldsBorrow",
      "outputs": [],
      "stateMutability": "nonpayable",
      "type": "function"
    },
    {
      "inputs": [
        {
          "internalType": "address",
          "name": "_address",
          "type": "address"
        },
        {
          "internalType": "uint256",
          "name": "_bookId",
          "type": "uint256"
        }
      ],
      "name": "setUserHoldsReturn",
      "outputs": [],
      "stateMutability": "view",
      "type": "function",
      "constant": true
    },
    {
      "inputs": [
        {
          "internalType": "address",
          "name": "_userAddress",
          "type": "address"
        }
      ],
      "name": "getUser",
      "outputs": [
        {
          "components": [
            {
              "internalType": "string",
              "name": "name",
              "type": "string"
            },
            {
              "internalType": "string",
              "name": "email",
              "type": "string"
            },
            {
              "internalType": "uint256",
              "name": "bookBalance",
              "type": "uint256"
            },
            {
              "internalType": "uint256[]",
              "name": "borrowedBooks",
              "type": "uint256[]"
            }
          ],
          "internalType": "struct user.User",
          "name": "",
          "type": "tuple"
        }
      ],
      "stateMutability": "view",
      "type": "function",
      "constant": true
    },
    {
      "inputs": [],
      "name": "getUsers",
      "outputs": [
        {
          "components": [
            {
              "internalType": "string",
              "name": "name",
              "type": "string"
            },
            {
              "internalType": "string",
              "name": "email",
              "type": "string"
            },
            {
              "internalType": "uint256",
              "name": "bookBalance",
              "type": "uint256"
            },
            {
              "internalType": "uint256[]",
              "name": "borrowedBooks",
              "type": "uint256[]"
            }
          ],
          "internalType": "struct user.User[]",
          "name": "",
          "type": "tuple[]"
        }
      ],
      "stateMutability": "view",
      "type": "function",
      "constant": true
    },
    {
      "inputs": [
        {
          "internalType": "uint256",
          "name": "id",
          "type": "uint256"
        }
      ],
      "name": "getUserAddressById",
      "outputs": [
        {
          "internalType": "address",
          "name": "",
          "type": "address"
        }
      ],
      "stateMutability": "view",
      "type": "function",
      "constant": true
    }
  ],
  "bytecode": "0x60806040525f600355348015610013575f80fd5b506118be806100215f395ff3fe608060405234801561000f575f80fd5b50600436106100b1575f3560e01c80639320b4741161006f5780639320b474146101af578063a87430ba146101cd578063bff1f9e1146101ff578063d81896cb1461021d578063db0c87c914610239578063fe17770014610255576100b1565b8062ce8e3e146100b557806340405f7e146100d357806347734892146100ef5780634aed47cf1461011f5780636f77926b1461014f5780638a03ad861461017f575b5f80fd5b6100bd610271565b6040516100ca919061101d565b60405180910390f35b6100ed60048036038101906100e891906110d2565b61051c565b005b61010960048036038101906101049190611110565b610584565b604051610116919061114a565b60405180910390f35b61013960048036038101906101349190611163565b6105cd565b604051610146919061119d565b60405180910390f35b61016960048036038101906101649190611110565b6105fd565b6040516101769190611224565b60405180910390f35b61019960048036038101906101949190611163565b6107d3565b6040516101a6919061119d565b60405180910390f35b6101b7610878565b6040516101c4919061119d565b60405180910390f35b6101e760048036038101906101e29190611110565b61089b565b6040516101f69392919061128c565b60405180910390f35b6102076109cd565b604051610214919061114a565b60405180910390f35b610237600480360381019061023291906110d2565b6109d3565b005b610253600480360381019061024e91906113fb565b610b1f565b005b61026f600480360381019061026a91906110d2565b610cd4565b005b60605f8060035467ffffffffffffffff811115610291576102906112d7565b5b6040519080825280602002602001820160405280156102ca57816020015b6102b7610d1d565b8152602001906001900390816102af5790505b5090505f600190505b60035481116105135760025f8281526020019081526020015f205f9054906101000a900473ffffffffffffffffffffffffffffffffffffffff16925060015f8473ffffffffffffffffffffffffffffffffffffffff1673ffffffffffffffffffffffffffffffffffffffff1681526020019081526020015f206040518060800160405290815f82018054610366906114b0565b80601f0160208091040260200160405190810160405280929190818152602001828054610392906114b0565b80156103dd5780601f106103b4576101008083540402835291602001916103dd565b820191905f5260205f20905b8154815290600101906020018083116103c057829003601f168201915b505050505081526020016001820180546103f6906114b0565b80601f0160208091040260200160405190810160405280929190818152602001828054610422906114b0565b801561046d5780601f106104445761010080835404028352916020019161046d565b820191905f5260205f20905b81548152906001019060200180831161045057829003601f168201915b5050505050815260200160028201548152602001600382018054806020026020016040519081016040528092919081815260200182805480156104cd57602002820191905f5260205f20905b8154815260200190600101908083116104b9575b505050505081525050826001836104e4919061150d565b815181106104f5576104f4611540565b5b6020026020010181905250808061050b9061156d565b9150506102d3565b50809250505090565b60015f8373ffffffffffffffffffffffffffffffffffffffff1673ffffffffffffffffffffffffffffffffffffffff1681526020019081526020015f2060030181908060018154018082558091505060019003905f5260205f20015f90919091909150555050565b5f60015f8373ffffffffffffffffffffffffffffffffffffffff1673ffffffffffffffffffffffffffffffffffffffff1681526020019081526020015f20600201549050919050565b6002602052805f5260405f205f915054906101000a900473ffffffffffffffffffffffffffffffffffffffff1681565b610605610d1d565b60015f8373ffffffffffffffffffffffffffffffffffffffff1673ffffffffffffffffffffffffffffffffffffffff1681526020019081526020015f206040518060800160405290815f8201805461065c906114b0565b80601f0160208091040260200160405190810160405280929190818152602001828054610688906114b0565b80156106d35780601f106106aa576101008083540402835291602001916106d3565b820191905f5260205f20905b8154815290600101906020018083116106b657829003601f168201915b505050505081526020016001820180546106ec906114b0565b80601f0160208091040260200160405190810160405280929190818152602001828054610718906114b0565b80156107635780601f1061073a57610100808354040283529160200191610763565b820191905f5260205f20905b81548152906001019060200180831161074657829003601f168201915b5050505050815260200160028201548152602001600382018054806020026020016040519081016040528092919081815260200182805480156107c357602002820191905f5260205f20905b8154815260200190600101908083116107af575b5050505050815250509050919050565b5f8073ffffffffffffffffffffffffffffffffffffffff1660025f8481526020019081526020015f205f9054906101000a900473ffffffffffffffffffffffffffffffffffffffff1673ffffffffffffffffffffffffffffffffffffffff161461086f5760025f8381526020019081526020015f205f9054906101000a900473ffffffffffffffffffffffffffffffffffffffff169050610873565b5f90505b919050565b5f8054906101000a900473ffffffffffffffffffffffffffffffffffffffff1681565b6001602052805f5260405f205f91509050805f0180546108ba906114b0565b80601f01602080910402602001604051908101604052809291908181526020018280546108e6906114b0565b80156109315780601f1061090857610100808354040283529160200191610931565b820191905f5260205f20905b81548152906001019060200180831161091457829003601f168201915b505050505090806001018054610946906114b0565b80601f0160208091040260200160405190810160405280929190818152602001828054610972906114b0565b80156109bd5780601f10610994576101008083540402835291602001916109bd565b820191905f5260205f20905b8154815290600101906020018083116109a057829003601f168201915b5050505050908060020154905083565b60035481565b5f60015f8473ffffffffffffffffffffffffffffffffffffffff1673ffffffffffffffffffffffffffffffffffffffff1681526020019081526020015f20600301805480602002602001604051908101604052809291908181526020018280548015610a5c57602002820191905f5260205f20905b815481526020019060010190808311610a48575b505050505090505f5b8151811015610b195782828281518110610a8257610a81611540565b5b602002602001015103610b06578160018351610a9e919061150d565b81518110610aaf57610aae611540565b5b6020026020010151828281518110610aca57610ac9611540565b5b6020026020010181815250508160018351610ae5919061150d565b81518110610af657610af5611540565b5b602002602001015f815250610b19565b8080610b119061156d565b915050610a65565b50505050565b60405180608001604052808381526020018281526020015f81526020015f67ffffffffffffffff811115610b5657610b556112d7565b5b604051908082528060200260200182016040528015610b845781602001602082028036833780820191505090505b5081525060015f8573ffffffffffffffffffffffffffffffffffffffff1673ffffffffffffffffffffffffffffffffffffffff1681526020019081526020015f205f820151815f019081610bd89190611751565b506020820151816001019081610bee9190611751565b50604082015181600201556060820151816003019080519060200190610c15929190610d44565b509050506001600354610c289190611820565b6003819055508260025f60035481526020019081526020015f205f6101000a81548173ffffffffffffffffffffffffffffffffffffffff021916908373ffffffffffffffffffffffffffffffffffffffff1602179055508273ffffffffffffffffffffffffffffffffffffffff167f6f289fe93e06e036f01b77da15925ec8bc9ab53277b43b06e133fe1a319e70f38383604051610cc7929190611853565b60405180910390a2505050565b8060015f8473ffffffffffffffffffffffffffffffffffffffff1673ffffffffffffffffffffffffffffffffffffffff1681526020019081526020015f20600201819055505050565b604051806080016040528060608152602001606081526020015f8152602001606081525090565b828054828255905f5260205f20908101928215610d7e579160200282015b82811115610d7d578251825591602001919060010190610d62565b5b509050610d8b9190610d8f565b5090565b5b80821115610da6575f815f905550600101610d90565b5090565b5f81519050919050565b5f82825260208201905092915050565b5f819050602082019050919050565b5f81519050919050565b5f82825260208201905092915050565b5f5b83811015610e0a578082015181840152602081019050610def565b5f8484015250505050565b5f601f19601f8301169050919050565b5f610e2f82610dd3565b610e398185610ddd565b9350610e49818560208601610ded565b610e5281610e15565b840191505092915050565b5f819050919050565b610e6f81610e5d565b82525050565b5f81519050919050565b5f82825260208201905092915050565b5f819050602082019050919050565b5f610ea98383610e66565b60208301905092915050565b5f602082019050919050565b5f610ecb82610e75565b610ed58185610e7f565b9350610ee083610e8f565b805f5b83811015610f10578151610ef78882610e9e565b9750610f0283610eb5565b925050600181019050610ee3565b5085935050505092915050565b5f608083015f8301518482035f860152610f378282610e25565b91505060208301518482036020860152610f518282610e25565b9150506040830151610f666040860182610e66565b5060608301518482036060860152610f7e8282610ec1565b9150508091505092915050565b5f610f968383610f1d565b905092915050565b5f602082019050919050565b5f610fb482610daa565b610fbe8185610db4565b935083602082028501610fd085610dc4565b805f5b8581101561100b5784840389528151610fec8582610f8b565b9450610ff783610f9e565b925060208a01995050600181019050610fd3565b50829750879550505050505092915050565b5f6020820190508181035f8301526110358184610faa565b905092915050565b5f604051905090565b5f80fd5b5f80fd5b5f73ffffffffffffffffffffffffffffffffffffffff82169050919050565b5f6110778261104e565b9050919050565b6110878161106d565b8114611091575f80fd5b50565b5f813590506110a28161107e565b92915050565b6110b181610e5d565b81146110bb575f80fd5b50565b5f813590506110cc816110a8565b92915050565b5f80604083850312156110e8576110e7611046565b5b5f6110f585828601611094565b9250506020611106858286016110be565b9150509250929050565b5f6020828403121561112557611124611046565b5b5f61113284828501611094565b91505092915050565b61114481610e5d565b82525050565b5f60208201905061115d5f83018461113b565b92915050565b5f6020828403121561117857611177611046565b5b5f611185848285016110be565b91505092915050565b6111978161106d565b82525050565b5f6020820190506111b05f83018461118e565b92915050565b5f608083015f8301518482035f8601526111d08282610e25565b915050602083015184820360208601526111ea8282610e25565b91505060408301516111ff6040860182610e66565b50606083015184820360608601526112178282610ec1565b9150508091505092915050565b5f6020820190508181035f83015261123c81846111b6565b905092915050565b5f82825260208201905092915050565b5f61125e82610dd3565b6112688185611244565b9350611278818560208601610ded565b61128181610e15565b840191505092915050565b5f6060820190508181035f8301526112a48186611254565b905081810360208301526112b88185611254565b90506112c7604083018461113b565b949350505050565b5f80fd5b5f80fd5b7f4e487b71000000000000000000000000000000000000000000000000000000005f52604160045260245ffd5b61130d82610e15565b810181811067ffffffffffffffff8211171561132c5761132b6112d7565b5b80604052505050565b5f61133e61103d565b905061134a8282611304565b919050565b5f67ffffffffffffffff821115611369576113686112d7565b5b61137282610e15565b9050602081019050919050565b828183375f83830152505050565b5f61139f61139a8461134f565b611335565b9050828152602081018484840111156113bb576113ba6112d3565b5b6113c684828561137f565b509392505050565b5f82601f8301126113e2576113e16112cf565b5b81356113f284826020860161138d565b91505092915050565b5f805f6060848603121561141257611411611046565b5b5f61141f86828701611094565b935050602084013567ffffffffffffffff8111156114405761143f61104a565b5b61144c868287016113ce565b925050604084013567ffffffffffffffff81111561146d5761146c61104a565b5b611479868287016113ce565b9150509250925092565b7f4e487b71000000000000000000000000000000000000000000000000000000005f52602260045260245ffd5b5f60028204905060018216806114c757607f821691505b6020821081036114da576114d9611483565b5b50919050565b7f4e487b71000000000000000000000000000000000000000000000000000000005f52601160045260245ffd5b5f61151782610e5d565b915061152283610e5d565b925082820390508181111561153a576115396114e0565b5b92915050565b7f4e487b71000000000000000000000000000000000000000000000000000000005f52603260045260245ffd5b5f61157782610e5d565b91507fffffffffffffffffffffffffffffffffffffffffffffffffffffffffffffffff82036115a9576115a86114e0565b5b600182019050919050565b5f819050815f5260205f209050919050565b5f6020601f8301049050919050565b5f82821b905092915050565b5f600883026116107fffffffffffffffffffffffffffffffffffffffffffffffffffffffffffffffff826115d5565b61161a86836115d5565b95508019841693508086168417925050509392505050565b5f819050919050565b5f61165561165061164b84610e5d565b611632565b610e5d565b9050919050565b5f819050919050565b61166e8361163b565b61168261167a8261165c565b8484546115e1565b825550505050565b5f90565b61169661168a565b6116a1818484611665565b505050565b5b818110156116c4576116b95f8261168e565b6001810190506116a7565b5050565b601f821115611709576116da816115b4565b6116e3846115c6565b810160208510156116f2578190505b6117066116fe856115c6565b8301826116a6565b50505b505050565b5f82821c905092915050565b5f6117295f198460080261170e565b1980831691505092915050565b5f611741838361171a565b9150826002028217905092915050565b61175a82610dd3565b67ffffffffffffffff811115611773576117726112d7565b5b61177d82546114b0565b6117888282856116c8565b5f60209050601f8311600181146117b9575f84156117a7578287015190505b6117b18582611736565b865550611818565b601f1984166117c7866115b4565b5f5b828110156117ee578489015182556001820191506020850194506020810190506117c9565b8683101561180b5784890151611807601f89168261171a565b8355505b6001600288020188555050505b505050505050565b5f61182a82610e5d565b915061183583610e5d565b925082820190508082111561184d5761184c6114e0565b5b92915050565b5f6040820190508181035f83015261186b8185611254565b9050818103602083015261187f8184611254565b9050939250505056fea2646970667358221220b4ba0eccc3d3a3c9b4b5407aad8f4d6b6fb1d1aa859542e2ad28ea52c8e67a3064736f6c63430008140033",
  "immutableReferences": {},
  "source": "// SPDX-License-Identifier: GPL-3.0\r\npragma solidity >=0.4.16 <0.9.0;\r\n\r\ncontract user {\r\n    address public UserAddress;\r\n\r\n    struct User {\r\n        string name;\r\n        string email;\r\n        uint256 bookBalance;\r\n        uint256[] borrowedBooks;\r\n    }\r\n\r\n    mapping(address => User) public users;\r\n    mapping(uint256 => address) public userAddressById;\r\n    uint256 public totalUsers = 0;\r\n\r\n    event userRegistered(address indexed _user, string _name, string _email);\r\n\r\n    // messed up big time, turns out we don't need an explicit constructor for the user contract for now.\r\n    // user registration will be handled exclusively by using the registerUser function like it should be.\r\n    // What i did earlier was a massive vulnerability.\r\n\r\n    function registerUser(\r\n        address _userAddress,\r\n        string memory _name,\r\n        string memory _email\r\n    ) public {\r\n\r\n    //     if(totalUsers != 0){\r\n    //     for (uint256 i = 1; i <= totalUsers; i++) {\r\n    //     if (\r\n    //         userAddressById[i] == _userAddress\r\n    //     ) {\r\n    //         revert(\"User with the same name and email already exists\");\r\n    //     }\r\n    // }\r\n    //     }\r\n\r\n        users[_userAddress] = User(_name, _email, 0, new uint256[](0));\r\n        totalUsers = totalUsers + 1;\r\n        userAddressById[totalUsers] = _userAddress;\r\n        emit userRegistered(_userAddress, _name, _email);\r\n\r\n        // The user is registered through the constructor primarily, but this function makes it easier to register users through other contracts.\r\n    }\r\n\r\n    function setUserBalance(address _userAddress, uint256 _balance) public {\r\n        users[_userAddress].bookBalance = _balance;\r\n    }\r\n\r\n    function getUserBalance(\r\n        address _userAddress\r\n    ) public view returns (uint256) {\r\n        return users[_userAddress].bookBalance;\r\n    }\r\n\r\n    function setUserHoldsBorrow(address _address, uint256 _bookId) public {\r\n        users[_address].borrowedBooks.push(_bookId);\r\n    }\r\n\r\n    function setUserHoldsReturn(address _address, uint256 _bookId) public view {\r\n        uint256[] memory holds = users[_address].borrowedBooks;\r\n        for (uint256 i = 0; i < holds.length; i++) {\r\n            if (holds[i] == _bookId) {\r\n                holds[i] = holds[holds.length - 1];\r\n                delete holds[holds.length - 1];\r\n                break;\r\n            }\r\n        }\r\n    }\r\n\r\n    function getUser(address _userAddress) public view returns (User memory) {\r\n        return users[_userAddress];\r\n    }\r\n\r\n    // function getUserAddress(uint256 id) public view returns (address) {\r\n    //     return userAddressById[id];\r\n    // }\r\n\r\n    function getUsers() public view returns (User[] memory) {\r\n        address temp_address;\r\n        User[] memory _users = new User[](totalUsers);\r\n        for (uint256 i = 1; i <= totalUsers; i++) {\r\n            temp_address = userAddressById[i];\r\n            _users[i-1] = users[temp_address];\r\n        }\r\n        return _users;\r\n    }\r\n\r\n    function getUserAddressById(uint256 id) public view returns (address) {\r\n        if (userAddressById[id] != address(0)){\r\n            return userAddressById[id];\r\n        }\r\n        return address(0);\r\n    }\r\n}\r\n",
  "sourcePath": "C:\\Users\\maste_0c98yk4\\OneDrive\\Desktop\\Projects\\Librarium\\contracts\\user.sol",
  "compiler": {
    "name": "solc",
    "version": "0.8.20+commit.a1b79de6.Emscripten.clang"
  },
  "schemaVersion": "3.4.14",
  "updatedAt": "2023-06-27T18:26:29.011Z",
  "networkType": "ethereum",
  "devdoc": {
    "kind": "dev",
    "methods": {},
    "version": 1
  },
  "userdoc": {
    "kind": "user",
    "methods": {},
    "version": 1
  }
}