{
  "contractName": "user",
  "abi": [
    {
      "anonymous": false,
      "inputs": [
        {
          "indexed": true,
          "internalType": "address",
          "name": "_user",
          "type": "address"
        },
        {
          "indexed": false,
          "internalType": "string",
          "name": "_name",
          "type": "string"
        },
        {
          "indexed": false,
          "internalType": "string",
          "name": "_email",
          "type": "string"
        }
      ],
      "name": "userRegistered",
      "type": "event"
    },
    {
      "inputs": [],
      "name": "UserAddress",
      "outputs": [
        {
          "internalType": "address",
          "name": "",
          "type": "address"
        }
      ],
      "stateMutability": "view",
      "type": "function"
    },
    {
      "inputs": [],
      "name": "totalUsers",
      "outputs": [
        {
          "internalType": "uint256",
          "name": "",
          "type": "uint256"
        }
      ],
      "stateMutability": "view",
      "type": "function"
    },
    {
      "inputs": [
        {
          "internalType": "uint256",
          "name": "",
          "type": "uint256"
        }
      ],
      "name": "userAddressById",
      "outputs": [
        {
          "internalType": "address",
          "name": "",
          "type": "address"
        }
      ],
      "stateMutability": "view",
      "type": "function"
    },
    {
      "inputs": [
        {
          "internalType": "address",
          "name": "",
          "type": "address"
        }
      ],
      "name": "users",
      "outputs": [
        {
          "internalType": "string",
          "name": "name",
          "type": "string"
        },
        {
          "internalType": "string",
          "name": "email",
          "type": "string"
        },
        {
          "internalType": "uint256",
          "name": "bookBalance",
          "type": "uint256"
        }
      ],
      "stateMutability": "view",
      "type": "function"
    },
    {
      "inputs": [
        {
          "internalType": "address",
          "name": "_userAddress",
          "type": "address"
        },
        {
          "internalType": "string",
          "name": "_name",
          "type": "string"
        },
        {
          "internalType": "string",
          "name": "_email",
          "type": "string"
        }
      ],
      "name": "registerUser",
      "outputs": [],
      "stateMutability": "nonpayable",
      "type": "function"
    },
    {
      "inputs": [
        {
          "internalType": "address",
          "name": "_userAddress",
          "type": "address"
        },
        {
          "internalType": "uint256",
          "name": "_balance",
          "type": "uint256"
        }
      ],
      "name": "setUserBalance",
      "outputs": [],
      "stateMutability": "nonpayable",
      "type": "function"
    },
    {
      "inputs": [
        {
          "internalType": "address",
          "name": "_userAddress",
          "type": "address"
        }
      ],
      "name": "getUserBalance",
      "outputs": [
        {
          "internalType": "uint256",
          "name": "",
          "type": "uint256"
        }
      ],
      "stateMutability": "view",
      "type": "function"
    },
    {
      "inputs": [
        {
          "internalType": "address",
          "name": "_address",
          "type": "address"
        },
        {
          "internalType": "uint256",
          "name": "_bookId",
          "type": "uint256"
        }
      ],
      "name": "setUserHoldsBorrow",
      "outputs": [],
      "stateMutability": "nonpayable",
      "type": "function"
    },
    {
      "inputs": [
        {
          "internalType": "address",
          "name": "_address",
          "type": "address"
        },
        {
          "internalType": "uint256",
          "name": "_bookId",
          "type": "uint256"
        }
      ],
      "name": "setUserHoldsReturn",
      "outputs": [],
      "stateMutability": "view",
      "type": "function"
    },
    {
      "inputs": [
        {
          "internalType": "address",
          "name": "_userAddress",
          "type": "address"
        }
      ],
      "name": "getUser",
      "outputs": [
        {
          "components": [
            {
              "internalType": "string",
              "name": "name",
              "type": "string"
            },
            {
              "internalType": "string",
              "name": "email",
              "type": "string"
            },
            {
              "internalType": "uint256",
              "name": "bookBalance",
              "type": "uint256"
            },
            {
              "internalType": "uint256[]",
              "name": "borrowedBooks",
              "type": "uint256[]"
            }
          ],
          "internalType": "struct user.User",
          "name": "",
          "type": "tuple"
        }
      ],
      "stateMutability": "view",
      "type": "function"
    },
    {
      "inputs": [],
      "name": "getUsers",
      "outputs": [
        {
          "components": [
            {
              "internalType": "string",
              "name": "name",
              "type": "string"
            },
            {
              "internalType": "string",
              "name": "email",
              "type": "string"
            },
            {
              "internalType": "uint256",
              "name": "bookBalance",
              "type": "uint256"
            },
            {
              "internalType": "uint256[]",
              "name": "borrowedBooks",
              "type": "uint256[]"
            }
          ],
          "internalType": "struct user.User[]",
          "name": "",
          "type": "tuple[]"
        }
      ],
      "stateMutability": "view",
      "type": "function"
    },
    {
      "inputs": [
        {
          "internalType": "address",
          "name": "_userAddress",
          "type": "address"
        }
      ],
      "name": "userExists",
      "outputs": [
        {
          "internalType": "bool",
          "name": "",
          "type": "bool"
        }
      ],
      "stateMutability": "view",
      "type": "function"
    }
  ],
  "bytecode": "0x60806040525f600355348015610013575f80fd5b5061197a806100215f395ff3fe608060405234801561000f575f80fd5b50600436106100b1575f3560e01c80639320b4741161006f5780639320b474146101af578063a87430ba146101cd578063bff1f9e1146101ff578063d81896cb1461021d578063db0c87c914610239578063fe17770014610255576100b1565b8062ce8e3e146100b55780630e666e49146100d357806340405f7e14610103578063477348921461011f5780634aed47cf1461014f5780636f77926b1461017f575b5f80fd5b6100bd610271565b6040516100ca9190611018565b60405180910390f35b6100ed60048036038101906100e891906110a3565b61050d565b6040516100fa91906110e8565b60405180910390f35b61011d6004803603810190610118919061112b565b610573565b005b610139600480360381019061013491906110a3565b6105db565b6040516101469190611178565b60405180910390f35b61016960048036038101906101649190611191565b610624565b60405161017691906111cb565b60405180910390f35b610199600480360381019061019491906110a3565b610654565b6040516101a69190611252565b60405180910390f35b6101b761082a565b6040516101c491906111cb565b60405180910390f35b6101e760048036038101906101e291906110a3565b61084d565b6040516101f6939291906112ba565b60405180910390f35b61020761097f565b6040516102149190611178565b60405180910390f35b6102376004803603810190610232919061112b565b610985565b005b610253600480360381019061024e9190611429565b610ad1565b005b61026f600480360381019061026a919061112b565b610ccf565b005b60605f8060035467ffffffffffffffff81111561029157610290611305565b5b6040519080825280602002602001820160405280156102ca57816020015b6102b7610d18565b8152602001906001900390816102af5790505b5090505f5b6003548110156105045760025f8281526020019081526020015f205f9054906101000a900473ffffffffffffffffffffffffffffffffffffffff16925060015f8473ffffffffffffffffffffffffffffffffffffffff1673ffffffffffffffffffffffffffffffffffffffff1681526020019081526020015f206040518060800160405290815f82018054610363906114de565b80601f016020809104026020016040519081016040528092919081815260200182805461038f906114de565b80156103da5780601f106103b1576101008083540402835291602001916103da565b820191905f5260205f20905b8154815290600101906020018083116103bd57829003601f168201915b505050505081526020016001820180546103f3906114de565b80601f016020809104026020016040519081016040528092919081815260200182805461041f906114de565b801561046a5780601f106104415761010080835404028352916020019161046a565b820191905f5260205f20905b81548152906001019060200180831161044d57829003601f168201915b5050505050815260200160028201548152602001600382018054806020026020016040519081016040528092919081815260200182805480156104ca57602002820191905f5260205f20905b8154815260200190600101908083116104b6575b5050505050815250508282815181106104e6576104e561150e565b5b602002602001018190525080806104fc90611568565b9150506102cf565b50809250505090565b5f8060015f8473ffffffffffffffffffffffffffffffffffffffff1673ffffffffffffffffffffffffffffffffffffffff1681526020019081526020015f205f018054610559906114de565b9050111561056a576001905061056e565b5f90505b919050565b60015f8373ffffffffffffffffffffffffffffffffffffffff1673ffffffffffffffffffffffffffffffffffffffff1681526020019081526020015f2060030181908060018154018082558091505060019003905f5260205f20015f90919091909150555050565b5f60015f8373ffffffffffffffffffffffffffffffffffffffff1673ffffffffffffffffffffffffffffffffffffffff1681526020019081526020015f20600201549050919050565b6002602052805f5260405f205f915054906101000a900473ffffffffffffffffffffffffffffffffffffffff1681565b61065c610d18565b60015f8373ffffffffffffffffffffffffffffffffffffffff1673ffffffffffffffffffffffffffffffffffffffff1681526020019081526020015f206040518060800160405290815f820180546106b3906114de565b80601f01602080910402602001604051908101604052809291908181526020018280546106df906114de565b801561072a5780601f106107015761010080835404028352916020019161072a565b820191905f5260205f20905b81548152906001019060200180831161070d57829003601f168201915b50505050508152602001600182018054610743906114de565b80601f016020809104026020016040519081016040528092919081815260200182805461076f906114de565b80156107ba5780601f10610791576101008083540402835291602001916107ba565b820191905f5260205f20905b81548152906001019060200180831161079d57829003601f168201915b50505050508152602001600282015481526020016003820180548060200260200160405190810160405280929190818152602001828054801561081a57602002820191905f5260205f20905b815481526020019060010190808311610806575b5050505050815250509050919050565b5f8054906101000a900473ffffffffffffffffffffffffffffffffffffffff1681565b6001602052805f5260405f205f91509050805f01805461086c906114de565b80601f0160208091040260200160405190810160405280929190818152602001828054610898906114de565b80156108e35780601f106108ba576101008083540402835291602001916108e3565b820191905f5260205f20905b8154815290600101906020018083116108c657829003601f168201915b5050505050908060010180546108f8906114de565b80601f0160208091040260200160405190810160405280929190818152602001828054610924906114de565b801561096f5780601f106109465761010080835404028352916020019161096f565b820191905f5260205f20905b81548152906001019060200180831161095257829003601f168201915b5050505050908060020154905083565b60035481565b5f60015f8473ffffffffffffffffffffffffffffffffffffffff1673ffffffffffffffffffffffffffffffffffffffff1681526020019081526020015f20600301805480602002602001604051908101604052809291908181526020018280548015610a0e57602002820191905f5260205f20905b8154815260200190600101908083116109fa575b505050505090505f5b8151811015610acb5782828281518110610a3457610a3361150e565b5b602002602001015103610ab8578160018351610a5091906115af565b81518110610a6157610a6061150e565b5b6020026020010151828281518110610a7c57610a7b61150e565b5b6020026020010181815250508160018351610a9791906115af565b81518110610aa857610aa761150e565b5b602002602001015f815250610acb565b8080610ac390611568565b915050610a17565b50505050565b610ada8361050d565b15610b1a576040517f08c379a0000000000000000000000000000000000000000000000000000000008152600401610b1190611652565b60405180910390fd5b60405180608001604052808381526020018281526020015f81526020015f67ffffffffffffffff811115610b5157610b50611305565b5b604051908082528060200260200182016040528015610b7f5781602001602082028036833780820191505090505b5081525060015f8573ffffffffffffffffffffffffffffffffffffffff1673ffffffffffffffffffffffffffffffffffffffff1681526020019081526020015f205f820151815f019081610bd3919061180d565b506020820151816001019081610be9919061180d565b50604082015181600201556060820151816003019080519060200190610c10929190610d3f565b509050506001600354610c2391906118dc565b6003819055508260025f60035481526020019081526020015f205f6101000a81548173ffffffffffffffffffffffffffffffffffffffff021916908373ffffffffffffffffffffffffffffffffffffffff1602179055508273ffffffffffffffffffffffffffffffffffffffff167f6f289fe93e06e036f01b77da15925ec8bc9ab53277b43b06e133fe1a319e70f38383604051610cc292919061190f565b60405180910390a2505050565b8060015f8473ffffffffffffffffffffffffffffffffffffffff1673ffffffffffffffffffffffffffffffffffffffff1681526020019081526020015f20600201819055505050565b604051806080016040528060608152602001606081526020015f8152602001606081525090565b828054828255905f5260205f20908101928215610d79579160200282015b82811115610d78578251825591602001919060010190610d5d565b5b509050610d869190610d8a565b5090565b5b80821115610da1575f815f905550600101610d8b565b5090565b5f81519050919050565b5f82825260208201905092915050565b5f819050602082019050919050565b5f81519050919050565b5f82825260208201905092915050565b5f5b83811015610e05578082015181840152602081019050610dea565b5f8484015250505050565b5f601f19601f8301169050919050565b5f610e2a82610dce565b610e348185610dd8565b9350610e44818560208601610de8565b610e4d81610e10565b840191505092915050565b5f819050919050565b610e6a81610e58565b82525050565b5f81519050919050565b5f82825260208201905092915050565b5f819050602082019050919050565b5f610ea48383610e61565b60208301905092915050565b5f602082019050919050565b5f610ec682610e70565b610ed08185610e7a565b9350610edb83610e8a565b805f5b83811015610f0b578151610ef28882610e99565b9750610efd83610eb0565b925050600181019050610ede565b5085935050505092915050565b5f608083015f8301518482035f860152610f328282610e20565b91505060208301518482036020860152610f4c8282610e20565b9150506040830151610f616040860182610e61565b5060608301518482036060860152610f798282610ebc565b9150508091505092915050565b5f610f918383610f18565b905092915050565b5f602082019050919050565b5f610faf82610da5565b610fb98185610daf565b935083602082028501610fcb85610dbf565b805f5b858110156110065784840389528151610fe78582610f86565b9450610ff283610f99565b925060208a01995050600181019050610fce565b50829750879550505050505092915050565b5f6020820190508181035f8301526110308184610fa5565b905092915050565b5f604051905090565b5f80fd5b5f80fd5b5f73ffffffffffffffffffffffffffffffffffffffff82169050919050565b5f61107282611049565b9050919050565b61108281611068565b811461108c575f80fd5b50565b5f8135905061109d81611079565b92915050565b5f602082840312156110b8576110b7611041565b5b5f6110c58482850161108f565b91505092915050565b5f8115159050919050565b6110e2816110ce565b82525050565b5f6020820190506110fb5f8301846110d9565b92915050565b61110a81610e58565b8114611114575f80fd5b50565b5f8135905061112581611101565b92915050565b5f806040838503121561114157611140611041565b5b5f61114e8582860161108f565b925050602061115f85828601611117565b9150509250929050565b61117281610e58565b82525050565b5f60208201905061118b5f830184611169565b92915050565b5f602082840312156111a6576111a5611041565b5b5f6111b384828501611117565b91505092915050565b6111c581611068565b82525050565b5f6020820190506111de5f8301846111bc565b92915050565b5f608083015f8301518482035f8601526111fe8282610e20565b915050602083015184820360208601526112188282610e20565b915050604083015161122d6040860182610e61565b50606083015184820360608601526112458282610ebc565b9150508091505092915050565b5f6020820190508181035f83015261126a81846111e4565b905092915050565b5f82825260208201905092915050565b5f61128c82610dce565b6112968185611272565b93506112a6818560208601610de8565b6112af81610e10565b840191505092915050565b5f6060820190508181035f8301526112d28186611282565b905081810360208301526112e68185611282565b90506112f56040830184611169565b949350505050565b5f80fd5b5f80fd5b7f4e487b71000000000000000000000000000000000000000000000000000000005f52604160045260245ffd5b61133b82610e10565b810181811067ffffffffffffffff8211171561135a57611359611305565b5b80604052505050565b5f61136c611038565b90506113788282611332565b919050565b5f67ffffffffffffffff82111561139757611396611305565b5b6113a082610e10565b9050602081019050919050565b828183375f83830152505050565b5f6113cd6113c88461137d565b611363565b9050828152602081018484840111156113e9576113e8611301565b5b6113f48482856113ad565b509392505050565b5f82601f8301126114105761140f6112fd565b5b81356114208482602086016113bb565b91505092915050565b5f805f606084860312156114405761143f611041565b5b5f61144d8682870161108f565b935050602084013567ffffffffffffffff81111561146e5761146d611045565b5b61147a868287016113fc565b925050604084013567ffffffffffffffff81111561149b5761149a611045565b5b6114a7868287016113fc565b9150509250925092565b7f4e487b71000000000000000000000000000000000000000000000000000000005f52602260045260245ffd5b5f60028204905060018216806114f557607f821691505b602082108103611508576115076114b1565b5b50919050565b7f4e487b71000000000000000000000000000000000000000000000000000000005f52603260045260245ffd5b7f4e487b71000000000000000000000000000000000000000000000000000000005f52601160045260245ffd5b5f61157282610e58565b91507fffffffffffffffffffffffffffffffffffffffffffffffffffffffffffffffff82036115a4576115a361153b565b5b600182019050919050565b5f6115b982610e58565b91506115c483610e58565b92508282039050818111156115dc576115db61153b565b5b92915050565b7f5573657220776974682074686973206164647265737320616c726561647920655f8201527f7869737473000000000000000000000000000000000000000000000000000000602082015250565b5f61163c602583611272565b9150611647826115e2565b604082019050919050565b5f6020820190508181035f83015261166981611630565b9050919050565b5f819050815f5260205f209050919050565b5f6020601f8301049050919050565b5f82821b905092915050565b5f600883026116cc7fffffffffffffffffffffffffffffffffffffffffffffffffffffffffffffffff82611691565b6116d68683611691565b95508019841693508086168417925050509392505050565b5f819050919050565b5f61171161170c61170784610e58565b6116ee565b610e58565b9050919050565b5f819050919050565b61172a836116f7565b61173e61173682611718565b84845461169d565b825550505050565b5f90565b611752611746565b61175d818484611721565b505050565b5b81811015611780576117755f8261174a565b600181019050611763565b5050565b601f8211156117c55761179681611670565b61179f84611682565b810160208510156117ae578190505b6117c26117ba85611682565b830182611762565b50505b505050565b5f82821c905092915050565b5f6117e55f19846008026117ca565b1980831691505092915050565b5f6117fd83836117d6565b9150826002028217905092915050565b61181682610dce565b67ffffffffffffffff81111561182f5761182e611305565b5b61183982546114de565b611844828285611784565b5f60209050601f831160018114611875575f8415611863578287015190505b61186d85826117f2565b8655506118d4565b601f19841661188386611670565b5f5b828110156118aa57848901518255600182019150602085019450602081019050611885565b868310156118c757848901516118c3601f8916826117d6565b8355505b6001600288020188555050505b505050505050565b5f6118e682610e58565b91506118f183610e58565b92508282019050808211156119095761190861153b565b5b92915050565b5f6040820190508181035f8301526119278185611282565b9050818103602083015261193b8184611282565b9050939250505056fea26469706673582212209aca278283505a045de567b8afcc8a84101f51b03a5686c1b9a973b0acfd30af64736f6c63430008140033",
  "immutableReferences": {},
  "source": "// SPDX-License-Identifier: GPL-3.0\r\npragma solidity >=0.4.16 <0.9.0;\r\n\r\ncontract user {\r\n    address public UserAddress;\r\n\r\n    struct User {\r\n        string name;\r\n        string email;\r\n        uint256 bookBalance;\r\n        uint256[] borrowedBooks;\r\n    }\r\n\r\n    mapping(address => User) public users;\r\n    mapping(uint256 => address) public userAddressById;\r\n    uint256 public totalUsers = 0;\r\n\r\n    event userRegistered(address indexed _user, string _name, string _email);\r\n\r\n    // messed up big time, turns out we don't need an explicit constructor for the user contract for now.\r\n    // user registration will be handled exclusively by using the registerUser function like it should be.\r\n    // What i did earlier was a massive vulnerability.\r\n\r\n    function registerUser(\r\n        address _userAddress,\r\n        string memory _name,\r\n        string memory _email\r\n    ) public {\r\n        require(\r\n            !userExists(_userAddress),\r\n            \"User with this address already exists\"\r\n        );\r\n        users[_userAddress] = User(_name, _email, 0, new uint256[](0));\r\n        totalUsers = totalUsers + 1;\r\n        userAddressById[totalUsers] = _userAddress;\r\n        emit userRegistered(_userAddress, _name, _email);\r\n\r\n        // The user is registered through the constructor primarily, but this function makes it easier to register users through other contracts.\r\n    }\r\n\r\n    function setUserBalance(address _userAddress, uint256 _balance) public {\r\n        users[_userAddress].bookBalance = _balance;\r\n    }\r\n\r\n    function getUserBalance(\r\n        address _userAddress\r\n    ) public view returns (uint256) {\r\n        return users[_userAddress].bookBalance;\r\n    }\r\n\r\n    function setUserHoldsBorrow(address _address, uint256 _bookId) public {\r\n        users[_address].borrowedBooks.push(_bookId);\r\n    }\r\n\r\n    function setUserHoldsReturn(address _address, uint256 _bookId) public view {\r\n        uint256[] memory holds = users[_address].borrowedBooks;\r\n        for (uint256 i = 0; i < holds.length; i++) {\r\n            if (holds[i] == _bookId) {\r\n                holds[i] = holds[holds.length - 1];\r\n                delete holds[holds.length - 1];\r\n                break;\r\n            }\r\n        }\r\n    }\r\n\r\n    function getUser(address _userAddress) public view returns (User memory) {\r\n        return users[_userAddress];\r\n    }\r\n\r\n    function getUsers() public view returns (User[] memory) {\r\n        address temp_address;\r\n        User[] memory _users = new User[](totalUsers);\r\n        for (uint256 i = 0; i < totalUsers; i++) {\r\n            temp_address = userAddressById[i];\r\n            _users[i] = users[temp_address];\r\n        }\r\n        return _users;\r\n    }\r\n\r\n    function userExists(address _userAddress) public view returns (bool) {\r\n        if (bytes(users[_userAddress].name).length > 0) {\r\n            return true;\r\n        } else {\r\n            return false;\r\n        }\r\n    }\r\n}\r\n",
  "sourcePath": "C:\\Users\\DELL\\Desktop\\Side Projects\\Librarium\\contracts\\user.sol",
  "compiler": {
    "name": "solc",
    "version": "0.8.20+commit.a1b79de6.Emscripten.clang"
  },
  "schemaVersion": "3.4.14",
  "updatedAt": "2023-06-04T12:02:39.750Z",
  "devdoc": {
    "kind": "dev",
    "methods": {},
    "version": 1
  },
  "userdoc": {
    "kind": "user",
    "methods": {},
    "version": 1
  }
}